{
  "contractName": "EventContract",
  "abi": [
    {
      "inputs": [
        {
          "name": "eventName",
          "type": "string"
        },
        {
          "name": "eventLocation",
          "type": "string"
        },
        {
          "name": "eventDate",
          "type": "uint256"
        },
        {
          "name": "buyer",
          "type": "address"
        },
        {
          "name": "seller",
          "type": "address"
        },
        {
          "name": "allowedPostponements",
          "type": "uint8"
        },
        {
          "name": "buyerEscrow",
          "type": "uint256"
        },
        {
          "name": "sellerEscrow",
          "type": "uint256"
        },
        {
          "name": "buyerAdvanceFee",
          "type": "uint256"
        },
        {
          "name": "buyerCancellationFee",
          "type": "uint256"
        },
        {
          "name": "sellerCancellationFee",
          "type": "uint256"
        },
        {
          "name": "buyerContributionPoolAmount",
          "type": "uint256"
        },
        {
          "name": "sellerContributionPoolAmount",
          "type": "uint256"
        },
        {
          "name": "eventPaymentAmount",
          "type": "uint256"
        },
        {
          "name": "eventProtocolAddress",
          "type": "address"
        },
        {
          "name": "eventTokenAddress",
          "type": "address"
        }
      ],
      "payable": false,
      "stateMutability": "nonpayable",
      "type": "constructor"
    },
    {
      "constant": false,
      "inputs": [
        {
          "name": "_from",
          "type": "address"
        },
        {
          "name": "_value",
          "type": "uint256"
        },
        {
          "name": "_data",
          "type": "bytes"
        }
      ],
      "name": "tokenFallback",
      "outputs": [],
      "payable": false,
      "stateMutability": "nonpayable",
      "type": "function"
    },
    {
      "constant": false,
      "inputs": [
        {
          "name": "newEventDate",
          "type": "uint256"
        }
      ],
      "name": "submitPostponeRequest",
      "outputs": [
        {
          "name": "",
          "type": "bool"
        }
      ],
      "payable": false,
      "stateMutability": "nonpayable",
      "type": "function"
    },
    {
      "constant": false,
      "inputs": [],
      "name": "submitCancelRequest",
      "outputs": [
        {
          "name": "",
          "type": "bool"
        }
      ],
      "payable": false,
      "stateMutability": "nonpayable",
      "type": "function"
    },
    {
      "constant": false,
      "inputs": [],
      "name": "acknowledgeCancel",
      "outputs": [
        {
          "name": "",
          "type": "bool"
        }
      ],
      "payable": false,
      "stateMutability": "nonpayable",
      "type": "function"
    }
  ],
  "bytecode": "0x60806040523480156200001157600080fd5b5060405162001e6d38038062001e6d83398101806040528101908080518201929190602001805182019291906020018051906020019092919080519060200190929190805190602001909291908051906020019092919080519060200190929190805190602001909291908051906020019092919080519060200190929190805190602001909291908051906020019092919080519060200190929190805190602001909291908051906020019092919080519060200190929190505050428e111515620000de57600080fd5b60038b60ff16101515620000f157600080fd5b600073ffffffffffffffffffffffffffffffffffffffff168d73ffffffffffffffffffffffffffffffffffffffff16141515156200012e57600080fd5b600073ffffffffffffffffffffffffffffffffffffffff168c73ffffffffffffffffffffffffffffffffffffffff16141515156200016b57600080fd5b60008a1115156200017b57600080fd5b6000891115156200018b57600080fd5b6000881115156200019b57600080fd5b600087111515620001ab57600080fd5b600086111515620001bb57600080fd5b600085111515620001cb57600080fd5b600084111515620001db57600080fd5b600083111515620001eb57600080fd5b8f6000908051906020019062000203929190620005f7565b508e600190805190602001906200021c929190620005f7565b508d600281905550426003819055508c600460006101000a81548173ffffffffffffffffffffffffffffffffffffffff021916908373ffffffffffffffffffffffffffffffffffffffff1602179055508b600560006101000a81548173ffffffffffffffffffffffffffffffffffffffff021916908373ffffffffffffffffffffffffffffffffffffffff1602179055508a600560146101000a81548160ff021916908360ff1602179055508960066000600460009054906101000a900473ffffffffffffffffffffffffffffffffffffffff1673ffffffffffffffffffffffffffffffffffffffff1673ffffffffffffffffffffffffffffffffffffffff168152602001908152602001600020819055508860066000600560009054906101000a900473ffffffffffffffffffffffffffffffffffffffff1673ffffffffffffffffffffffffffffffffffffffff1673ffffffffffffffffffffffffffffffffffffffff16815260200190815260200160002081905550876007819055508660086000600460009054906101000a900473ffffffffffffffffffffffffffffffffffffffff1673ffffffffffffffffffffffffffffffffffffffff1673ffffffffffffffffffffffffffffffffffffffff168152602001908152602001600020819055508560086000600560009054906101000a900473ffffffffffffffffffffffffffffffffffffffff1673ffffffffffffffffffffffffffffffffffffffff1673ffffffffffffffffffffffffffffffffffffffff1681526020019081526020016000208190555084600c6000600460009054906101000a900473ffffffffffffffffffffffffffffffffffffffff1673ffffffffffffffffffffffffffffffffffffffff1673ffffffffffffffffffffffffffffffffffffffff1681526020019081526020016000208190555083600c6000600560009054906101000a900473ffffffffffffffffffffffffffffffffffffffff1673ffffffffffffffffffffffffffffffffffffffff1673ffffffffffffffffffffffffffffffffffffffff1681526020019081526020016000208190555082600d8190555081600e60016101000a81548173ffffffffffffffffffffffffffffffffffffffff021916908373ffffffffffffffffffffffffffffffffffffffff16021790555080600f60006101000a81548173ffffffffffffffffffffffffffffffffffffffff021916908373ffffffffffffffffffffffffffffffffffffffff1602179055506000600e60006101000a81548160ff02191690836006811115620005dc57fe5b021790555050505050505050505050505050505050620006a6565b828054600181600116156101000203166002900490600052602060002090601f016020900481019282601f106200063a57805160ff19168380011785556200066b565b828001600101855582156200066b579182015b828111156200066a5782518255916020019190600101906200064d565b5b5090506200067a91906200067e565b5090565b620006a391905b808211156200069f57600081600090555060010162000685565b5090565b90565b6117b780620006b66000396000f300608060405260043610610062576000357c0100000000000000000000000000000000000000000000000000000000900463ffffffff168063297cd6ff14610067578063accaf77914610096578063c0ee0b8a146100db578063e9a38af01461016e575b600080fd5b34801561007357600080fd5b5061007c61019d565b604051808215151515815260200191505060405180910390f35b3480156100a257600080fd5b506100c1600480360381019080803590602001909291905050506102fb565b604051808215151515815260200191505060405180910390f35b3480156100e757600080fd5b5061016c600480360381019080803573ffffffffffffffffffffffffffffffffffffffff16906020019092919080359060200190929190803590602001908201803590602001908080601f016020809104026020016040519081016040528093929190818152602001838380828437820191505050505050919291929050505061044d565b005b34801561017a57600080fd5b50610183610856565b604051808215151515815260200191505060405180910390f35b6000600460009054906101000a900473ffffffffffffffffffffffffffffffffffffffff1673ffffffffffffffffffffffffffffffffffffffff163373ffffffffffffffffffffffffffffffffffffffff1614806102485750600560009054906101000a900473ffffffffffffffffffffffffffffffffffffffff1673ffffffffffffffffffffffffffffffffffffffff163373ffffffffffffffffffffffffffffffffffffffff16145b151561025357600080fd5b6001600681111561026057fe5b600e60009054906101000a900460ff16600681111561027b57fe5b14151561028757600080fd5b4260025411151561029757600080fd5b6001601460003373ffffffffffffffffffffffffffffffffffffffff1673ffffffffffffffffffffffffffffffffffffffff16815260200190815260200160002060006101000a81548160ff0219169083151502179055506102f7610a10565b5090565b6000600460009054906101000a900473ffffffffffffffffffffffffffffffffffffffff1673ffffffffffffffffffffffffffffffffffffffff163373ffffffffffffffffffffffffffffffffffffffff1614806103a65750600560009054906101000a900473ffffffffffffffffffffffffffffffffffffffff1673ffffffffffffffffffffffffffffffffffffffff163373ffffffffffffffffffffffffffffffffffffffff16145b15156103b157600080fd5b60016013600084815260200190815260200160002060003373ffffffffffffffffffffffffffffffffffffffff1673ffffffffffffffffffffffffffffffffffffffff16815260200190815260200160002060006101000a81548160ff0219169083151502179055506002600e60006101000a81548160ff0219169083600681111561043957fe5b0217905550610447826114f9565b50919050565b610455611688565b600084826000019073ffffffffffffffffffffffffffffffffffffffff16908173ffffffffffffffffffffffffffffffffffffffff16815250508382602001818152505082826040018190525060188360008151811015156104b357fe5b9060200101517f010000000000000000000000000000000000000000000000000000000000000090047f0100000000000000000000000000000000000000000000000000000000000000027f0100000000000000000000000000000000000000000000000000000000000000900463ffffffff169060020a02601084600181518110151561053d57fe5b9060200101517f010000000000000000000000000000000000000000000000000000000000000090047f0100000000000000000000000000000000000000000000000000000000000000027f0100000000000000000000000000000000000000000000000000000000000000900463ffffffff169060020a0260088560028151811015156105c757fe5b9060200101517f010000000000000000000000000000000000000000000000000000000000000090047f0100000000000000000000000000000000000000000000000000000000000000027f0100000000000000000000000000000000000000000000000000000000000000900463ffffffff169060020a0285600381518110151561064f57fe5b9060200101517f010000000000000000000000000000000000000000000000000000000000000090047f0100000000000000000000000000000000000000000000000000000000000000027f010000000000000000000000000000000000000000000000000000000000000090040101019050807c01000000000000000000000000000000000000000000000000000000000282606001907bffffffffffffffffffffffffffffffffffffffffffffffffffffffff191690817bffffffffffffffffffffffffffffffffffffffffffffffffffffffff19168152505083601160008773ffffffffffffffffffffffffffffffffffffffff1673ffffffffffffffffffffffffffffffffffffffff168152602001908152602001600020819055506012829080600181540180825580915050906001820390600052602060002090600402016000909192909190915060008201518160000160006101000a81548173ffffffffffffffffffffffffffffffffffffffff021916908373ffffffffffffffffffffffffffffffffffffffff16021790555060208201518160010155604082015181600201908051906020019061080a9291906116e6565b5060608201518160030160006101000a81548163ffffffff02191690837c0100000000000000000000000000000000000000000000000000000000900402179055505050505050505050565b6000600460009054906101000a900473ffffffffffffffffffffffffffffffffffffffff1673ffffffffffffffffffffffffffffffffffffffff163373ffffffffffffffffffffffffffffffffffffffff1614806109015750600560009054906101000a900473ffffffffffffffffffffffffffffffffffffffff1673ffffffffffffffffffffffffffffffffffffffff163373ffffffffffffffffffffffffffffffffffffffff16145b151561090c57600080fd5b6001600681111561091957fe5b600e60009054906101000a900460ff16600681111561093457fe5b14151561094057600080fd5b4260025411151561095057600080fd5b6001601460003373ffffffffffffffffffffffffffffffffffffffff1673ffffffffffffffffffffffffffffffffffffffff16815260200190815260200160002060006101000a81548160ff02191690831515021790555033601060006101000a81548173ffffffffffffffffffffffffffffffffffffffff021916908373ffffffffffffffffffffffffffffffffffffffff1602179055506003600e60006101000a81548160ff02191690836006811115610a0857fe5b021790555090565b60008060008060016006811115610a2357fe5b600e60009054906101000a900460ff166006811115610a3e57fe5b141515610a4a57600080fd5b42600254111515610a5a57600080fd5b6001151560146000600460009054906101000a900473ffffffffffffffffffffffffffffffffffffffff1673ffffffffffffffffffffffffffffffffffffffff1673ffffffffffffffffffffffffffffffffffffffff16815260200190815260200160002060009054906101000a900460ff161515141515610adb57600080fd5b6001151560146000600560009054906101000a900473ffffffffffffffffffffffffffffffffffffffff1673ffffffffffffffffffffffffffffffffffffffff1673ffffffffffffffffffffffffffffffffffffffff16815260200190815260200160002060009054906101000a900460ff161515141515610b5c57600080fd5b60646005600d5402811515610b6d57fe5b049250600460009054906101000a900473ffffffffffffffffffffffffffffffffffffffff1673ffffffffffffffffffffffffffffffffffffffff16601060009054906101000a900473ffffffffffffffffffffffffffffffffffffffff1673ffffffffffffffffffffffffffffffffffffffff1614156114ee57610cd160066000600560009054906101000a900473ffffffffffffffffffffffffffffffffffffffff1673ffffffffffffffffffffffffffffffffffffffff1673ffffffffffffffffffffffffffffffffffffffff16815260200190815260200160002054610cc360075460086000600560009054906101000a900473ffffffffffffffffffffffffffffffffffffffff1673ffffffffffffffffffffffffffffffffffffffff1673ffffffffffffffffffffffffffffffffffffffff1681526020019081526020016000205461165390919063ffffffff16565b61166c90919063ffffffff16565b9150600f60009054906101000a900473ffffffffffffffffffffffffffffffffffffffff1673ffffffffffffffffffffffffffffffffffffffff166370a08231600460009054906101000a900473ffffffffffffffffffffffffffffffffffffffff166040518263ffffffff167c0100000000000000000000000000000000000000000000000000000000028152600401808273ffffffffffffffffffffffffffffffffffffffff1673ffffffffffffffffffffffffffffffffffffffff168152602001915050602060405180830381600087803b158015610db257600080fd5b505af1158015610dc6573d6000803e3d6000fd5b505050506040513d6020811015610ddc57600080fd5b81019080805190602001909291905050509050600f60009054906101000a900473ffffffffffffffffffffffffffffffffffffffff1673ffffffffffffffffffffffffffffffffffffffff1663095ea7b3600e60019054906101000a900473ffffffffffffffffffffffffffffffffffffffff16856040518363ffffffff167c0100000000000000000000000000000000000000000000000000000000028152600401808373ffffffffffffffffffffffffffffffffffffffff1673ffffffffffffffffffffffffffffffffffffffff16815260200182815260200192505050602060405180830381600087803b158015610ed657600080fd5b505af1158015610eea573d6000803e3d6000fd5b505050506040513d6020811015610f0057600080fd5b810190808051906020019092919050505050600f60009054906101000a900473ffffffffffffffffffffffffffffffffffffffff1673ffffffffffffffffffffffffffffffffffffffff1663a9059cbb600e60019054906101000a900473ffffffffffffffffffffffffffffffffffffffff16856040518363ffffffff167c0100000000000000000000000000000000000000000000000000000000028152600401808373ffffffffffffffffffffffffffffffffffffffff1673ffffffffffffffffffffffffffffffffffffffff16815260200182815260200192505050602060405180830381600087803b158015610ff957600080fd5b505af115801561100d573d6000803e3d6000fd5b505050506040513d602081101561102357600080fd5b810190808051906020019092919050505050600f60009054906101000a900473ffffffffffffffffffffffffffffffffffffffff1673ffffffffffffffffffffffffffffffffffffffff1663095ea7b3600560009054906101000a900473ffffffffffffffffffffffffffffffffffffffff16846040518363ffffffff167c0100000000000000000000000000000000000000000000000000000000028152600401808373ffffffffffffffffffffffffffffffffffffffff1673ffffffffffffffffffffffffffffffffffffffff16815260200182815260200192505050602060405180830381600087803b15801561111c57600080fd5b505af1158015611130573d6000803e3d6000fd5b505050506040513d602081101561114657600080fd5b810190808051906020019092919050505050600f60009054906101000a900473ffffffffffffffffffffffffffffffffffffffff1673ffffffffffffffffffffffffffffffffffffffff1663a9059cbb600560009054906101000a900473ffffffffffffffffffffffffffffffffffffffff16846040518363ffffffff167c0100000000000000000000000000000000000000000000000000000000028152600401808373ffffffffffffffffffffffffffffffffffffffff1673ffffffffffffffffffffffffffffffffffffffff16815260200182815260200192505050602060405180830381600087803b15801561123f57600080fd5b505af1158015611253573d6000803e3d6000fd5b505050506040513d602081101561126957600080fd5b810190808051906020019092919050505050600f60009054906101000a900473ffffffffffffffffffffffffffffffffffffffff1673ffffffffffffffffffffffffffffffffffffffff1663095ea7b3600460009054906101000a900473ffffffffffffffffffffffffffffffffffffffff16836040518363ffffffff167c0100000000000000000000000000000000000000000000000000000000028152600401808373ffffffffffffffffffffffffffffffffffffffff1673ffffffffffffffffffffffffffffffffffffffff16815260200182815260200192505050602060405180830381600087803b15801561136257600080fd5b505af1158015611376573d6000803e3d6000fd5b505050506040513d602081101561138c57600080fd5b810190808051906020019092919050505050600f60009054906101000a900473ffffffffffffffffffffffffffffffffffffffff1673ffffffffffffffffffffffffffffffffffffffff1663a9059cbb600560009054906101000a900473ffffffffffffffffffffffffffffffffffffffff16836040518363ffffffff167c0100000000000000000000000000000000000000000000000000000000028152600401808373ffffffffffffffffffffffffffffffffffffffff1673ffffffffffffffffffffffffffffffffffffffff16815260200182815260200192505050602060405180830381600087803b15801561148557600080fd5b505af1158015611499573d6000803e3d6000fd5b505050506040513d60208110156114af57600080fd5b8101908080519060200190929190505050506006600e60006101000a81548160ff021916908360068111156114e057fe5b0217905550600193506114f3565b600093505b50505090565b600060011515601360008481526020019081526020016000206000600460009054906101000a900473ffffffffffffffffffffffffffffffffffffffff1673ffffffffffffffffffffffffffffffffffffffff1673ffffffffffffffffffffffffffffffffffffffff16815260200190815260200160002060009054906101000a900460ff16151514151561158d57600080fd5b60011515601360008481526020019081526020016000206000600560009054906101000a900473ffffffffffffffffffffffffffffffffffffffff1673ffffffffffffffffffffffffffffffffffffffff1673ffffffffffffffffffffffffffffffffffffffff16815260200190815260200160002060009054906101000a900460ff16151514151561161f57600080fd5b816002819055506001600e60006101000a81548160ff0219169083600681111561164557fe5b021790555060019050919050565b600082821115151561166157fe5b818303905092915050565b6000818301905082811015151561167f57fe5b80905092915050565b608060405190810160405280600073ffffffffffffffffffffffffffffffffffffffff168152602001600081526020016060815260200160007bffffffffffffffffffffffffffffffffffffffffffffffffffffffff191681525090565b828054600181600116156101000203166002900490600052602060002090601f016020900481019282601f1061172757805160ff1916838001178555611755565b82800160010185558215611755579182015b82811115611754578251825591602001919060010190611739565b5b5090506117629190611766565b5090565b61178891905b8082111561178457600081600090555060010161176c565b5090565b905600a165627a7a72305820d6eeb1e516af0be5f228861cb93d0fd19a63fb02e0b07919f2ec9feceb131a790029",
  "source": "pragma solidity ^0.4.24;\n\nimport \"./EventToken.sol\";\n\ncontract EventContract{\n  using SafeMath for uint;\n  enum EVENTSTATE {NOTACTIVE, ACTIVE, POSTPONEMENT, CANCELLATION, REPORTING, DISPUTED, SETTLED}\n  string private _eventName;\n  string private _eventLocation;\n  uint private _eventDate;\n  uint private _eventCreationDate;\n  address private _buyer;\n  address private _seller;\n  uint8 private _noOfAllowedPostponements;\n  mapping(address => uint256) private _escrows;\n  uint256 private _buyerAdvanceFee;\n  mapping(address => uint256) private _cancellationFees;\n  address[] private _arbiterAddresses;\n  address[] private _contributerAddresses;\n  mapping(address => uint256) private _arbitrationAmounts;\n  mapping(address => uint256) private _contributionPoolAmounts;\n  uint private _eventPaymentAmount;\n  EVENTSTATE private _eventState;\n  address private _eventProtocolAddress;\n  EventToken private _ETContract;\n  address private _cancellingParty;\n\n\n  struct TKN {\n   address sender;\n   uint256 value;\n   bytes data;\n   bytes4 sig;\n  }\n\n  mapping(address => uint256) internal _transferredAmounts;\n  TKN[] _transactionData;\n\n  mapping(uint => mapping(address => bool)) private _postPoneRequest;\n  mapping(address => bool) private _cancelRequest;\n\n  constructor (string eventName,\n    string eventLocation,\n    uint eventDate,\n    address buyer,\n    address seller,\n    uint8 allowedPostponements,\n    uint buyerEscrow,\n    uint sellerEscrow,\n    uint buyerAdvanceFee,\n    uint buyerCancellationFee,\n    uint sellerCancellationFee,\n    uint buyerContributionPoolAmount,\n    uint sellerContributionPoolAmount,\n    uint eventPaymentAmount,\n    address eventProtocolAddress,\n    address eventTokenAddress) public{\n\n      require(eventDate > now);\n      require(allowedPostponements < 3);\n      require(buyer != address(0));\n      require(seller != address(0));\n      require(buyerEscrow > 0);\n      require(sellerEscrow > 0);\n      require(buyerAdvanceFee > 0);\n      require(buyerCancellationFee > 0);\n      require(sellerCancellationFee > 0);\n      require(buyerContributionPoolAmount > 0);\n      require(sellerContributionPoolAmount > 0);\n      require(eventPaymentAmount > 0);\n      _eventName = eventName;\n      _eventLocation = eventLocation;\n      _eventDate = eventDate;\n      _eventCreationDate = now;\n      _buyer = buyer;\n      _seller = seller;\n      _noOfAllowedPostponements = allowedPostponements;\n      _escrows[_buyer] = buyerEscrow;\n      _escrows[_seller] = sellerEscrow;\n      _buyerAdvanceFee = buyerAdvanceFee;\n      _cancellationFees[_buyer] = buyerCancellationFee;\n      _cancellationFees[_seller] = sellerCancellationFee;\n      _contributionPoolAmounts[_buyer] = buyerContributionPoolAmount;\n      _contributionPoolAmounts[_seller] = sellerContributionPoolAmount;\n      _eventPaymentAmount = eventPaymentAmount;\n      _eventProtocolAddress = eventProtocolAddress;\n      _ETContract = EventToken(eventTokenAddress);\n      _eventState = EVENTSTATE.NOTACTIVE;\n  }\n\n  modifier onlyBuyer{\n      require(msg.sender == _buyer);\n      _;\n  }\n\n  modifier onlySeller{\n      require(msg.sender == _seller);\n      _;\n  }\n\n  modifier onlyBuyerAndSeller{\n      require(msg.sender == _buyer || msg.sender == _seller);\n      _;\n  }\n\n  function tokenFallback(address _from, uint256 _value, bytes _data) public {\n    TKN memory tkn;\n    tkn.sender = _from;\n    tkn.value = _value;\n    tkn.data = _data;\n    uint32 u = uint32(_data[3]) + (uint32(_data[2]) << 8) + (uint32(_data[1]) << 16) + (uint32(_data[0]) << 24);\n    tkn.sig = bytes4(u);\n    _transferredAmounts[_from] = _value;\n    _transactionData.push(tkn);\n  }\n\n\n  function submitPostponeRequest(uint newEventDate) public onlyBuyerAndSeller returns (bool){\n      _postPoneRequest[newEventDate][msg.sender] = true;\n      _eventState = EVENTSTATE.POSTPONEMENT;\n      postPoneEvent(newEventDate);\n  }\n\n  function postPoneEvent(uint newEventDate) internal returns (bool){\n      require(_postPoneRequest[newEventDate][_buyer] == true);\n      require(_postPoneRequest[newEventDate][_seller] == true);\n      _eventDate = newEventDate;\n      _eventState = EVENTSTATE.ACTIVE;\n      return true;\n  }\n\n  function submitCancelRequest() public onlyBuyerAndSeller returns (bool){\n      require(_eventState == EVENTSTATE.ACTIVE);\n      require(_eventDate > now);\n      _cancelRequest[msg.sender] = true;\n      _cancellingParty = msg.sender;\n      _eventState = EVENTSTATE.CANCELLATION;\n  }\n\n  function acknowledgeCancel() public onlyBuyerAndSeller returns (bool){\n      require(_eventState == EVENTSTATE.ACTIVE);\n      require(_eventDate > now);\n      _cancelRequest[msg.sender] = true;\n      cancelEvent();\n  }\n\n  function cancelEvent() internal returns (bool){\n      require(_eventState == EVENTSTATE.ACTIVE);\n      require(_eventDate > now);\n      require(_cancelRequest[_buyer] == true);\n      require(_cancelRequest[_seller] == true);\n\n      //What if the buyer cancelles the event (Seller's cancellation fees should be > advance fee)\n      uint _eventProtcolCharges = (_eventPaymentAmount * 5)/100;\n\n      if (_cancellingParty == _buyer){\n        uint _sellerCharges = (_cancellationFees[_seller].sub(_buyerAdvanceFee)).add(_escrows[_seller]);\n        uint _buyerPayment = _ETContract.balanceOf(_buyer);\n        _ETContract.approve(_eventProtocolAddress, _eventProtcolCharges);\n        _ETContract.transfer(_eventProtocolAddress, _eventProtcolCharges);\n        _ETContract.approve(_seller, _sellerCharges);\n        _ETContract.transfer(_seller, _sellerCharges);\n        _ETContract.approve(_buyer, _buyerPayment);\n        _ETContract.transfer(_seller, _buyerPayment);\n        _eventState = EVENTSTATE.SETTLED;\n        return true;\n      }\n\n      // Seller's cancel case will be handled later\n      return false;\n\n\n  }\n\n  \n\n\n\n\n\n\n\n\n\n\n\n\n\n}\n",
  "sourcePath": "/home/keshik/Documents/GitHub/event-protocol-contracts/contracts/EventContract.sol",
  "compiler": {
    "name": "solc",
    "version": "0.4.24+commit.e67f0147.Emscripten.clang"
  },
  "schemaVersion": "2.0.1",
  "updatedAt": "2018-07-14T07:51:22.402Z"
}