{
  "contractName": "EventContract",
  "abi": [
    {
      "inputs": [
        {
          "name": "eventName",
          "type": "string"
        },
        {
          "name": "eventLocation",
          "type": "string"
        },
        {
          "name": "eventDate",
          "type": "uint256"
        },
        {
          "name": "buyer",
          "type": "address"
        },
        {
          "name": "allowedPostponements",
          "type": "uint8"
        },
        {
          "name": "buyerEscrow",
          "type": "uint256"
        },
        {
          "name": "sellerEscrow",
          "type": "uint256"
        },
        {
          "name": "sellerAdvanceFee",
          "type": "uint256"
        },
        {
          "name": "buyerCancellationFee",
          "type": "uint256"
        },
        {
          "name": "buyerContributionPoolAmount",
          "type": "uint256"
        },
        {
          "name": "sellerContributionPoolAmount",
          "type": "uint256"
        },
        {
          "name": "eventPaymentAmount",
          "type": "uint256"
        },
        {
          "name": "eventProtocolAddress",
          "type": "address"
        },
        {
          "name": "eventTokenAddress",
          "type": "address"
        }
      ],
      "payable": false,
      "stateMutability": "nonpayable",
      "type": "constructor"
    },
    {
      "constant": false,
      "inputs": [
        {
          "name": "_from",
          "type": "address"
        },
        {
          "name": "_value",
          "type": "uint256"
        },
        {
          "name": "_data",
          "type": "bytes"
        }
      ],
      "name": "tokenFallback",
      "outputs": [],
      "payable": false,
      "stateMutability": "nonpayable",
      "type": "function"
    },
    {
      "constant": true,
      "inputs": [],
      "name": "getBuyerActivationAmount",
      "outputs": [
        {
          "name": "",
          "type": "uint256"
        }
      ],
      "payable": false,
      "stateMutability": "view",
      "type": "function"
    },
    {
      "constant": true,
      "inputs": [],
      "name": "getSellerActivationAmount",
      "outputs": [
        {
          "name": "",
          "type": "uint256"
        }
      ],
      "payable": false,
      "stateMutability": "view",
      "type": "function"
    },
    {
      "constant": false,
      "inputs": [
        {
          "name": "newEventDate",
          "type": "uint256"
        }
      ],
      "name": "submitPostponeRequest",
      "outputs": [
        {
          "name": "",
          "type": "bool"
        }
      ],
      "payable": false,
      "stateMutability": "nonpayable",
      "type": "function"
    },
    {
      "constant": false,
      "inputs": [
        {
          "name": "_bool",
          "type": "bool"
        }
      ],
      "name": "submitResolveRequest",
      "outputs": [
        {
          "name": "",
          "type": "bool"
        }
      ],
      "payable": false,
      "stateMutability": "nonpayable",
      "type": "function"
    },
    {
      "constant": false,
      "inputs": [],
      "name": "acknowledgeCancelRequest",
      "outputs": [
        {
          "name": "",
          "type": "bool"
        }
      ],
      "payable": false,
      "stateMutability": "nonpayable",
      "type": "function"
    },
    {
      "constant": false,
      "inputs": [
        {
          "name": "_bool",
          "type": "bool"
        }
      ],
      "name": "completeResolve",
      "outputs": [
        {
          "name": "",
          "type": "bool"
        }
      ],
      "payable": false,
      "stateMutability": "nonpayable",
      "type": "function"
    },
    {
      "constant": false,
      "inputs": [
        {
          "name": "contributor",
          "type": "address"
        }
      ],
      "name": "addContributers",
      "outputs": [
        {
          "name": "",
          "type": "bool"
        }
      ],
      "payable": false,
      "stateMutability": "nonpayable",
      "type": "function"
    },
    {
      "constant": false,
      "inputs": [
        {
          "name": "contributor",
          "type": "address"
        },
        {
          "name": "_tokens",
          "type": "uint256"
        }
      ],
      "name": "acknowledgeContributors",
      "outputs": [
        {
          "name": "",
          "type": "bool"
        }
      ],
      "payable": false,
      "stateMutability": "nonpayable",
      "type": "function"
    },
    {
      "constant": false,
      "inputs": [
        {
          "name": "_target",
          "type": "address"
        }
      ],
      "name": "payOutContributors",
      "outputs": [
        {
          "name": "",
          "type": "bool"
        }
      ],
      "payable": false,
      "stateMutability": "nonpayable",
      "type": "function"
    },
    {
      "constant": false,
      "inputs": [
        {
          "name": "arbiter",
          "type": "address"
        },
        {
          "name": "_bool",
          "type": "bool"
        }
      ],
      "name": "addArbiters",
      "outputs": [
        {
          "name": "",
          "type": "bool"
        }
      ],
      "payable": false,
      "stateMutability": "nonpayable",
      "type": "function"
    },
    {
      "constant": true,
      "inputs": [],
      "name": "getEventState",
      "outputs": [
        {
          "name": "",
          "type": "uint8"
        }
      ],
      "payable": false,
      "stateMutability": "view",
      "type": "function"
    },
    {
      "constant": true,
      "inputs": [],
      "name": "getBuyer",
      "outputs": [
        {
          "name": "",
          "type": "address"
        }
      ],
      "payable": false,
      "stateMutability": "view",
      "type": "function"
    },
    {
      "constant": true,
      "inputs": [],
      "name": "getSeller",
      "outputs": [
        {
          "name": "",
          "type": "address"
        }
      ],
      "payable": false,
      "stateMutability": "view",
      "type": "function"
    },
    {
      "constant": true,
      "inputs": [],
      "name": "getEventDate",
      "outputs": [
        {
          "name": "",
          "type": "uint256"
        }
      ],
      "payable": false,
      "stateMutability": "view",
      "type": "function"
    },
    {
      "constant": true,
      "inputs": [],
      "name": "getEventName",
      "outputs": [
        {
          "name": "",
          "type": "string"
        }
      ],
      "payable": false,
      "stateMutability": "view",
      "type": "function"
    },
    {
      "constant": true,
      "inputs": [],
      "name": "getEventLocation",
      "outputs": [
        {
          "name": "",
          "type": "string"
        }
      ],
      "payable": false,
      "stateMutability": "view",
      "type": "function"
    },
    {
      "constant": true,
      "inputs": [],
      "name": "getSellerAdvanceFee",
      "outputs": [
        {
          "name": "",
          "type": "uint256"
        }
      ],
      "payable": false,
      "stateMutability": "view",
      "type": "function"
    },
    {
      "constant": true,
      "inputs": [],
      "name": "getBuyerCancellationFee",
      "outputs": [
        {
          "name": "",
          "type": "uint256"
        }
      ],
      "payable": false,
      "stateMutability": "view",
      "type": "function"
    },
    {
      "constant": true,
      "inputs": [],
      "name": "getEventCreationDate",
      "outputs": [
        {
          "name": "",
          "type": "uint256"
        }
      ],
      "payable": false,
      "stateMutability": "view",
      "type": "function"
    },
    {
      "constant": true,
      "inputs": [],
      "name": "getEventProtocolAddress",
      "outputs": [
        {
          "name": "",
          "type": "address"
        }
      ],
      "payable": false,
      "stateMutability": "view",
      "type": "function"
    },
    {
      "constant": true,
      "inputs": [],
      "name": "getEventProtocolCharges",
      "outputs": [
        {
          "name": "",
          "type": "uint256"
        }
      ],
      "payable": false,
      "stateMutability": "view",
      "type": "function"
    },
    {
      "constant": true,
      "inputs": [],
      "name": "getEventPaymentCharges",
      "outputs": [
        {
          "name": "",
          "type": "uint256"
        }
      ],
      "payable": false,
      "stateMutability": "view",
      "type": "function"
    },
    {
      "constant": true,
      "inputs": [
        {
          "name": "addr",
          "type": "address"
        }
      ],
      "name": "getContributionPoolAmounts",
      "outputs": [
        {
          "name": "",
          "type": "uint256"
        }
      ],
      "payable": false,
      "stateMutability": "view",
      "type": "function"
    },
    {
      "constant": true,
      "inputs": [
        {
          "name": "target",
          "type": "address"
        },
        {
          "name": "contributor",
          "type": "address"
        }
      ],
      "name": "getContributionAmounts",
      "outputs": [
        {
          "name": "",
          "type": "uint256"
        }
      ],
      "payable": false,
      "stateMutability": "view",
      "type": "function"
    },
    {
      "constant": true,
      "inputs": [
        {
          "name": "addr",
          "type": "address"
        }
      ],
      "name": "getEscrowAmounts",
      "outputs": [
        {
          "name": "",
          "type": "uint256"
        }
      ],
      "payable": false,
      "stateMutability": "view",
      "type": "function"
    },
    {
      "constant": true,
      "inputs": [],
      "name": "getTokenAddress",
      "outputs": [
        {
          "name": "",
          "type": "address"
        }
      ],
      "payable": false,
      "stateMutability": "view",
      "type": "function"
    },
    {
      "constant": true,
      "inputs": [],
      "name": "getSellerSecurityDeposit",
      "outputs": [
        {
          "name": "",
          "type": "uint256"
        }
      ],
      "payable": false,
      "stateMutability": "view",
      "type": "function"
    },
    {
      "constant": true,
      "inputs": [],
      "name": "testThis",
      "outputs": [
        {
          "name": "",
          "type": "string"
        }
      ],
      "payable": false,
      "stateMutability": "view",
      "type": "function"
    }
  ],
  "bytecode": "0x60806040523480156200001157600080fd5b5060405162005a3a38038062005a3a8339810180604052810190808051820192919060200180518201929190602001805190602001909291908051906020019092919080519060200190929190805190602001909291908051906020019092919080519060200190929190805190602001909291908051906020019092919080519060200190929190805190602001909291908051906020019092919080519060200190929190505050428c111515620000ca57600080fd5b60038a60ff16101515620000dd57600080fd5b600073ffffffffffffffffffffffffffffffffffffffff168b73ffffffffffffffffffffffffffffffffffffffff16141515156200011a57600080fd5b6000891115156200012a57600080fd5b6000881115156200013a57600080fd5b6000871115156200014a57600080fd5b6000861115156200015a57600080fd5b6000851115156200016a57600080fd5b6000841115156200017a57600080fd5b6000831115156200018a57600080fd5b8d60009080519060200190620001a2929190620005a7565b508c60019080519060200190620001bb929190620005a7565b508b600281905550426003819055508a600460006101000a81548173ffffffffffffffffffffffffffffffffffffffff021916908373ffffffffffffffffffffffffffffffffffffffff16021790555033600560006101000a81548173ffffffffffffffffffffffffffffffffffffffff021916908373ffffffffffffffffffffffffffffffffffffffff16021790555089600560146101000a81548160ff021916908360ff1602179055508860066000600460009054906101000a900473ffffffffffffffffffffffffffffffffffffffff1673ffffffffffffffffffffffffffffffffffffffff1673ffffffffffffffffffffffffffffffffffffffff168152602001908152602001600020819055508760066000600560009054906101000a900473ffffffffffffffffffffffffffffffffffffffff1673ffffffffffffffffffffffffffffffffffffffff1673ffffffffffffffffffffffffffffffffffffffff16815260200190815260200160002081905550866007819055508560088190555084600d6000600460009054906101000a900473ffffffffffffffffffffffffffffffffffffffff1673ffffffffffffffffffffffffffffffffffffffff1673ffffffffffffffffffffffffffffffffffffffff1681526020019081526020016000208190555083600d6000600560009054906101000a900473ffffffffffffffffffffffffffffffffffffffff1673ffffffffffffffffffffffffffffffffffffffff1673ffffffffffffffffffffffffffffffffffffffff1681526020019081526020016000208190555081601060016101000a81548173ffffffffffffffffffffffffffffffffffffffff021916908373ffffffffffffffffffffffffffffffffffffffff16021790555080601160006101000a81548173ffffffffffffffffffffffffffffffffffffffff021916908373ffffffffffffffffffffffffffffffffffffffff1602179055506000601060006101000a81548160ff02191690836006811115620004af57fe5b0217905550620004f5620004d98460056200053a6401000000000262005370176401000000009004565b6064620005766401000000000262004757176401000000009004565b60138190555062000520601354846200058d640100000000026200476d179091906401000000009004565b600f81905550505050505050505050505050505062000656565b6000808314156200054f576000905062000570565b81830290508183828115156200056157fe5b041415156200056c57fe5b8090505b92915050565b600081838115156200058457fe5b04905092915050565b60008282111515156200059c57fe5b818303905092915050565b828054600181600116156101000203166002900490600052602060002090601f016020900481019282601f10620005ea57805160ff19168380011785556200061b565b828001600101855582156200061b579182015b828111156200061a578251825591602001919060010190620005fd565b5b5090506200062a91906200062e565b5090565b6200065391905b808211156200064f57600081600090555060010162000635565b5090565b90565b6153d480620006666000396000f300608060405260043610610175576000357c0100000000000000000000000000000000000000000000000000000000900463ffffffff16806310fe9ae81461017a5780631375e2e8146101d15780632076e262146102005780632bf0eae61461022b5780632c292aea1461028257806334cc0872146102d957806335b58caf1461030457806339c5b6991461035f57806342fe6277146103ba578063505eb9a614610421578063575836a314610486578063600ecdbf146104b157806360388de4146104f8578063603daf9a1461054f5780637d9cf283146105a6578063886555fc1461063657806390be6c1d146106615780639b3481e9146106f1578063accaf7791461071c578063b81e43fc14610761578063bb230a32146107f1578063bec768251461081c578063c0ee0b8a14610847578063c2902c03146108da578063c3a9555114610905578063cea7d8f31461094c578063d0920960146109c3578063dbd0e1b6146109ee578063f750790114610a45575b600080fd5b34801561018657600080fd5b5061018f610a7e565b604051808273ffffffffffffffffffffffffffffffffffffffff1673ffffffffffffffffffffffffffffffffffffffff16815260200191505060405180910390f35b3480156101dd57600080fd5b506101e6610aa8565b604051808215151515815260200191505060405180910390f35b34801561020c57600080fd5b50610215610c06565b6040518082815260200191505060405180910390f35b34801561023757600080fd5b50610240610cf6565b604051808273ffffffffffffffffffffffffffffffffffffffff1673ffffffffffffffffffffffffffffffffffffffff16815260200191505060405180910390f35b34801561028e57600080fd5b506102c3600480360381019080803573ffffffffffffffffffffffffffffffffffffffff169060200190929190505050610d20565b6040518082815260200191505060405180910390f35b3480156102e557600080fd5b506102ee610e1d565b6040518082815260200191505060405180910390f35b34801561031057600080fd5b50610345600480360381019080803573ffffffffffffffffffffffffffffffffffffffff169060200190929190505050610e3b565b604051808215151515815260200191505060405180910390f35b34801561036b57600080fd5b506103a0600480360381019080803573ffffffffffffffffffffffffffffffffffffffff16906020019092919050505061105a565b604051808215151515815260200191505060405180910390f35b3480156103c657600080fd5b50610407600480360381019080803573ffffffffffffffffffffffffffffffffffffffff169060200190929190803515159060200190929190505050611824565b604051808215151515815260200191505060405180910390f35b34801561042d57600080fd5b5061046c600480360381019080803573ffffffffffffffffffffffffffffffffffffffff169060200190929190803590602001909291905050506128b3565b604051808215151515815260200191505060405180910390f35b34801561049257600080fd5b5061049b612a95565b6040518082815260200191505060405180910390f35b3480156104bd57600080fd5b506104de600480360381019080803515159060200190929190505050612a9f565b604051808215151515815260200191505060405180910390f35b34801561050457600080fd5b50610539600480360381019080803573ffffffffffffffffffffffffffffffffffffffff169060200190929190505050612cd9565b6040518082815260200191505060405180910390f35b34801561055b57600080fd5b50610564612dd6565b604051808273ffffffffffffffffffffffffffffffffffffffff1673ffffffffffffffffffffffffffffffffffffffff16815260200191505060405180910390f35b3480156105b257600080fd5b506105bb612e00565b6040518080602001828103825283818151815260200191508051906020019080838360005b838110156105fb5780820151818401526020810190506105e0565b50505050905090810190601f1680156106285780820380516001836020036101000a031916815260200191505b509250505060405180910390f35b34801561064257600080fd5b5061064b612ea2565b6040518082815260200191505060405180910390f35b34801561066d57600080fd5b50610676612eac565b6040518080602001828103825283818151815260200191508051906020019080838360005b838110156106b657808201518184015260208101905061069b565b50505050905090810190601f1680156106e35780820380516001836020036101000a031916815260200191505b509250505060405180910390f35b3480156106fd57600080fd5b50610706612f55565b6040518082815260200191505060405180910390f35b34801561072857600080fd5b506107476004803603810190808035906020019092919050505061304a565b604051808215151515815260200191505060405180910390f35b34801561076d57600080fd5b506107766131bd565b6040518080602001828103825283818151815260200191508051906020019080838360005b838110156107b657808201518184015260208101905061079b565b50505050905090810190601f1680156107e35780820380516001836020036101000a031916815260200191505b509250505060405180910390f35b3480156107fd57600080fd5b5061080661325f565b6040518082815260200191505060405180910390f35b34801561082857600080fd5b50610831613269565b6040518082815260200191505060405180910390f35b34801561085357600080fd5b506108d8600480360381019080803573ffffffffffffffffffffffffffffffffffffffff16906020019092919080359060200190929190803590602001908201803590602001908080601f0160208091040260200160405190810160405280939291908181526020018383808284378201915050505050509192919290505050613273565b005b3480156108e657600080fd5b506108ef6137d7565b6040518082815260200191505060405180910390f35b34801561091157600080fd5b5061093260048036038101908080351515906020019092919050505061392c565b604051808215151515815260200191505060405180910390f35b34801561095857600080fd5b506109ad600480360381019080803573ffffffffffffffffffffffffffffffffffffffff169060200190929190803573ffffffffffffffffffffffffffffffffffffffff169060200190929190505050613ba5565b6040518082815260200191505060405180910390f35b3480156109cf57600080fd5b506109d8613c2c565b6040518082815260200191505060405180910390f35b3480156109fa57600080fd5b50610a03613c36565b604051808273ffffffffffffffffffffffffffffffffffffffff1673ffffffffffffffffffffffffffffffffffffffff16815260200191505060405180910390f35b348015610a5157600080fd5b50610a5a613c60565b60405180826006811115610a6a57fe5b60ff16815260200191505060405180910390f35b6000601160009054906101000a900473ffffffffffffffffffffffffffffffffffffffff16905090565b6000600460009054906101000a900473ffffffffffffffffffffffffffffffffffffffff1673ffffffffffffffffffffffffffffffffffffffff163373ffffffffffffffffffffffffffffffffffffffff161480610b535750600560009054906101000a900473ffffffffffffffffffffffffffffffffffffffff1673ffffffffffffffffffffffffffffffffffffffff163373ffffffffffffffffffffffffffffffffffffffff16145b1515610b5e57600080fd5b60036006811115610b6b57fe5b601060009054906101000a900460ff166006811115610b8657fe5b141515610b9257600080fd5b42600254111515610ba257600080fd5b6000601760003373ffffffffffffffffffffffffffffffffffffffff1673ffffffffffffffffffffffffffffffffffffffff16815260200190815260200160002060006101000a81548160ff021916908315150217905550610c02613c77565b5090565b6000610cf1600854610ce3600d6000600560009054906101000a900473ffffffffffffffffffffffffffffffffffffffff1673ffffffffffffffffffffffffffffffffffffffff1673ffffffffffffffffffffffffffffffffffffffff1681526020019081526020016000205460066000600560009054906101000a900473ffffffffffffffffffffffffffffffffffffffff1673ffffffffffffffffffffffffffffffffffffffff1673ffffffffffffffffffffffffffffffffffffffff1681526020019081526020016000205461473b90919063ffffffff16565b61473b90919063ffffffff16565b905090565b6000601060019054906101000a900473ffffffffffffffffffffffffffffffffffffffff16905090565b6000600460009054906101000a900473ffffffffffffffffffffffffffffffffffffffff1673ffffffffffffffffffffffffffffffffffffffff168273ffffffffffffffffffffffffffffffffffffffff161480610dcb5750600560009054906101000a900473ffffffffffffffffffffffffffffffffffffffff1673ffffffffffffffffffffffffffffffffffffffff168273ffffffffffffffffffffffffffffffffffffffff16145b1515610dd657600080fd5b600660008373ffffffffffffffffffffffffffffffffffffffff1673ffffffffffffffffffffffffffffffffffffffff168152602001908152602001600020549050919050565b6000610e36600f5460135461473b90919063ffffffff16565b905090565b6000600460009054906101000a900473ffffffffffffffffffffffffffffffffffffffff1673ffffffffffffffffffffffffffffffffffffffff163373ffffffffffffffffffffffffffffffffffffffff161480610ee65750600560009054906101000a900473ffffffffffffffffffffffffffffffffffffffff1673ffffffffffffffffffffffffffffffffffffffff163373ffffffffffffffffffffffffffffffffffffffff16145b1515610ef157600080fd5b60016006811115610efe57fe5b601060009054906101000a900460ff166006811115610f1957fe5b141515610f2557600080fd5b600460009054906101000a900473ffffffffffffffffffffffffffffffffffffffff1673ffffffffffffffffffffffffffffffffffffffff163373ffffffffffffffffffffffffffffffffffffffff161415610fea57600b8290806001815401808255809150509060018203906000526020600020016000909192909190916101000a81548173ffffffffffffffffffffffffffffffffffffffff021916908373ffffffffffffffffffffffffffffffffffffffff1602179055505060019050611055565b600c8290806001815401808255809150509060018203906000526020600020016000909192909190916101000a81548173ffffffffffffffffffffffffffffffffffffffff021916908373ffffffffffffffffffffffffffffffffffffffff16021790555050600190505b919050565b6000806000600460009054906101000a900473ffffffffffffffffffffffffffffffffffffffff1673ffffffffffffffffffffffffffffffffffffffff163373ffffffffffffffffffffffffffffffffffffffff1614806111085750600560009054906101000a900473ffffffffffffffffffffffffffffffffffffffff1673ffffffffffffffffffffffffffffffffffffffff163373ffffffffffffffffffffffffffffffffffffffff16145b151561111357600080fd5b600460009054906101000a900473ffffffffffffffffffffffffffffffffffffffff1673ffffffffffffffffffffffffffffffffffffffff168473ffffffffffffffffffffffffffffffffffffffff1614156114c357600090505b600b805490508110156114be57600b8181548110151561118a57fe5b9060005260206000200160009054906101000a900473ffffffffffffffffffffffffffffffffffffffff169150601160009054906101000a900473ffffffffffffffffffffffffffffffffffffffff1673ffffffffffffffffffffffffffffffffffffffff1663095ea7b383600e60003373ffffffffffffffffffffffffffffffffffffffff1673ffffffffffffffffffffffffffffffffffffffff16815260200190815260200160002060008673ffffffffffffffffffffffffffffffffffffffff1673ffffffffffffffffffffffffffffffffffffffff168152602001908152602001600020546040518363ffffffff167c0100000000000000000000000000000000000000000000000000000000028152600401808373ffffffffffffffffffffffffffffffffffffffff1673ffffffffffffffffffffffffffffffffffffffff16815260200182815260200192505050602060405180830381600087803b1580156112f857600080fd5b505af115801561130c573d6000803e3d6000fd5b505050506040513d602081101561132257600080fd5b810190808051906020019092919050505050601160009054906101000a900473ffffffffffffffffffffffffffffffffffffffff1673ffffffffffffffffffffffffffffffffffffffff1663a9059cbb83600e60003373ffffffffffffffffffffffffffffffffffffffff1673ffffffffffffffffffffffffffffffffffffffff16815260200190815260200160002060008673ffffffffffffffffffffffffffffffffffffffff1673ffffffffffffffffffffffffffffffffffffffff168152602001908152602001600020546040518363ffffffff167c0100000000000000000000000000000000000000000000000000000000028152600401808373ffffffffffffffffffffffffffffffffffffffff1673ffffffffffffffffffffffffffffffffffffffff16815260200182815260200192505050602060405180830381600087803b15801561147557600080fd5b505af1158015611489573d6000803e3d6000fd5b505050506040513d602081101561149f57600080fd5b810190808051906020019092919050505050808060010191505061116e565b611819565b600090505b600b8054905081101561181857600c818154811015156114e457fe5b9060005260206000200160009054906101000a900473ffffffffffffffffffffffffffffffffffffffff169150601160009054906101000a900473ffffffffffffffffffffffffffffffffffffffff1673ffffffffffffffffffffffffffffffffffffffff1663095ea7b383600e60003373ffffffffffffffffffffffffffffffffffffffff1673ffffffffffffffffffffffffffffffffffffffff16815260200190815260200160002060008673ffffffffffffffffffffffffffffffffffffffff1673ffffffffffffffffffffffffffffffffffffffff168152602001908152602001600020546040518363ffffffff167c0100000000000000000000000000000000000000000000000000000000028152600401808373ffffffffffffffffffffffffffffffffffffffff1673ffffffffffffffffffffffffffffffffffffffff16815260200182815260200192505050602060405180830381600087803b15801561165257600080fd5b505af1158015611666573d6000803e3d6000fd5b505050506040513d602081101561167c57600080fd5b810190808051906020019092919050505050601160009054906101000a900473ffffffffffffffffffffffffffffffffffffffff1673ffffffffffffffffffffffffffffffffffffffff1663a9059cbb83600e60003373ffffffffffffffffffffffffffffffffffffffff1673ffffffffffffffffffffffffffffffffffffffff16815260200190815260200160002060008673ffffffffffffffffffffffffffffffffffffffff1673ffffffffffffffffffffffffffffffffffffffff168152602001908152602001600020546040518363ffffffff167c0100000000000000000000000000000000000000000000000000000000028152600401808373ffffffffffffffffffffffffffffffffffffffff1673ffffffffffffffffffffffffffffffffffffffff16815260200182815260200192505050602060405180830381600087803b1580156117cf57600080fd5b505af11580156117e3573d6000803e3d6000fd5b505050506040513d60208110156117f957600080fd5b81019080805190602001909291905050505080806001019150506114c8565b5b600192505050919050565b60008060008060008060008060176000600460009054906101000a900473ffffffffffffffffffffffffffffffffffffffff1673ffffffffffffffffffffffffffffffffffffffff1673ffffffffffffffffffffffffffffffffffffffff16815260200190815260200160002060009054906101000a900460ff16151589151514156119155760098a90806001815401808255809150509060018203906000526020600020016000909192909190916101000a81548173ffffffffffffffffffffffffffffffffffffffff021916908373ffffffffffffffffffffffffffffffffffffffff1602179055505061197c565b600a8a90806001815401808255809150509060018203906000526020600020016000909192909190916101000a81548173ffffffffffffffffffffffffffffffffffffffff021916908373ffffffffffffffffffffffffffffffffffffffff160217905550505b600561199b600a80549050600a8054905061473b90919063ffffffff16565b14156128a557600a8054905060098054905011156123bc576119bb6137d7565b9650611a2d60066000600560009054906101000a900473ffffffffffffffffffffffffffffffffffffffff1673ffffffffffffffffffffffffffffffffffffffff1673ffffffffffffffffffffffffffffffffffffffff16815260200190815260200160002054600980549050614757565b9550611a9b60066000600560009054906101000a900473ffffffffffffffffffffffffffffffffffffffff1673ffffffffffffffffffffffffffffffffffffffff1673ffffffffffffffffffffffffffffffffffffffff168152602001908152602001600020546002614757565b9450846007541115611eb957611abc8560075461476d90919063ffffffff16565b9350611bb3601354611b4c600d6000600460009054906101000a900473ffffffffffffffffffffffffffffffffffffffff1673ffffffffffffffffffffffffffffffffffffffff1673ffffffffffffffffffffffffffffffffffffffff16815260200190815260200160002054611b3e6008548a61473b90919063ffffffff16565b61473b90919063ffffffff16565b600d6000600560009054906101000a900473ffffffffffffffffffffffffffffffffffffffff1673ffffffffffffffffffffffffffffffffffffffff1673ffffffffffffffffffffffffffffffffffffffff16815260200190815260200160002054614786565b5086841015611d3a57601160009054906101000a900473ffffffffffffffffffffffffffffffffffffffff1673ffffffffffffffffffffffffffffffffffffffff166323b872dd600560009054906101000a900473ffffffffffffffffffffffffffffffffffffffff16600460009054906101000a900473ffffffffffffffffffffffffffffffffffffffff16876040518463ffffffff167c0100000000000000000000000000000000000000000000000000000000028152600401808473ffffffffffffffffffffffffffffffffffffffff1673ffffffffffffffffffffffffffffffffffffffff1681526020018373ffffffffffffffffffffffffffffffffffffffff1673ffffffffffffffffffffffffffffffffffffffff1681526020018281526020019350505050602060405180830381600087803b158015611cf957600080fd5b505af1158015611d0d573d6000803e3d6000fd5b505050506040513d6020811015611d2357600080fd5b810190808051906020019092919050505050611eb4565b601160009054906101000a900473ffffffffffffffffffffffffffffffffffffffff1673ffffffffffffffffffffffffffffffffffffffff166323b872dd600560009054906101000a900473ffffffffffffffffffffffffffffffffffffffff16600460009054906101000a900473ffffffffffffffffffffffffffffffffffffffff168a6040518463ffffffff167c0100000000000000000000000000000000000000000000000000000000028152600401808473ffffffffffffffffffffffffffffffffffffffff1673ffffffffffffffffffffffffffffffffffffffff1681526020018373ffffffffffffffffffffffffffffffffffffffff1673ffffffffffffffffffffffffffffffffffffffff1681526020018281526020019350505050602060405180830381600087803b158015611e7757600080fd5b505af1158015611e8b573d6000803e3d6000fd5b505050506040513d6020811015611ea157600080fd5b8101908080519060200190929190505050505b612124565b611f4185611f3360075460066000600560009054906101000a900473ffffffffffffffffffffffffffffffffffffffff1673ffffffffffffffffffffffffffffffffffffffff1673ffffffffffffffffffffffffffffffffffffffff1681526020019081526020016000205461476d90919063ffffffff16565b61476d90919063ffffffff16565b60066000600560009054906101000a900473ffffffffffffffffffffffffffffffffffffffff1673ffffffffffffffffffffffffffffffffffffffff1673ffffffffffffffffffffffffffffffffffffffff16815260200190815260200160002081905550612122601354612048600d6000600460009054906101000a900473ffffffffffffffffffffffffffffffffffffffff1673ffffffffffffffffffffffffffffffffffffffff1673ffffffffffffffffffffffffffffffffffffffff1681526020019081526020016000205461203a8961202c60085460075461473b90919063ffffffff16565b61473b90919063ffffffff16565b61473b90919063ffffffff16565b61211d600d6000600560009054906101000a900473ffffffffffffffffffffffffffffffffffffffff1673ffffffffffffffffffffffffffffffffffffffff1673ffffffffffffffffffffffffffffffffffffffff1681526020019081526020016000205460066000600560009054906101000a900473ffffffffffffffffffffffffffffffffffffffff1673ffffffffffffffffffffffffffffffffffffffff1673ffffffffffffffffffffffffffffffffffffffff1681526020019081526020016000205461473b90919063ffffffff16565b614786565b505b600092505b600a805490508310156123b757601160009054906101000a900473ffffffffffffffffffffffffffffffffffffffff1673ffffffffffffffffffffffffffffffffffffffff1663095ea7b3600a8581548110151561218357fe5b9060005260206000200160009054906101000a900473ffffffffffffffffffffffffffffffffffffffff16886040518363ffffffff167c0100000000000000000000000000000000000000000000000000000000028152600401808373ffffffffffffffffffffffffffffffffffffffff1673ffffffffffffffffffffffffffffffffffffffff16815260200182815260200192505050602060405180830381600087803b15801561223457600080fd5b505af1158015612248573d6000803e3d6000fd5b505050506040513d602081101561225e57600080fd5b810190808051906020019092919050505050601160009054906101000a900473ffffffffffffffffffffffffffffffffffffffff1673ffffffffffffffffffffffffffffffffffffffff1663a9059cbb600a858154811015156122bd57fe5b9060005260206000200160009054906101000a900473ffffffffffffffffffffffffffffffffffffffff16886040518363ffffffff167c0100000000000000000000000000000000000000000000000000000000028152600401808373ffffffffffffffffffffffffffffffffffffffff1673ffffffffffffffffffffffffffffffffffffffff16815260200182815260200192505050602060405180830381600087803b15801561236e57600080fd5b505af1158015612382573d6000803e3d6000fd5b505050506040513d602081101561239857600080fd5b8101908080519060200190929190505050508280600101935050612129565b6128a4565b61250e61249460066000600560009054906101000a900473ffffffffffffffffffffffffffffffffffffffff1673ffffffffffffffffffffffffffffffffffffffff1673ffffffffffffffffffffffffffffffffffffffff16815260200190815260200160002054600d6000600560009054906101000a900473ffffffffffffffffffffffffffffffffffffffff1673ffffffffffffffffffffffffffffffffffffffff1673ffffffffffffffffffffffffffffffffffffffff1681526020019081526020016000205461473b90919063ffffffff16565b61250060066000600460009054906101000a900473ffffffffffffffffffffffffffffffffffffffff1673ffffffffffffffffffffffffffffffffffffffff1673ffffffffffffffffffffffffffffffffffffffff168152602001908152602001600020546002614757565b61473b90919063ffffffff16565b9150612586600d6000600460009054906101000a900473ffffffffffffffffffffffffffffffffffffffff1673ffffffffffffffffffffffffffffffffffffffff1673ffffffffffffffffffffffffffffffffffffffff16815260200190815260200160002054600f5461473b90919063ffffffff16565b90506125f860066000600460009054906101000a900473ffffffffffffffffffffffffffffffffffffffff1673ffffffffffffffffffffffffffffffffffffffff1673ffffffffffffffffffffffffffffffffffffffff16815260200190815260200160002054600a80549050614757565b9550600092505b600a8054905083101561288d57601160009054906101000a900473ffffffffffffffffffffffffffffffffffffffff1673ffffffffffffffffffffffffffffffffffffffff1663095ea7b3600a8581548110151561265957fe5b9060005260206000200160009054906101000a900473ffffffffffffffffffffffffffffffffffffffff16886040518363ffffffff167c0100000000000000000000000000000000000000000000000000000000028152600401808373ffffffffffffffffffffffffffffffffffffffff1673ffffffffffffffffffffffffffffffffffffffff16815260200182815260200192505050602060405180830381600087803b15801561270a57600080fd5b505af115801561271e573d6000803e3d6000fd5b505050506040513d602081101561273457600080fd5b810190808051906020019092919050505050601160009054906101000a900473ffffffffffffffffffffffffffffffffffffffff1673ffffffffffffffffffffffffffffffffffffffff1663a9059cbb600a8581548110151561279357fe5b9060005260206000200160009054906101000a900473ffffffffffffffffffffffffffffffffffffffff16886040518363ffffffff167c0100000000000000000000000000000000000000000000000000000000028152600401808373ffffffffffffffffffffffffffffffffffffffff1673ffffffffffffffffffffffffffffffffffffffff16815260200182815260200192505050602060405180830381600087803b15801561284457600080fd5b505af1158015612858573d6000803e3d6000fd5b505050506040513d602081101561286e57600080fd5b81019080805190602001909291905050505082806001019350506125ff565b61289a6013548284614786565b50600197506128a6565b5b5b5050505050505092915050565b6000600460009054906101000a900473ffffffffffffffffffffffffffffffffffffffff1673ffffffffffffffffffffffffffffffffffffffff163373ffffffffffffffffffffffffffffffffffffffff16148061295e5750600560009054906101000a900473ffffffffffffffffffffffffffffffffffffffff1673ffffffffffffffffffffffffffffffffffffffff163373ffffffffffffffffffffffffffffffffffffffff16145b151561296957600080fd5b81600d60003373ffffffffffffffffffffffffffffffffffffffff1673ffffffffffffffffffffffffffffffffffffffff16815260200190815260200160002054101515156129b757600080fd5b81600e60003373ffffffffffffffffffffffffffffffffffffffff1673ffffffffffffffffffffffffffffffffffffffff16815260200190815260200160002060008573ffffffffffffffffffffffffffffffffffffffff1673ffffffffffffffffffffffffffffffffffffffff16815260200190815260200160002081905550612a8a82600d60003373ffffffffffffffffffffffffffffffffffffffff1673ffffffffffffffffffffffffffffffffffffffff1681526020019081526020016000205461476d90919063ffffffff16565b506001905092915050565b6000600254905090565b6000600460009054906101000a900473ffffffffffffffffffffffffffffffffffffffff1673ffffffffffffffffffffffffffffffffffffffff163373ffffffffffffffffffffffffffffffffffffffff161480612b4a5750600560009054906101000a900473ffffffffffffffffffffffffffffffffffffffff1673ffffffffffffffffffffffffffffffffffffffff163373ffffffffffffffffffffffffffffffffffffffff16145b1515612b5557600080fd5b60016006811115612b6257fe5b601060009054906101000a900460ff166006811115612b7d57fe5b141515612b8957600080fd5b600015158215151415612c4457426002541115612c0a5733601260006101000a81548173ffffffffffffffffffffffffffffffffffffffff021916908373ffffffffffffffffffffffffffffffffffffffff1602179055506003601060006101000a81548160ff02191690836006811115612c0057fe5b0217905550612c3f565b42600254101515612c1a57600080fd5b6004601060006101000a81548160ff02191690836006811115612c3957fe5b02179055505b612c79565b42600254101515612c5457600080fd5b6004601060006101000a81548160ff02191690836006811115612c7357fe5b02179055505b81601760003373ffffffffffffffffffffffffffffffffffffffff1673ffffffffffffffffffffffffffffffffffffffff16815260200190815260200160002060006101000a81548160ff02191690831515021790555060019050919050565b6000600460009054906101000a900473ffffffffffffffffffffffffffffffffffffffff1673ffffffffffffffffffffffffffffffffffffffff168273ffffffffffffffffffffffffffffffffffffffff161480612d845750600560009054906101000a900473ffffffffffffffffffffffffffffffffffffffff1673ffffffffffffffffffffffffffffffffffffffff168273ffffffffffffffffffffffffffffffffffffffff16145b1515612d8f57600080fd5b600d60008373ffffffffffffffffffffffffffffffffffffffff1673ffffffffffffffffffffffffffffffffffffffff168152602001908152602001600020549050919050565b6000600460009054906101000a900473ffffffffffffffffffffffffffffffffffffffff16905090565b606060018054600181600116156101000203166002900480601f016020809104026020016040519081016040528092919081815260200182805460018160011615610100020316600290048015612e985780601f10612e6d57610100808354040283529160200191612e98565b820191906000526020600020905b815481529060010190602001808311612e7b57829003601f168201915b5050505050905090565b6000600754905090565b606060016006811115612ebb57fe5b601060009054906101000a900460ff166006811115612ed657fe5b1415612f19576040805190810160405280600481526020017f59454148000000000000000000000000000000000000000000000000000000008152509050612f52565b6040805190810160405280600481526020017f4655434b0000000000000000000000000000000000000000000000000000000081525090505b90565b6000613045600d6000600460009054906101000a900473ffffffffffffffffffffffffffffffffffffffff1673ffffffffffffffffffffffffffffffffffffffff1673ffffffffffffffffffffffffffffffffffffffff16815260200190815260200160002054613037612fc7610e1d565b60066000600460009054906101000a900473ffffffffffffffffffffffffffffffffffffffff1673ffffffffffffffffffffffffffffffffffffffff1673ffffffffffffffffffffffffffffffffffffffff1681526020019081526020016000205461473b90919063ffffffff16565b61473b90919063ffffffff16565b905090565b6000600460009054906101000a900473ffffffffffffffffffffffffffffffffffffffff1673ffffffffffffffffffffffffffffffffffffffff163373ffffffffffffffffffffffffffffffffffffffff1614806130f55750600560009054906101000a900473ffffffffffffffffffffffffffffffffffffffff1673ffffffffffffffffffffffffffffffffffffffff163373ffffffffffffffffffffffffffffffffffffffff16145b151561310057600080fd5b6000600560149054906101000a900460ff1660ff1611151561312157600080fd5b60016016600084815260200190815260200160002060003373ffffffffffffffffffffffffffffffffffffffff1673ffffffffffffffffffffffffffffffffffffffff16815260200190815260200160002060006101000a81548160ff0219169083151502179055506002601060006101000a81548160ff021916908360068111156131a957fe5b02179055506131b782614ee1565b50919050565b606060008054600181600116156101000203166002900480601f0160208091040260200160405190810160405280929190818152602001828054600181600116156101000203166002900480156132555780601f1061322a57610100808354040283529160200191613255565b820191906000526020600020905b81548152906001019060200180831161323857829003601f168201915b5050505050905090565b6000601354905090565b6000600354905090565b61327b61526d565b600084826000019073ffffffffffffffffffffffffffffffffffffffff16908173ffffffffffffffffffffffffffffffffffffffff16815250508382602001818152505082826040018190525060188360008151811015156132d957fe5b9060200101517f010000000000000000000000000000000000000000000000000000000000000090047f0100000000000000000000000000000000000000000000000000000000000000027f0100000000000000000000000000000000000000000000000000000000000000900463ffffffff169060020a02601084600181518110151561336357fe5b9060200101517f010000000000000000000000000000000000000000000000000000000000000090047f0100000000000000000000000000000000000000000000000000000000000000027f0100000000000000000000000000000000000000000000000000000000000000900463ffffffff169060020a0260088560028151811015156133ed57fe5b9060200101517f010000000000000000000000000000000000000000000000000000000000000090047f0100000000000000000000000000000000000000000000000000000000000000027f0100000000000000000000000000000000000000000000000000000000000000900463ffffffff169060020a0285600381518110151561347557fe5b9060200101517f010000000000000000000000000000000000000000000000000000000000000090047f0100000000000000000000000000000000000000000000000000000000000000027f010000000000000000000000000000000000000000000000000000000000000090040101019050807c01000000000000000000000000000000000000000000000000000000000282606001907bffffffffffffffffffffffffffffffffffffffffffffffffffffffff191690817bffffffffffffffffffffffffffffffffffffffffffffffffffffffff1916815250506135a384601460008873ffffffffffffffffffffffffffffffffffffffff1673ffffffffffffffffffffffffffffffffffffffff1681526020019081526020016000205461473b90919063ffffffff16565b601460008773ffffffffffffffffffffffffffffffffffffffff1673ffffffffffffffffffffffffffffffffffffffff168152602001908152602001600020819055506015829080600181540180825580915050906001820390600052602060002090600402016000909192909190915060008201518160000160006101000a81548173ffffffffffffffffffffffffffffffffffffffff021916908373ffffffffffffffffffffffffffffffffffffffff1602179055506020820151816001015560408201518160020190805190602001906136819291906152cb565b5060608201518160030160006101000a81548163ffffffff02191690837c0100000000000000000000000000000000000000000000000000000000900402179055505050506136ce612f55565b60146000600460009054906101000a900473ffffffffffffffffffffffffffffffffffffffff1673ffffffffffffffffffffffffffffffffffffffff1673ffffffffffffffffffffffffffffffffffffffff16815260200190815260200160002054101580156137a65750613741610c06565b60146000600560009054906101000a900473ffffffffffffffffffffffffffffffffffffffff1673ffffffffffffffffffffffffffffffffffffffff1673ffffffffffffffffffffffffffffffffffffffff1681526020019081526020016000205410155b156137d0576001601060006101000a81548160ff021916908360068111156137ca57fe5b02179055505b5050505050565b6000601160009054906101000a900473ffffffffffffffffffffffffffffffffffffffff1673ffffffffffffffffffffffffffffffffffffffff1663dd62ed3e600560009054906101000a900473ffffffffffffffffffffffffffffffffffffffff16306040518363ffffffff167c0100000000000000000000000000000000000000000000000000000000028152600401808373ffffffffffffffffffffffffffffffffffffffff1673ffffffffffffffffffffffffffffffffffffffff1681526020018273ffffffffffffffffffffffffffffffffffffffff1673ffffffffffffffffffffffffffffffffffffffff16815260200192505050602060405180830381600087803b1580156138ec57600080fd5b505af1158015613900573d6000803e3d6000fd5b505050506040513d602081101561391657600080fd5b8101908080519060200190929190505050905090565b6000600460009054906101000a900473ffffffffffffffffffffffffffffffffffffffff1673ffffffffffffffffffffffffffffffffffffffff163373ffffffffffffffffffffffffffffffffffffffff1614806139d75750600560009054906101000a900473ffffffffffffffffffffffffffffffffffffffff1673ffffffffffffffffffffffffffffffffffffffff163373ffffffffffffffffffffffffffffffffffffffff16145b15156139e257600080fd5b600460068111156139ef57fe5b601060009054906101000a900460ff166006811115613a0a57fe5b141515613a1657600080fd5b42600254101515613a2657600080fd5b81601760003373ffffffffffffffffffffffffffffffffffffffff1673ffffffffffffffffffffffffffffffffffffffff16815260200190815260200160002060006101000a81548160ff02191690831515021790555060176000600560009054906101000a900473ffffffffffffffffffffffffffffffffffffffff1673ffffffffffffffffffffffffffffffffffffffff1673ffffffffffffffffffffffffffffffffffffffff16815260200190815260200160002060009054906101000a900460ff16151560176000600460009054906101000a900473ffffffffffffffffffffffffffffffffffffffff1673ffffffffffffffffffffffffffffffffffffffff1673ffffffffffffffffffffffffffffffffffffffff16815260200190815260200160002060009054906101000a900460ff1615151415613b7757613b6d61508f565b5060019050613ba0565b6005601060006101000a81548160ff02191690836006811115613b9657fe5b0217905550600090505b919050565b6000600e60008473ffffffffffffffffffffffffffffffffffffffff1673ffffffffffffffffffffffffffffffffffffffff16815260200190815260200160002060008373ffffffffffffffffffffffffffffffffffffffff1673ffffffffffffffffffffffffffffffffffffffff16815260200190815260200160002054905092915050565b6000600854905090565b6000600560009054906101000a900473ffffffffffffffffffffffffffffffffffffffff16905090565b6000601060009054906101000a900460ff16905090565b600080600080600060036006811115613c8c57fe5b601060009054906101000a900460ff166006811115613ca757fe5b141515613cb357600080fd5b42600254111515613cc357600080fd5b6000151560176000600460009054906101000a900473ffffffffffffffffffffffffffffffffffffffff1673ffffffffffffffffffffffffffffffffffffffff1673ffffffffffffffffffffffffffffffffffffffff16815260200190815260200160002060009054906101000a900460ff161515141515613d4457600080fd5b6000151560176000600560009054906101000a900473ffffffffffffffffffffffffffffffffffffffff1673ffffffffffffffffffffffffffffffffffffffff1673ffffffffffffffffffffffffffffffffffffffff16815260200190815260200160002060009054906101000a900460ff161515141515613dc557600080fd5b600460009054906101000a900473ffffffffffffffffffffffffffffffffffffffff1673ffffffffffffffffffffffffffffffffffffffff16601260009054906101000a900473ffffffffffffffffffffffffffffffffffffffff1673ffffffffffffffffffffffffffffffffffffffff16141561401657613f12600d6000600560009054906101000a900473ffffffffffffffffffffffffffffffffffffffff1673ffffffffffffffffffffffffffffffffffffffff1673ffffffffffffffffffffffffffffffffffffffff1681526020019081526020016000205460066000600560009054906101000a900473ffffffffffffffffffffffffffffffffffffffff1673ffffffffffffffffffffffffffffffffffffffff1673ffffffffffffffffffffffffffffffffffffffff1681526020019081526020016000205461473b90919063ffffffff16565b9350613ffd600d6000600460009054906101000a900473ffffffffffffffffffffffffffffffffffffffff1673ffffffffffffffffffffffffffffffffffffffff1673ffffffffffffffffffffffffffffffffffffffff16815260200190815260200160002054613fef60066000600460009054906101000a900473ffffffffffffffffffffffffffffffffffffffff1673ffffffffffffffffffffffffffffffffffffffff1673ffffffffffffffffffffffffffffffffffffffff16815260200190815260200160002054600f5461473b90919063ffffffff16565b61473b90919063ffffffff16565b925061400c6013548486614786565b5060019450614734565b601160009054906101000a900473ffffffffffffffffffffffffffffffffffffffff1673ffffffffffffffffffffffffffffffffffffffff1663dd62ed3e600560009054906101000a900473ffffffffffffffffffffffffffffffffffffffff16306040518363ffffffff167c0100000000000000000000000000000000000000000000000000000000028152600401808373ffffffffffffffffffffffffffffffffffffffff1673ffffffffffffffffffffffffffffffffffffffff1681526020018273ffffffffffffffffffffffffffffffffffffffff1673ffffffffffffffffffffffffffffffffffffffff16815260200192505050602060405180830381600087803b15801561412957600080fd5b505af115801561413d573d6000803e3d6000fd5b505050506040513d602081101561415357600080fd5b8101908080519060200190929190505050915060066000600560009054906101000a900473ffffffffffffffffffffffffffffffffffffffff1673ffffffffffffffffffffffffffffffffffffffff1673ffffffffffffffffffffffffffffffffffffffff1681526020019081526020016000205460075411156145d25761424760066000600560009054906101000a900473ffffffffffffffffffffffffffffffffffffffff1673ffffffffffffffffffffffffffffffffffffffff1673ffffffffffffffffffffffffffffffffffffffff1681526020019081526020016000205460075461476d90919063ffffffff16565b90506142cc6013546142c560085460066000600560009054906101000a900473ffffffffffffffffffffffffffffffffffffffff1673ffffffffffffffffffffffffffffffffffffffff1673ffffffffffffffffffffffffffffffffffffffff1681526020019081526020016000205461473b90919063ffffffff16565b6000614786565b508181101561445357601160009054906101000a900473ffffffffffffffffffffffffffffffffffffffff1673ffffffffffffffffffffffffffffffffffffffff166323b872dd600560009054906101000a900473ffffffffffffffffffffffffffffffffffffffff16600460009054906101000a900473ffffffffffffffffffffffffffffffffffffffff16846040518463ffffffff167c0100000000000000000000000000000000000000000000000000000000028152600401808473ffffffffffffffffffffffffffffffffffffffff1673ffffffffffffffffffffffffffffffffffffffff1681526020018373ffffffffffffffffffffffffffffffffffffffff1673ffffffffffffffffffffffffffffffffffffffff1681526020018281526020019350505050602060405180830381600087803b15801561441257600080fd5b505af1158015614426573d6000803e3d6000fd5b505050506040513d602081101561443c57600080fd5b8101908080519060200190929190505050506145cd565b601160009054906101000a900473ffffffffffffffffffffffffffffffffffffffff1673ffffffffffffffffffffffffffffffffffffffff166323b872dd600560009054906101000a900473ffffffffffffffffffffffffffffffffffffffff16600460009054906101000a900473ffffffffffffffffffffffffffffffffffffffff16856040518463ffffffff167c0100000000000000000000000000000000000000000000000000000000028152600401808473ffffffffffffffffffffffffffffffffffffffff1673ffffffffffffffffffffffffffffffffffffffff1681526020018373ffffffffffffffffffffffffffffffffffffffff1673ffffffffffffffffffffffffffffffffffffffff1681526020018281526020019350505050602060405180830381600087803b15801561459057600080fd5b505af11580156145a4573d6000803e3d6000fd5b505050506040513d60208110156145ba57600080fd5b8101908080519060200190929190505050505b614733565b61464860075460066000600560009054906101000a900473ffffffffffffffffffffffffffffffffffffffff1673ffffffffffffffffffffffffffffffffffffffff1673ffffffffffffffffffffffffffffffffffffffff1681526020019081526020016000205461476d90919063ffffffff16565b60066000600560009054906101000a900473ffffffffffffffffffffffffffffffffffffffff1673ffffffffffffffffffffffffffffffffffffffff1673ffffffffffffffffffffffffffffffffffffffff168152602001908152602001600020819055506147316013546146ca60085460075461473b90919063ffffffff16565b60066000600560009054906101000a900473ffffffffffffffffffffffffffffffffffffffff1673ffffffffffffffffffffffffffffffffffffffff1673ffffffffffffffffffffffffffffffffffffffff16815260200190815260200160002054614786565b505b5b5050505090565b6000818301905082811015151561474e57fe5b80905092915050565b6000818381151561476457fe5b04905092915050565b600082821115151561477b57fe5b818303905092915050565b60006147b3600460009054906101000a900473ffffffffffffffffffffffffffffffffffffffff1661105a565b506147df600560009054906101000a900473ffffffffffffffffffffffffffffffffffffffff1661105a565b50601160009054906101000a900473ffffffffffffffffffffffffffffffffffffffff1673ffffffffffffffffffffffffffffffffffffffff1663095ea7b3601060019054906101000a900473ffffffffffffffffffffffffffffffffffffffff16866040518363ffffffff167c0100000000000000000000000000000000000000000000000000000000028152600401808373ffffffffffffffffffffffffffffffffffffffff1673ffffffffffffffffffffffffffffffffffffffff16815260200182815260200192505050602060405180830381600087803b1580156148c757600080fd5b505af11580156148db573d6000803e3d6000fd5b505050506040513d60208110156148f157600080fd5b810190808051906020019092919050505050601160009054906101000a900473ffffffffffffffffffffffffffffffffffffffff1673ffffffffffffffffffffffffffffffffffffffff1663a9059cbb601060019054906101000a900473ffffffffffffffffffffffffffffffffffffffff16866040518363ffffffff167c0100000000000000000000000000000000000000000000000000000000028152600401808373ffffffffffffffffffffffffffffffffffffffff1673ffffffffffffffffffffffffffffffffffffffff16815260200182815260200192505050602060405180830381600087803b1580156149ea57600080fd5b505af11580156149fe573d6000803e3d6000fd5b505050506040513d6020811015614a1457600080fd5b810190808051906020019092919050505050601160009054906101000a900473ffffffffffffffffffffffffffffffffffffffff1673ffffffffffffffffffffffffffffffffffffffff1663095ea7b3600560009054906101000a900473ffffffffffffffffffffffffffffffffffffffff16846040518363ffffffff167c0100000000000000000000000000000000000000000000000000000000028152600401808373ffffffffffffffffffffffffffffffffffffffff1673ffffffffffffffffffffffffffffffffffffffff16815260200182815260200192505050602060405180830381600087803b158015614b0d57600080fd5b505af1158015614b21573d6000803e3d6000fd5b505050506040513d6020811015614b3757600080fd5b810190808051906020019092919050505050601160009054906101000a900473ffffffffffffffffffffffffffffffffffffffff1673ffffffffffffffffffffffffffffffffffffffff1663a9059cbb600560009054906101000a900473ffffffffffffffffffffffffffffffffffffffff16846040518363ffffffff167c0100000000000000000000000000000000000000000000000000000000028152600401808373ffffffffffffffffffffffffffffffffffffffff1673ffffffffffffffffffffffffffffffffffffffff16815260200182815260200192505050602060405180830381600087803b158015614c3057600080fd5b505af1158015614c44573d6000803e3d6000fd5b505050506040513d6020811015614c5a57600080fd5b810190808051906020019092919050505050601160009054906101000a900473ffffffffffffffffffffffffffffffffffffffff1673ffffffffffffffffffffffffffffffffffffffff1663095ea7b3600460009054906101000a900473ffffffffffffffffffffffffffffffffffffffff16856040518363ffffffff167c0100000000000000000000000000000000000000000000000000000000028152600401808373ffffffffffffffffffffffffffffffffffffffff1673ffffffffffffffffffffffffffffffffffffffff16815260200182815260200192505050602060405180830381600087803b158015614d5357600080fd5b505af1158015614d67573d6000803e3d6000fd5b505050506040513d6020811015614d7d57600080fd5b810190808051906020019092919050505050601160009054906101000a900473ffffffffffffffffffffffffffffffffffffffff1673ffffffffffffffffffffffffffffffffffffffff1663a9059cbb600460009054906101000a900473ffffffffffffffffffffffffffffffffffffffff16856040518363ffffffff167c0100000000000000000000000000000000000000000000000000000000028152600401808373ffffffffffffffffffffffffffffffffffffffff1673ffffffffffffffffffffffffffffffffffffffff16815260200182815260200192505050602060405180830381600087803b158015614e7657600080fd5b505af1158015614e8a573d6000803e3d6000fd5b505050506040513d6020811015614ea057600080fd5b8101908080519060200190929190505050506006601060006101000a81548160ff02191690836006811115614ed157fe5b0217905550600190509392505050565b600060011515601660008481526020019081526020016000206000600460009054906101000a900473ffffffffffffffffffffffffffffffffffffffff1673ffffffffffffffffffffffffffffffffffffffff1673ffffffffffffffffffffffffffffffffffffffff16815260200190815260200160002060009054906101000a900460ff161515141515614f7557600080fd5b60011515601660008481526020019081526020016000206000600560009054906101000a900473ffffffffffffffffffffffffffffffffffffffff1673ffffffffffffffffffffffffffffffffffffffff1673ffffffffffffffffffffffffffffffffffffffff16815260200190815260200160002060009054906101000a900460ff16151514151561500757600080fd5b816002819055506005601481819054906101000a900460ff16809291906001900391906101000a81548160ff021916908360ff160217905550506000600560149054906101000a900460ff1660ff1611151561506257600080fd5b6001601060006101000a81548160ff0219169083600681111561508157fe5b021790555060019050919050565b600080600061517d600d6000600560009054906101000a900473ffffffffffffffffffffffffffffffffffffffff1673ffffffffffffffffffffffffffffffffffffffff1673ffffffffffffffffffffffffffffffffffffffff1681526020019081526020016000205461516f60066000600560009054906101000a900473ffffffffffffffffffffffffffffffffffffffff1673ffffffffffffffffffffffffffffffffffffffff1673ffffffffffffffffffffffffffffffffffffffff16815260200190815260200160002054600f5461473b90919063ffffffff16565b61473b90919063ffffffff16565b9150615254600d6000600460009054906101000a900473ffffffffffffffffffffffffffffffffffffffff1673ffffffffffffffffffffffffffffffffffffffff1673ffffffffffffffffffffffffffffffffffffffff1681526020019081526020016000205460066000600460009054906101000a900473ffffffffffffffffffffffffffffffffffffffff1673ffffffffffffffffffffffffffffffffffffffff1673ffffffffffffffffffffffffffffffffffffffff1681526020019081526020016000205461473b90919063ffffffff16565b90506152636013548284614786565b5060019250505090565b608060405190810160405280600073ffffffffffffffffffffffffffffffffffffffff168152602001600081526020016060815260200160007bffffffffffffffffffffffffffffffffffffffffffffffffffffffff191681525090565b828054600181600116156101000203166002900490600052602060002090601f016020900481019282601f1061530c57805160ff191683800117855561533a565b8280016001018555821561533a579182015b8281111561533957825182559160200191906001019061531e565b5b509050615347919061534b565b5090565b61536d91905b80821115615369576000816000905550600101615351565b5090565b90565b60008083141561538357600090506153a2565b818302905081838281151561539457fe5b0414151561539e57fe5b8090505b929150505600a165627a7a72305820a8ac4dbd7a4505ea454086a07b70ca268be328d813b7db2ccac795760a6278bd0029",
  "source": "pragma solidity ^0.4.24;\n\nimport \"./EventToken.sol\";\n\ncontract EventContract{\n  using SafeMath for uint;\n  enum EVENTSTATE {NOTACTIVE, ACTIVE, POSTPONEMENT, CANCELLATION, REPORTING, DISPUTED, SETTLED}\n  string private _eventName;\n  string private _eventLocation;\n  uint private _eventDate;\n  uint private _eventCreationDate;\n  address private _buyer;\n  address private _seller;\n  uint8 private _noOfAllowedPostponements;\n  mapping(address => uint256) private _escrows;\n  uint256 private _sellerAdvanceFee;\n  uint256 private _buyerCancellationFee;\n  address[] private _arbiterAddressesBuyer;\n  address[] private _arbiterAddressesSeller;\n  address[] private _contributerAddressesBuyer;\n  address[] private _contributerAddressesSeller;\n  mapping(address => uint256) private _contributionPoolAmounts;\n  mapping(address => mapping(address => uint256)) private _contributersAcknowledgement;\n  uint private _eventPaymentAmount;\n  EVENTSTATE private _eventState;\n  address private _eventProtocolAddress;\n  EventToken private _ETContract;\n  address private _cancellingParty;\n  uint256 private _eventProtocolCharges;\n\n\n  struct TKN {\n   address sender;\n   uint256 value;\n   bytes data;\n   bytes4 sig;\n  }\n\n  mapping(address => uint256) internal _transferredAmounts;\n  TKN[] _transactionData;\n\n  mapping(uint => mapping(address => bool)) private _postPoneRequest;\n  mapping(address => bool) private _resolveEvent;\n\n  constructor (string eventName,\n    string eventLocation,\n    uint eventDate,\n    address buyer,\n    uint8 allowedPostponements,\n    uint buyerEscrow,\n    uint sellerEscrow,\n    uint sellerAdvanceFee,\n    uint buyerCancellationFee,\n    uint buyerContributionPoolAmount,\n    uint sellerContributionPoolAmount,\n    uint eventPaymentAmount,\n    address eventProtocolAddress,\n    address eventTokenAddress) public{\n\n      require(eventDate > now);\n      require(allowedPostponements < 3);\n      require(buyer != address(0));\n      require(buyerEscrow > 0);\n      require(sellerEscrow > 0);\n      require(sellerAdvanceFee > 0);\n      require(buyerCancellationFee > 0);\n      require(buyerContributionPoolAmount > 0);\n      require(sellerContributionPoolAmount > 0);\n      require(eventPaymentAmount > 0);\n      _eventName = eventName;\n      _eventLocation = eventLocation;\n      _eventDate = eventDate;\n      _eventCreationDate = now;\n      _buyer = buyer;\n      _seller = msg.sender;\n      _noOfAllowedPostponements = allowedPostponements;\n      _escrows[_buyer] = buyerEscrow;\n      _escrows[_seller] = sellerEscrow;\n      _sellerAdvanceFee = sellerAdvanceFee;\n      _buyerCancellationFee = buyerCancellationFee;\n      _contributionPoolAmounts[_buyer] = buyerContributionPoolAmount;\n      _contributionPoolAmounts[_seller] = sellerContributionPoolAmount;\n      _eventProtocolAddress = eventProtocolAddress;\n      _ETContract = EventToken(eventTokenAddress);\n      _eventState = EVENTSTATE.NOTACTIVE;\n      _eventProtocolCharges = SafeMath.div(SafeMath.mul(eventPaymentAmount, 5), 100);\n      _eventPaymentAmount = eventPaymentAmount.sub(_eventProtocolCharges);\n  }\n\n  modifier onlyBuyer{\n      require(msg.sender == _buyer);\n      _;\n  }\n\n  modifier onlySeller{\n      require(msg.sender == _seller);\n      _;\n  }\n\n  modifier onlyBuyerAndSeller{\n      require(msg.sender == _buyer || msg.sender == _seller);\n      _;\n  }\n\n  function tokenFallback(address _from, uint256 _value, bytes _data) public{\n      TKN memory tkn;\n      tkn.sender = _from;\n      tkn.value = _value;\n      tkn.data = _data;\n      uint32 u = uint32(_data[3]) + (uint32(_data[2]) << 8) + (uint32(_data[1]) << 16) + (uint32(_data[0]) << 24);\n      tkn.sig = bytes4(u);\n      _transferredAmounts[_from] = _transferredAmounts[_from].add(_value);\n      _transactionData.push(tkn);\n\n      if(_transferredAmounts[_buyer] >= getBuyerActivationAmount() && _transferredAmounts[_seller] >= getSellerActivationAmount()){\n        _eventState = EVENTSTATE.ACTIVE;\n      }\n  }\n\n  function getBuyerActivationAmount() public view returns (uint){\n      return _escrows[_buyer].add(getEventPaymentCharges()).add(_contributionPoolAmounts[_buyer]);\n  }\n\n  function getSellerActivationAmount() public view returns (uint){\n      return _escrows[_seller].add(_contributionPoolAmounts[_seller]).add(_buyerCancellationFee);\n  }\n\n  function submitPostponeRequest(uint newEventDate) public onlyBuyerAndSeller returns (bool){\n      require(_noOfAllowedPostponements >0);\n      _postPoneRequest[newEventDate][msg.sender] = true;\n      _eventState = EVENTSTATE.POSTPONEMENT;\n      postPoneEvent(newEventDate);\n  }\n\n  function postPoneEvent(uint newEventDate) internal returns (bool){\n      require(_postPoneRequest[newEventDate][_buyer] == true);\n      require(_postPoneRequest[newEventDate][_seller] == true);\n      _eventDate = newEventDate;\n      _noOfAllowedPostponements--;\n      require(_noOfAllowedPostponements >0);\n      _eventState = EVENTSTATE.ACTIVE;\n      return true;\n  }\n\n  function submitResolveRequest(bool _bool) public onlyBuyerAndSeller returns (bool){\n      require(_eventState == EVENTSTATE.ACTIVE);\n      if (_bool == false){\n        if (_eventDate > now){\n          _cancellingParty = msg.sender;\n          _eventState = EVENTSTATE.CANCELLATION;\n        }\n        else{\n          require(_eventDate < now);\n          _eventState = EVENTSTATE.REPORTING;\n        }\n      }\n      else{\n        require(_eventDate < now);\n        _eventState = EVENTSTATE.REPORTING;\n\n      }\n      _resolveEvent[msg.sender] = _bool;\n      return true;\n\n  }\n\n  function acknowledgeCancelRequest() public onlyBuyerAndSeller returns (bool){\n      require(_eventState == EVENTSTATE.CANCELLATION);\n      require(_eventDate > now);\n      _resolveEvent[msg.sender] = false;\n      cancelEvent();\n  }\n\n  function cancelEvent() internal returns (bool){\n      require(_eventState == EVENTSTATE.CANCELLATION);\n      require(_eventDate > now);\n      require(_resolveEvent[_buyer] == false);\n      require(_resolveEvent[_seller] == false);\n\n      // If buyer cancels the event, the advance payment will be vested with the seller\n      if (_cancellingParty == _buyer){\n        uint _sellerCharges = _escrows[_seller].add(_contributionPoolAmounts[_seller]);\n        uint _buyerCharges = _eventPaymentAmount.add(_escrows[_buyer]).add(_contributionPoolAmounts[_buyer]);\n        payout(_eventProtocolCharges, _buyerCharges, _sellerCharges);\n        return true;\n      }\n\n      // If seller cancels the event, the cancellation fees willbe\n      uint _securityDepositSeller = _ETContract.allowance(_seller, address(this));\n      if (_sellerAdvanceFee > _escrows[_seller]){\n        uint _delta = _sellerAdvanceFee.sub(_escrows[_seller]);\n        payout(_eventProtocolCharges, _escrows[_seller].add(_buyerCancellationFee), 0);\n\n        if (_delta < _securityDepositSeller){\n          _ETContract.transferFrom(_seller, _buyer, _delta);\n        }\n        else{\n          _ETContract.transferFrom(_seller, _buyer, _securityDepositSeller);\n        }\n      }\n      else{\n        _escrows[_seller] = _escrows[_seller].sub(_sellerAdvanceFee);\n        payout(_eventProtocolCharges, _sellerAdvanceFee.add(_buyerCancellationFee), _escrows[_seller]);\n      }\n  }\n\n  function completeResolve(bool _bool) public onlyBuyerAndSeller returns (bool){\n      require(_eventState == EVENTSTATE.REPORTING);\n      require(_eventDate < now);\n      _resolveEvent[msg.sender] = _bool;\n\n      //Check if DISPUTED\n      if (_resolveEvent[_buyer] == _resolveEvent[_seller]){\n        resolveContract();\n        return true;\n      }\n      _eventState = EVENTSTATE.DISPUTED;\n      return false;\n\n  }\n\n\n  function addContributers(address contributor) public onlyBuyerAndSeller returns (bool){\n      require(_eventState == EVENTSTATE.ACTIVE);\n      if (msg.sender == _buyer){\n        _contributerAddressesBuyer.push(contributor);\n        return true;\n      }\n      _contributerAddressesSeller.push(contributor);\n      return true;\n  }\n\n  function acknowledgeContributors(address contributor, uint256 _tokens) public onlyBuyerAndSeller returns (bool){\n      require(_contributionPoolAmounts[msg.sender] >= _tokens);\n      _contributersAcknowledgement[msg.sender][contributor] = _tokens;\n      _contributionPoolAmounts[msg.sender].sub(_tokens);\n      return true;\n  }\n\n  function payOutContributors(address _target) public onlyBuyerAndSeller returns (bool){\n      address _beneficier;\n      if (_target == _buyer){\n        for (uint i = 0; i< _contributerAddressesBuyer.length; i++){\n           _beneficier = _contributerAddressesBuyer[i];\n          _ETContract.approve(_beneficier, _contributersAcknowledgement[msg.sender][_beneficier]);\n          _ETContract.transfer(_beneficier, _contributersAcknowledgement[msg.sender][_beneficier]);\n        }\n      }\n\n      else{\n        for (i = 0; i< _contributerAddressesBuyer.length; i++){\n          _beneficier = _contributerAddressesSeller[i];\n          _ETContract.approve(_beneficier, _contributersAcknowledgement[msg.sender][_beneficier]);\n          _ETContract.transfer(_beneficier, _contributersAcknowledgement[msg.sender][_beneficier]);\n        }\n      }\n      return true;\n  }\n\n  function resolveContract() internal returns (bool){\n      //Pay balance to buyer (and the escrow amount if any)\n      uint _sellerCharges = _eventPaymentAmount.add(_escrows[_seller]).add(_contributionPoolAmounts[_seller]);\n      uint _buyerCharges = _escrows[_buyer].add(_contributionPoolAmounts[_buyer]);\n      payout(_eventProtocolCharges, _buyerCharges, _sellerCharges);\n      return true;\n  }\n\n  function payout(uint256 eventProtocolCharges, uint256 buyerAmount, uint256 sellerAmount) internal returns (bool){\n      payOutContributors(_buyer);\n      payOutContributors(_seller);\n      _ETContract.approve(_eventProtocolAddress, eventProtocolCharges);\n      _ETContract.transfer(_eventProtocolAddress, eventProtocolCharges);\n      _ETContract.approve(_seller, sellerAmount);\n      _ETContract.transfer(_seller, sellerAmount);\n      _ETContract.approve(_buyer, buyerAmount);\n      _ETContract.transfer(_buyer, buyerAmount);\n      _eventState = EVENTSTATE.SETTLED;\n      return true;\n  }\n\n\n  function addArbiters(address arbiter, bool _bool) public returns (bool){\n      if (_bool == _resolveEvent[_buyer]){\n        _arbiterAddressesBuyer.push(arbiter);\n      }\n      else{\n        _arbiterAddressesSeller.push(arbiter);\n      }\n      if (_arbiterAddressesSeller.length.add(_arbiterAddressesSeller.length) == 5){\n        if (_arbiterAddressesBuyer.length > _arbiterAddressesSeller.length){\n            // Buyer wins here (So advance, 50% of escrow of seller and cancellation fees for buyer rewarded)\n            uint _securityDepositSeller = getSellerSecurityDeposit();\n            uint arbiterCharges = SafeMath.div(_escrows[_seller], _arbiterAddressesBuyer.length);\n            uint _sellerEscrowHalf = SafeMath.div(_escrows[_seller], 2);\n\n            if (_sellerAdvanceFee > _sellerEscrowHalf){\n              uint _delta = _sellerAdvanceFee.sub(_sellerEscrowHalf);\n              payout(_eventProtocolCharges, _sellerEscrowHalf.add(_buyerCancellationFee).add(_contributionPoolAmounts[_buyer]), _contributionPoolAmounts[_seller]);\n\n              if (_delta < _securityDepositSeller){\n                _ETContract.transferFrom(_seller, _buyer, _delta);\n              }\n              else{\n                _ETContract.transferFrom(_seller, _buyer, _securityDepositSeller);\n              }\n            }\n            else{\n              _escrows[_seller] = _escrows[_seller].sub(_sellerAdvanceFee).sub(_sellerEscrowHalf);\n              payout(_eventProtocolCharges, _sellerAdvanceFee.add(_buyerCancellationFee).add(_sellerEscrowHalf).add(_contributionPoolAmounts[_buyer]), _escrows[_seller].add(_contributionPoolAmounts[_seller]));\n            }\n\n            for (uint i = 0; i< _arbiterAddressesSeller.length; i++){\n              _ETContract.approve(_arbiterAddressesSeller[i], arbiterCharges);\n              _ETContract.transfer(_arbiterAddressesSeller[i], arbiterCharges);\n            }\n\n        }\n        else{\n          // Seller wins (So 50% of escrow and advance is kept by the seller)\n          uint sellerCharges = SafeMath.div(_escrows[_buyer], 2).add(_contributionPoolAmounts[_seller].add(_escrows[_seller]));\n          uint buyerCharges = _eventPaymentAmount.add(_contributionPoolAmounts[_buyer]);\n          arbiterCharges = SafeMath.div(_escrows[_buyer], _arbiterAddressesSeller.length);\n          for ( i = 0; i< _arbiterAddressesSeller.length; i++){\n            _ETContract.approve(_arbiterAddressesSeller[i], arbiterCharges);\n            _ETContract.transfer(_arbiterAddressesSeller[i], arbiterCharges);\n          }\n          payout(_eventProtocolCharges, buyerCharges, sellerCharges);\n          return true;\n        }\n      }\n  }\n\n  function getEventState() public view returns (EVENTSTATE){\n      return _eventState;\n  }\n\n  function getBuyer() public view returns (address){\n      return _buyer;\n  }\n\n  function getSeller() public view returns (address){\n      return _seller;\n  }\n\n  function getEventDate() public view returns (uint){\n      return _eventDate;\n  }\n\n  function getEventName() public view returns (string){\n      return _eventName;\n  }\n\n  function getEventLocation() public view returns (string){\n      return _eventLocation;\n  }\n\n  function getSellerAdvanceFee() public view returns (uint){\n      return _sellerAdvanceFee;\n  }\n\n  function getBuyerCancellationFee() public view returns (uint){\n      return _buyerCancellationFee;\n  }\n\n  function getEventCreationDate() public view returns (uint){\n      return _eventCreationDate;\n  }\n\n  function getEventProtocolAddress() public view returns (address){\n      return _eventProtocolAddress;\n  }\n\n  function getEventProtocolCharges() public view returns (uint){\n      return _eventProtocolCharges;\n  }\n\n  function getEventPaymentCharges() public view returns (uint){\n      return _eventProtocolCharges.add(_eventPaymentAmount);\n  }\n\n  function getContributionPoolAmounts(address addr) public view returns (uint){\n      require(addr == _buyer || addr == _seller);\n      return _contributionPoolAmounts[addr];\n  }\n\n  function getContributionAmounts(address target, address contributor) public view returns (uint){\n      return _contributersAcknowledgement[target][contributor];\n  }\n\n  function getEscrowAmounts(address addr) public view returns (uint){\n      require(addr == _buyer || addr == _seller);\n      return _escrows[addr];\n  }\n\n  function getTokenAddress() public view returns (address){\n      return address(_ETContract);\n  }\n\n  function getSellerSecurityDeposit() public view returns (uint){\n      return _ETContract.allowance(_seller, address(this));\n  }\n\n  function testThis() public view returns (string){\n      if (_eventState == EVENTSTATE.ACTIVE){\n        return \"YEAH\";\n      }\n      return \"FUCK\";\n  }\n}\n",
  "sourcePath": "/home/keshik/Documents/GitHub/event-protocol-contracts/contracts/EventContract.sol",
  "compiler": {
    "name": "solc",
    "version": "0.4.24+commit.e67f0147.Emscripten.clang"
  },
  "schemaVersion": "2.0.1",
  "updatedAt": "2018-07-15T07:45:12.200Z"
}