{
  "contractName": "EventContract",
  "abi": [
    {
      "inputs": [
        {
          "name": "eventName",
          "type": "string"
        },
        {
          "name": "eventLocation",
          "type": "string"
        },
        {
          "name": "eventDate",
          "type": "uint256"
        },
        {
          "name": "buyer",
          "type": "address"
        },
        {
          "name": "allowedPostponements",
          "type": "uint8"
        },
        {
          "name": "buyerEscrow",
          "type": "uint256"
        },
        {
          "name": "sellerEscrow",
          "type": "uint256"
        },
        {
          "name": "sellerAdvanceFee",
          "type": "uint256"
        },
        {
          "name": "sellerCancellationPenalty",
          "type": "uint256"
        },
        {
          "name": "buyerContributionPoolAmount",
          "type": "uint256"
        },
        {
          "name": "sellerContributionPoolAmount",
          "type": "uint256"
        },
        {
          "name": "eventPaymentAmount",
          "type": "uint256"
        },
        {
          "name": "eventProtocolAddress",
          "type": "address"
        },
        {
          "name": "eventTokenAddress",
          "type": "address"
        }
      ],
      "payable": false,
      "stateMutability": "nonpayable",
      "type": "constructor"
    },
    {
      "constant": false,
      "inputs": [
        {
          "name": "_from",
          "type": "address"
        },
        {
          "name": "_value",
          "type": "uint256"
        },
        {
          "name": "_data",
          "type": "bytes"
        }
      ],
      "name": "tokenFallback",
      "outputs": [],
      "payable": false,
      "stateMutability": "nonpayable",
      "type": "function"
    },
    {
      "constant": true,
      "inputs": [],
      "name": "getBuyerActivationAmount",
      "outputs": [
        {
          "name": "",
          "type": "uint256"
        }
      ],
      "payable": false,
      "stateMutability": "view",
      "type": "function"
    },
    {
      "constant": true,
      "inputs": [],
      "name": "getSellerActivationAmount",
      "outputs": [
        {
          "name": "",
          "type": "uint256"
        }
      ],
      "payable": false,
      "stateMutability": "view",
      "type": "function"
    },
    {
      "constant": false,
      "inputs": [
        {
          "name": "newEventDate",
          "type": "uint256"
        }
      ],
      "name": "submitPostponeRequest",
      "outputs": [
        {
          "name": "",
          "type": "bool"
        }
      ],
      "payable": false,
      "stateMutability": "nonpayable",
      "type": "function"
    },
    {
      "constant": false,
      "inputs": [
        {
          "name": "val",
          "type": "uint8"
        }
      ],
      "name": "submitResolveRequest",
      "outputs": [
        {
          "name": "",
          "type": "bool"
        }
      ],
      "payable": false,
      "stateMutability": "nonpayable",
      "type": "function"
    },
    {
      "constant": false,
      "inputs": [],
      "name": "acknowledgeCancelRequest",
      "outputs": [
        {
          "name": "",
          "type": "bool"
        }
      ],
      "payable": false,
      "stateMutability": "nonpayable",
      "type": "function"
    },
    {
      "constant": false,
      "inputs": [
        {
          "name": "val",
          "type": "uint8"
        }
      ],
      "name": "completeResolve",
      "outputs": [
        {
          "name": "",
          "type": "bool"
        }
      ],
      "payable": false,
      "stateMutability": "nonpayable",
      "type": "function"
    },
    {
      "constant": false,
      "inputs": [
        {
          "name": "contributor",
          "type": "address"
        }
      ],
      "name": "addContributers",
      "outputs": [
        {
          "name": "",
          "type": "bool"
        }
      ],
      "payable": false,
      "stateMutability": "nonpayable",
      "type": "function"
    },
    {
      "constant": false,
      "inputs": [
        {
          "name": "contributor",
          "type": "address"
        },
        {
          "name": "_tokens",
          "type": "uint256"
        }
      ],
      "name": "acknowledgeContributors",
      "outputs": [
        {
          "name": "",
          "type": "bool"
        }
      ],
      "payable": false,
      "stateMutability": "nonpayable",
      "type": "function"
    },
    {
      "constant": false,
      "inputs": [
        {
          "name": "val",
          "type": "uint256"
        }
      ],
      "name": "addArbiters",
      "outputs": [
        {
          "name": "",
          "type": "bool"
        }
      ],
      "payable": false,
      "stateMutability": "nonpayable",
      "type": "function"
    },
    {
      "constant": true,
      "inputs": [],
      "name": "getEventState",
      "outputs": [
        {
          "name": "",
          "type": "uint8"
        }
      ],
      "payable": false,
      "stateMutability": "view",
      "type": "function"
    },
    {
      "constant": true,
      "inputs": [],
      "name": "getBuyer",
      "outputs": [
        {
          "name": "",
          "type": "address"
        }
      ],
      "payable": false,
      "stateMutability": "view",
      "type": "function"
    },
    {
      "constant": true,
      "inputs": [],
      "name": "getSeller",
      "outputs": [
        {
          "name": "",
          "type": "address"
        }
      ],
      "payable": false,
      "stateMutability": "view",
      "type": "function"
    },
    {
      "constant": true,
      "inputs": [],
      "name": "getEventDate",
      "outputs": [
        {
          "name": "",
          "type": "uint256"
        }
      ],
      "payable": false,
      "stateMutability": "view",
      "type": "function"
    },
    {
      "constant": true,
      "inputs": [],
      "name": "getEventName",
      "outputs": [
        {
          "name": "",
          "type": "string"
        }
      ],
      "payable": false,
      "stateMutability": "view",
      "type": "function"
    },
    {
      "constant": true,
      "inputs": [],
      "name": "getEventLocation",
      "outputs": [
        {
          "name": "",
          "type": "string"
        }
      ],
      "payable": false,
      "stateMutability": "view",
      "type": "function"
    },
    {
      "constant": true,
      "inputs": [],
      "name": "getSellerAdvanceFee",
      "outputs": [
        {
          "name": "",
          "type": "uint256"
        }
      ],
      "payable": false,
      "stateMutability": "view",
      "type": "function"
    },
    {
      "constant": true,
      "inputs": [],
      "name": "getsellerCancellationPenalty",
      "outputs": [
        {
          "name": "",
          "type": "uint256"
        }
      ],
      "payable": false,
      "stateMutability": "view",
      "type": "function"
    },
    {
      "constant": true,
      "inputs": [],
      "name": "getEventCreationDate",
      "outputs": [
        {
          "name": "",
          "type": "uint256"
        }
      ],
      "payable": false,
      "stateMutability": "view",
      "type": "function"
    },
    {
      "constant": true,
      "inputs": [],
      "name": "getEventProtocolAddress",
      "outputs": [
        {
          "name": "",
          "type": "address"
        }
      ],
      "payable": false,
      "stateMutability": "view",
      "type": "function"
    },
    {
      "constant": true,
      "inputs": [],
      "name": "getEventProtocolCharges",
      "outputs": [
        {
          "name": "",
          "type": "uint256"
        }
      ],
      "payable": false,
      "stateMutability": "view",
      "type": "function"
    },
    {
      "constant": true,
      "inputs": [],
      "name": "getEventPaymentCharges",
      "outputs": [
        {
          "name": "",
          "type": "uint256"
        }
      ],
      "payable": false,
      "stateMutability": "view",
      "type": "function"
    },
    {
      "constant": true,
      "inputs": [
        {
          "name": "addr",
          "type": "address"
        }
      ],
      "name": "getContributionPoolAmounts",
      "outputs": [
        {
          "name": "",
          "type": "uint256"
        }
      ],
      "payable": false,
      "stateMutability": "view",
      "type": "function"
    },
    {
      "constant": true,
      "inputs": [
        {
          "name": "target",
          "type": "address"
        },
        {
          "name": "contributor",
          "type": "address"
        }
      ],
      "name": "getContributionAmounts",
      "outputs": [
        {
          "name": "",
          "type": "uint256"
        }
      ],
      "payable": false,
      "stateMutability": "view",
      "type": "function"
    },
    {
      "constant": true,
      "inputs": [
        {
          "name": "target",
          "type": "address"
        }
      ],
      "name": "getContributorPoolSize",
      "outputs": [
        {
          "name": "",
          "type": "uint256"
        }
      ],
      "payable": false,
      "stateMutability": "view",
      "type": "function"
    },
    {
      "constant": true,
      "inputs": [
        {
          "name": "addr",
          "type": "address"
        }
      ],
      "name": "getEscrowAmounts",
      "outputs": [
        {
          "name": "",
          "type": "uint256"
        }
      ],
      "payable": false,
      "stateMutability": "view",
      "type": "function"
    },
    {
      "constant": true,
      "inputs": [],
      "name": "getTokenAddress",
      "outputs": [
        {
          "name": "",
          "type": "address"
        }
      ],
      "payable": false,
      "stateMutability": "view",
      "type": "function"
    },
    {
      "constant": true,
      "inputs": [],
      "name": "getSellerSecurityDeposit",
      "outputs": [
        {
          "name": "",
          "type": "uint256"
        }
      ],
      "payable": false,
      "stateMutability": "view",
      "type": "function"
    },
    {
      "constant": true,
      "inputs": [
        {
          "name": "target",
          "type": "address"
        },
        {
          "name": "contributor",
          "type": "address"
        }
      ],
      "name": "isContributor",
      "outputs": [
        {
          "name": "",
          "type": "bool"
        }
      ],
      "payable": false,
      "stateMutability": "view",
      "type": "function"
    },
    {
      "constant": false,
      "inputs": [],
      "name": "checkEventCompletion",
      "outputs": [
        {
          "name": "",
          "type": "bool"
        }
      ],
      "payable": false,
      "stateMutability": "nonpayable",
      "type": "function"
    }
  ],
  "bytecode": "0x60806040523480156200001157600080fd5b50604051620060cc380380620060cc8339810180604052810190808051820192919060200180518201929190602001805190602001909291908051906020019092919080519060200190929190805190602001909291908051906020019092919080519060200190929190805190602001909291908051906020019092919080519060200190929190805190602001909291908051906020019092919080519060200190929190505050428c111515620000ca57600080fd5b60038a60ff16101515620000dd57600080fd5b600073ffffffffffffffffffffffffffffffffffffffff168b73ffffffffffffffffffffffffffffffffffffffff16141515156200011a57600080fd5b6000891115156200012a57600080fd5b6000881115156200013a57600080fd5b6000871115156200014a57600080fd5b6000861115156200015a57600080fd5b6000851115156200016a57600080fd5b6000841115156200017a57600080fd5b6000831115156200018a57600080fd5b8d60009080519060200190620001a2929190620005a7565b508c60019080519060200190620001bb929190620005a7565b508b600281905550426003819055508a600460006101000a81548173ffffffffffffffffffffffffffffffffffffffff021916908373ffffffffffffffffffffffffffffffffffffffff16021790555033600560006101000a81548173ffffffffffffffffffffffffffffffffffffffff021916908373ffffffffffffffffffffffffffffffffffffffff16021790555089600560146101000a81548160ff021916908360ff1602179055508860066000600460009054906101000a900473ffffffffffffffffffffffffffffffffffffffff1673ffffffffffffffffffffffffffffffffffffffff1673ffffffffffffffffffffffffffffffffffffffff168152602001908152602001600020819055508760066000600560009054906101000a900473ffffffffffffffffffffffffffffffffffffffff1673ffffffffffffffffffffffffffffffffffffffff1673ffffffffffffffffffffffffffffffffffffffff16815260200190815260200160002081905550866007819055508560088190555084600d6000600460009054906101000a900473ffffffffffffffffffffffffffffffffffffffff1673ffffffffffffffffffffffffffffffffffffffff1673ffffffffffffffffffffffffffffffffffffffff1681526020019081526020016000208190555083600d6000600560009054906101000a900473ffffffffffffffffffffffffffffffffffffffff1673ffffffffffffffffffffffffffffffffffffffff1673ffffffffffffffffffffffffffffffffffffffff1681526020019081526020016000208190555081601060016101000a81548173ffffffffffffffffffffffffffffffffffffffff021916908373ffffffffffffffffffffffffffffffffffffffff16021790555080601160006101000a81548173ffffffffffffffffffffffffffffffffffffffff021916908373ffffffffffffffffffffffffffffffffffffffff1602179055506000601060006101000a81548160ff02191690836006811115620004af57fe5b0217905550620004f5620004d98460056200053a6401000000000262005a02176401000000009004565b60646200057664010000000002620052af176401000000009004565b60138190555062000520601354846200058d6401000000000262003d1f179091906401000000009004565b600f81905550505050505050505050505050505062000656565b6000808314156200054f576000905062000570565b81830290508183828115156200056157fe5b041415156200056c57fe5b8090505b92915050565b600081838115156200058457fe5b04905092915050565b60008282111515156200059c57fe5b818303905092915050565b828054600181600116156101000203166002900490600052602060002090601f016020900481019282601f10620005ea57805160ff19168380011785556200061b565b828001600101855582156200061b579182015b828111156200061a578251825591602001919060010190620005fd565b5b5090506200062a91906200062e565b5090565b6200065391905b808211156200064f57600081600090555060010162000635565b5090565b90565b615a6680620006666000396000f300608060405260043610610180576000357c0100000000000000000000000000000000000000000000000000000000900463ffffffff16806310fe9ae8146101855780631375e2e8146101dc5780632076e2621461020b57806320d482c8146102365780632bf0eae61461027e5780632c292aea146102d557806334cc08721461032c57806335b58caf14610357578063505eb9a6146103b257806350ce9a8114610417578063575836a31461046e57806360388de414610499578063603daf9a146104f05780637987c3fc146105475780637d9cf28314610576578063886555fc1461060657806398aadadf146106315780639b3481e914610679578063a313d6d7146106a4578063accaf779146106cf578063b81e43fc14610714578063bb230a32146107a4578063bec76825146107cf578063c0ee0b8a146107fa578063c2902c031461088d578063cdb7b87a146108b8578063cea7d8f3146108fd578063dbd0e1b614610974578063ea936362146109cb578063f750790114610a46575b600080fd5b34801561019157600080fd5b5061019a610a7f565b604051808273ffffffffffffffffffffffffffffffffffffffff1673ffffffffffffffffffffffffffffffffffffffff16815260200191505060405180910390f35b3480156101e857600080fd5b506101f1610aa9565b604051808215151515815260200191505060405180910390f35b34801561021757600080fd5b50610220610c08565b6040518082815260200191505060405180910390f35b34801561024257600080fd5b50610264600480360381019080803560ff169060200190929190505050610cf8565b604051808215151515815260200191505060405180910390f35b34801561028a57600080fd5b50610293610ffd565b604051808273ffffffffffffffffffffffffffffffffffffffff1673ffffffffffffffffffffffffffffffffffffffff16815260200191505060405180910390f35b3480156102e157600080fd5b50610316600480360381019080803573ffffffffffffffffffffffffffffffffffffffff169060200190929190505050611027565b6040518082815260200191505060405180910390f35b34801561033857600080fd5b50610341611124565b6040518082815260200191505060405180910390f35b34801561036357600080fd5b50610398600480360381019080803573ffffffffffffffffffffffffffffffffffffffff169060200190929190505050611142565b604051808215151515815260200191505060405180910390f35b3480156103be57600080fd5b506103fd600480360381019080803573ffffffffffffffffffffffffffffffffffffffff16906020019092919080359060200190929190505050611444565b604051808215151515815260200191505060405180910390f35b34801561042357600080fd5b50610458600480360381019080803573ffffffffffffffffffffffffffffffffffffffff169060200190929190505050611828565b6040518082815260200191505060405180910390f35b34801561047a57600080fd5b5061048361194f565b6040518082815260200191505060405180910390f35b3480156104a557600080fd5b506104da600480360381019080803573ffffffffffffffffffffffffffffffffffffffff169060200190929190505050611959565b6040518082815260200191505060405180910390f35b3480156104fc57600080fd5b50610505611a56565b604051808273ffffffffffffffffffffffffffffffffffffffff1673ffffffffffffffffffffffffffffffffffffffff16815260200191505060405180910390f35b34801561055357600080fd5b5061055c611a80565b604051808215151515815260200191505060405180910390f35b34801561058257600080fd5b5061058b611aee565b6040518080602001828103825283818151815260200191508051906020019080838360005b838110156105cb5780820151818401526020810190506105b0565b50505050905090810190601f1680156105f85780820380516001836020036101000a031916815260200191505b509250505060405180910390f35b34801561061257600080fd5b5061061b611b90565b6040518082815260200191505060405180910390f35b34801561063d57600080fd5b5061065f600480360381019080803560ff169060200190929190505050611b9a565b604051808215151515815260200191505060405180910390f35b34801561068557600080fd5b5061068e611d59565b6040518082815260200191505060405180910390f35b3480156106b057600080fd5b506106b9611e5d565b6040518082815260200191505060405180910390f35b3480156106db57600080fd5b506106fa60048036038101908080359060200190929190505050611e67565b604051808215151515815260200191505060405180910390f35b34801561072057600080fd5b5061072961214d565b6040518080602001828103825283818151815260200191508051906020019080838360005b8381101561076957808201518184015260208101905061074e565b50505050905090810190601f1680156107965780820380516001836020036101000a031916815260200191505b509250505060405180910390f35b3480156107b057600080fd5b506107b96121ef565b6040518082815260200191505060405180910390f35b3480156107db57600080fd5b506107e46121f9565b6040518082815260200191505060405180910390f35b34801561080657600080fd5b5061088b600480360381019080803573ffffffffffffffffffffffffffffffffffffffff16906020019092919080359060200190929190803590602001908201803590602001908080601f0160208091040260200160405190810160405280939291908181526020018383808284378201915050505050509192919290505050612203565b005b34801561089957600080fd5b506108a2612a01565b6040518082815260200191505060405180910390f35b3480156108c457600080fd5b506108e360048036038101908080359060200190929190505050612b56565b604051808215151515815260200191505060405180910390f35b34801561090957600080fd5b5061095e600480360381019080803573ffffffffffffffffffffffffffffffffffffffff169060200190929190803573ffffffffffffffffffffffffffffffffffffffff169060200190929190505050612d04565b6040518082815260200191505060405180910390f35b34801561098057600080fd5b50610989612d8b565b604051808273ffffffffffffffffffffffffffffffffffffffff1673ffffffffffffffffffffffffffffffffffffffff16815260200191505060405180910390f35b3480156109d757600080fd5b50610a2c600480360381019080803573ffffffffffffffffffffffffffffffffffffffff169060200190929190803573ffffffffffffffffffffffffffffffffffffffff169060200190929190505050612db5565b604051808215151515815260200191505060405180910390f35b348015610a5257600080fd5b50610a5b612e49565b60405180826006811115610a6b57fe5b60ff16815260200191505060405180910390f35b6000601160009054906101000a900473ffffffffffffffffffffffffffffffffffffffff16905090565b6000600460009054906101000a900473ffffffffffffffffffffffffffffffffffffffff1673ffffffffffffffffffffffffffffffffffffffff163373ffffffffffffffffffffffffffffffffffffffff161480610b545750600560009054906101000a900473ffffffffffffffffffffffffffffffffffffffff1673ffffffffffffffffffffffffffffffffffffffff163373ffffffffffffffffffffffffffffffffffffffff16145b1515610b5f57600080fd5b60036006811115610b6c57fe5b601060009054906101000a900460ff166006811115610b8757fe5b141515610b9357600080fd5b42600254111515610ba357600080fd5b6002601860003373ffffffffffffffffffffffffffffffffffffffff1673ffffffffffffffffffffffffffffffffffffffff16815260200190815260200160002060006101000a81548160ff021916908360ff160217905550610c04612e60565b5090565b6000610cf3600854610ce5600d6000600560009054906101000a900473ffffffffffffffffffffffffffffffffffffffff1673ffffffffffffffffffffffffffffffffffffffff1673ffffffffffffffffffffffffffffffffffffffff1681526020019081526020016000205460066000600560009054906101000a900473ffffffffffffffffffffffffffffffffffffffff1673ffffffffffffffffffffffffffffffffffffffff1673ffffffffffffffffffffffffffffffffffffffff16815260200190815260200160002054613aed90919063ffffffff16565b613aed90919063ffffffff16565b905090565b6000600460009054906101000a900473ffffffffffffffffffffffffffffffffffffffff1673ffffffffffffffffffffffffffffffffffffffff163373ffffffffffffffffffffffffffffffffffffffff161480610da35750600560009054906101000a900473ffffffffffffffffffffffffffffffffffffffff1673ffffffffffffffffffffffffffffffffffffffff163373ffffffffffffffffffffffffffffffffffffffff16145b1515610dae57600080fd5b60046006811115610dbb57fe5b601060009054906101000a900460ff166006811115610dd657fe5b141515610de257600080fd5b60025442111515610df257600080fd5b81601860003373ffffffffffffffffffffffffffffffffffffffff1673ffffffffffffffffffffffffffffffffffffffff16815260200190815260200160002060006101000a81548160ff021916908360ff16021790555060186000600560009054906101000a900473ffffffffffffffffffffffffffffffffffffffff1673ffffffffffffffffffffffffffffffffffffffff1673ffffffffffffffffffffffffffffffffffffffff16815260200190815260200160002060009054906101000a900460ff1660ff1660186000600460009054906101000a900473ffffffffffffffffffffffffffffffffffffffff1673ffffffffffffffffffffffffffffffffffffffff1673ffffffffffffffffffffffffffffffffffffffff16815260200190815260200160002060009054906101000a900460ff1660ff161415610fcf57600160186000600460009054906101000a900473ffffffffffffffffffffffffffffffffffffffff1673ffffffffffffffffffffffffffffffffffffffff1673ffffffffffffffffffffffffffffffffffffffff16815260200190815260200160002060009054906101000a900460ff1660ff161415610fbc57610fb6613b09565b50610fc6565b610fc4612e60565b505b60019050610ff8565b6005601060006101000a81548160ff02191690836006811115610fee57fe5b0217905550600090505b919050565b6000601060019054906101000a900473ffffffffffffffffffffffffffffffffffffffff16905090565b6000600460009054906101000a900473ffffffffffffffffffffffffffffffffffffffff1673ffffffffffffffffffffffffffffffffffffffff168273ffffffffffffffffffffffffffffffffffffffff1614806110d25750600560009054906101000a900473ffffffffffffffffffffffffffffffffffffffff1673ffffffffffffffffffffffffffffffffffffffff168273ffffffffffffffffffffffffffffffffffffffff16145b15156110dd57600080fd5b600660008373ffffffffffffffffffffffffffffffffffffffff1673ffffffffffffffffffffffffffffffffffffffff168152602001908152602001600020549050919050565b600061113d600f54601354613aed90919063ffffffff16565b905090565b6000600460009054906101000a900473ffffffffffffffffffffffffffffffffffffffff1673ffffffffffffffffffffffffffffffffffffffff163373ffffffffffffffffffffffffffffffffffffffff1614806111ed5750600560009054906101000a900473ffffffffffffffffffffffffffffffffffffffff1673ffffffffffffffffffffffffffffffffffffffff163373ffffffffffffffffffffffffffffffffffffffff16145b15156111f857600080fd5b6001600681111561120557fe5b601060009054906101000a900460ff16600681111561122057fe5b14151561122c57600080fd5b6000600d60003373ffffffffffffffffffffffffffffffffffffffff1673ffffffffffffffffffffffffffffffffffffffff1681526020019081526020016000205411151561127a57600080fd5b6001601460003373ffffffffffffffffffffffffffffffffffffffff1673ffffffffffffffffffffffffffffffffffffffff16815260200190815260200160002060008473ffffffffffffffffffffffffffffffffffffffff1673ffffffffffffffffffffffffffffffffffffffff16815260200190815260200160002060006101000a81548160ff021916908315150217905550600460009054906101000a900473ffffffffffffffffffffffffffffffffffffffff1673ffffffffffffffffffffffffffffffffffffffff163373ffffffffffffffffffffffffffffffffffffffff1614156113d457600b8290806001815401808255809150509060018203906000526020600020016000909192909190916101000a81548173ffffffffffffffffffffffffffffffffffffffff021916908373ffffffffffffffffffffffffffffffffffffffff160217905550506001905061143f565b600c8290806001815401808255809150509060018203906000526020600020016000909192909190916101000a81548173ffffffffffffffffffffffffffffffffffffffff021916908373ffffffffffffffffffffffffffffffffffffffff16021790555050600190505b919050565b6000600460009054906101000a900473ffffffffffffffffffffffffffffffffffffffff1673ffffffffffffffffffffffffffffffffffffffff163373ffffffffffffffffffffffffffffffffffffffff1614806114ef5750600560009054906101000a900473ffffffffffffffffffffffffffffffffffffffff1673ffffffffffffffffffffffffffffffffffffffff163373ffffffffffffffffffffffffffffffffffffffff16145b15156114fa57600080fd5b6000600681111561150757fe5b601060009054906101000a900460ff16600681111561152257fe5b14158061155557506002600681111561153757fe5b601060009054906101000a900460ff16600681111561155257fe5b14155b80611585575060068081111561156757fe5b601060009054906101000a900460ff16600681111561158257fe5b14155b151561159057600080fd5b81600d60003373ffffffffffffffffffffffffffffffffffffffff1673ffffffffffffffffffffffffffffffffffffffff16815260200190815260200160002054101515156115de57600080fd5b60011515601460003373ffffffffffffffffffffffffffffffffffffffff1673ffffffffffffffffffffffffffffffffffffffff16815260200190815260200160002060008573ffffffffffffffffffffffffffffffffffffffff1673ffffffffffffffffffffffffffffffffffffffff16815260200190815260200160002060009054906101000a900460ff16151514151561167a57600080fd5b61170982600e60003373ffffffffffffffffffffffffffffffffffffffff1673ffffffffffffffffffffffffffffffffffffffff16815260200190815260200160002060008673ffffffffffffffffffffffffffffffffffffffff1673ffffffffffffffffffffffffffffffffffffffff16815260200190815260200160002054613aed90919063ffffffff16565b600e60003373ffffffffffffffffffffffffffffffffffffffff1673ffffffffffffffffffffffffffffffffffffffff16815260200190815260200160002060008573ffffffffffffffffffffffffffffffffffffffff1673ffffffffffffffffffffffffffffffffffffffff168152602001908152602001600020819055506117db82600d60003373ffffffffffffffffffffffffffffffffffffffff1673ffffffffffffffffffffffffffffffffffffffff16815260200190815260200160002054613d1f90919063ffffffff16565b600d60003373ffffffffffffffffffffffffffffffffffffffff1673ffffffffffffffffffffffffffffffffffffffff168152602001908152602001600020819055506001905092915050565b6000600460009054906101000a900473ffffffffffffffffffffffffffffffffffffffff1673ffffffffffffffffffffffffffffffffffffffff168273ffffffffffffffffffffffffffffffffffffffff1614806118d35750600560009054906101000a900473ffffffffffffffffffffffffffffffffffffffff1673ffffffffffffffffffffffffffffffffffffffff168273ffffffffffffffffffffffffffffffffffffffff16145b15156118de57600080fd5b600460009054906101000a900473ffffffffffffffffffffffffffffffffffffffff1673ffffffffffffffffffffffffffffffffffffffff168273ffffffffffffffffffffffffffffffffffffffff16141561194157600b80549050905061194a565b600c8054905090505b919050565b6000600254905090565b6000600460009054906101000a900473ffffffffffffffffffffffffffffffffffffffff1673ffffffffffffffffffffffffffffffffffffffff168273ffffffffffffffffffffffffffffffffffffffff161480611a045750600560009054906101000a900473ffffffffffffffffffffffffffffffffffffffff1673ffffffffffffffffffffffffffffffffffffffff168273ffffffffffffffffffffffffffffffffffffffff16145b1515611a0f57600080fd5b600d60008373ffffffffffffffffffffffffffffffffffffffff1673ffffffffffffffffffffffffffffffffffffffff168152602001908152602001600020549050919050565b6000600460009054906101000a900473ffffffffffffffffffffffffffffffffffffffff16905090565b600060025442118015611ab8575060016006811115611a9b57fe5b601060009054906101000a900460ff166006811115611ab657fe5b145b1515611ac357600080fd5b6004601060006101000a81548160ff02191690836006811115611ae257fe5b02179055506001905090565b606060018054600181600116156101000203166002900480601f016020809104026020016040519081016040528092919081815260200182805460018160011615610100020316600290048015611b865780601f10611b5b57610100808354040283529160200191611b86565b820191906000526020600020905b815481529060010190602001808311611b6957829003601f168201915b5050505050905090565b6000600754905090565b6000600460009054906101000a900473ffffffffffffffffffffffffffffffffffffffff1673ffffffffffffffffffffffffffffffffffffffff163373ffffffffffffffffffffffffffffffffffffffff161480611c455750600560009054906101000a900473ffffffffffffffffffffffffffffffffffffffff1673ffffffffffffffffffffffffffffffffffffffff163373ffffffffffffffffffffffffffffffffffffffff16145b1515611c5057600080fd5b60028260ff16148015611c64575042600254115b15611cd35733601260006101000a81548173ffffffffffffffffffffffffffffffffffffffff021916908373ffffffffffffffffffffffffffffffffffffffff1602179055506003601060006101000a81548160ff02191690836006811115611cc957fe5b0217905550611cf8565b6004601060006101000a81548160ff02191690836006811115611cf257fe5b02179055505b81601860003373ffffffffffffffffffffffffffffffffffffffff1673ffffffffffffffffffffffffffffffffffffffff16815260200190815260200160002060006101000a81548160ff021916908360ff16021790555060019050919050565b6000611e58600d6000600460009054906101000a900473ffffffffffffffffffffffffffffffffffffffff1673ffffffffffffffffffffffffffffffffffffffff1673ffffffffffffffffffffffffffffffffffffffff16815260200190815260200160002054611e4a601354611e3c600f5460066000600460009054906101000a900473ffffffffffffffffffffffffffffffffffffffff1673ffffffffffffffffffffffffffffffffffffffff1673ffffffffffffffffffffffffffffffffffffffff16815260200190815260200160002054613aed90919063ffffffff16565b613aed90919063ffffffff16565b613aed90919063ffffffff16565b905090565b6000600854905090565b6000600460009054906101000a900473ffffffffffffffffffffffffffffffffffffffff1673ffffffffffffffffffffffffffffffffffffffff163373ffffffffffffffffffffffffffffffffffffffff161480611f125750600560009054906101000a900473ffffffffffffffffffffffffffffffffffffffff1673ffffffffffffffffffffffffffffffffffffffff163373ffffffffffffffffffffffffffffffffffffffff16145b1515611f1d57600080fd5b81600254101515611f2d57600080fd5b60016006811115611f3a57fe5b601060009054906101000a900460ff166006811115611f5557fe5b1480611f86575060026006811115611f6957fe5b601060009054906101000a900460ff166006811115611f8457fe5b145b1515611f9157600080fd5b60016017600084815260200190815260200160002060003373ffffffffffffffffffffffffffffffffffffffff1673ffffffffffffffffffffffffffffffffffffffff16815260200190815260200160002060006101000a81548160ff0219169083151502179055506002601060006101000a81548160ff0219169083600681111561201957fe5b021790555060011515601760008481526020019081526020016000206000600460009054906101000a900473ffffffffffffffffffffffffffffffffffffffff1673ffffffffffffffffffffffffffffffffffffffff1673ffffffffffffffffffffffffffffffffffffffff16815260200190815260200160002060009054906101000a900460ff161515148015612134575060011515601760008481526020019081526020016000206000600560009054906101000a900473ffffffffffffffffffffffffffffffffffffffff1673ffffffffffffffffffffffffffffffffffffffff1673ffffffffffffffffffffffffffffffffffffffff16815260200190815260200160002060009054906101000a900460ff161515145b156121445761214282613d38565b505b60019050919050565b606060008054600181600116156101000203166002900480601f0160208091040260200160405190810160405280929190818152602001828054600181600116156101000203166002900480156121e55780601f106121ba576101008083540402835291602001916121e5565b820191906000526020600020905b8154815290600101906020018083116121c857829003601f168201915b5050505050905090565b6000601354905090565b6000600354905090565b61220b6158ff565b600080600681111561221957fe5b601060009054906101000a900460ff16600681111561223457fe5b14151561224057600080fd5b84826000019073ffffffffffffffffffffffffffffffffffffffff16908173ffffffffffffffffffffffffffffffffffffffff168152505083826020018181525050828260400181905250601883600081518110151561229c57fe5b9060200101517f010000000000000000000000000000000000000000000000000000000000000090047f0100000000000000000000000000000000000000000000000000000000000000027f0100000000000000000000000000000000000000000000000000000000000000900463ffffffff169060020a02601084600181518110151561232657fe5b9060200101517f010000000000000000000000000000000000000000000000000000000000000090047f0100000000000000000000000000000000000000000000000000000000000000027f0100000000000000000000000000000000000000000000000000000000000000900463ffffffff169060020a0260088560028151811015156123b057fe5b9060200101517f010000000000000000000000000000000000000000000000000000000000000090047f0100000000000000000000000000000000000000000000000000000000000000027f0100000000000000000000000000000000000000000000000000000000000000900463ffffffff169060020a0285600381518110151561243857fe5b9060200101517f010000000000000000000000000000000000000000000000000000000000000090047f0100000000000000000000000000000000000000000000000000000000000000027f010000000000000000000000000000000000000000000000000000000000000090040101019050807c01000000000000000000000000000000000000000000000000000000000282606001907bffffffffffffffffffffffffffffffffffffffffffffffffffffffff191690817bffffffffffffffffffffffffffffffffffffffffffffffffffffffff19168152505061256684601560008873ffffffffffffffffffffffffffffffffffffffff1673ffffffffffffffffffffffffffffffffffffffff16815260200190815260200160002054613aed90919063ffffffff16565b601560008773ffffffffffffffffffffffffffffffffffffffff1673ffffffffffffffffffffffffffffffffffffffff168152602001908152602001600020819055506016829080600181540180825580915050906001820390600052602060002090600402016000909192909190915060008201518160000160006101000a81548173ffffffffffffffffffffffffffffffffffffffff021916908373ffffffffffffffffffffffffffffffffffffffff16021790555060208201518160010155604082015181600201908051906020019061264492919061595d565b5060608201518160030160006101000a81548163ffffffff02191690837c010000000000000000000000000000000000000000000000000000000090040217905550505050612691611d59565b60156000600460009054906101000a900473ffffffffffffffffffffffffffffffffffffffff1673ffffffffffffffffffffffffffffffffffffffff1673ffffffffffffffffffffffffffffffffffffffff16815260200190815260200160002054101580156127695750612704610c08565b60156000600560009054906101000a900473ffffffffffffffffffffffffffffffffffffffff1673ffffffffffffffffffffffffffffffffffffffff1673ffffffffffffffffffffffffffffffffffffffff1681526020019081526020016000205410155b156129fa576001601060006101000a81548160ff0219169083600681111561278d57fe5b0217905550601160009054906101000a900473ffffffffffffffffffffffffffffffffffffffff1673ffffffffffffffffffffffffffffffffffffffff1663095ea7b3600560009054906101000a900473ffffffffffffffffffffffffffffffffffffffff166007546040518363ffffffff167c0100000000000000000000000000000000000000000000000000000000028152600401808373ffffffffffffffffffffffffffffffffffffffff1673ffffffffffffffffffffffffffffffffffffffff16815260200182815260200192505050602060405180830381600087803b15801561287b57600080fd5b505af115801561288f573d6000803e3d6000fd5b505050506040513d60208110156128a557600080fd5b810190808051906020019092919050505050601160009054906101000a900473ffffffffffffffffffffffffffffffffffffffff1673ffffffffffffffffffffffffffffffffffffffff1663a9059cbb600560009054906101000a900473ffffffffffffffffffffffffffffffffffffffff166007546040518363ffffffff167c0100000000000000000000000000000000000000000000000000000000028152600401808373ffffffffffffffffffffffffffffffffffffffff1673ffffffffffffffffffffffffffffffffffffffff16815260200182815260200192505050602060405180830381600087803b1580156129a057600080fd5b505af11580156129b4573d6000803e3d6000fd5b505050506040513d60208110156129ca57600080fd5b8101908080519060200190929190505050506129f3600754600f54613d1f90919063ffffffff16565b600f819055505b5050505050565b6000601160009054906101000a900473ffffffffffffffffffffffffffffffffffffffff1673ffffffffffffffffffffffffffffffffffffffff1663dd62ed3e600560009054906101000a900473ffffffffffffffffffffffffffffffffffffffff16306040518363ffffffff167c0100000000000000000000000000000000000000000000000000000000028152600401808373ffffffffffffffffffffffffffffffffffffffff1673ffffffffffffffffffffffffffffffffffffffff1681526020018273ffffffffffffffffffffffffffffffffffffffff1673ffffffffffffffffffffffffffffffffffffffff16815260200192505050602060405180830381600087803b158015612b1657600080fd5b505af1158015612b2a573d6000803e3d6000fd5b505050506040513d6020811015612b4057600080fd5b8101908080519060200190929190505050905090565b60008033905060186000600460009054906101000a900473ffffffffffffffffffffffffffffffffffffffff1673ffffffffffffffffffffffffffffffffffffffff1673ffffffffffffffffffffffffffffffffffffffff16815260200190815260200160002060009054906101000a900460ff1660ff16831415612c405760098190806001815401808255809150509060018203906000526020600020016000909192909190916101000a81548173ffffffffffffffffffffffffffffffffffffffff021916908373ffffffffffffffffffffffffffffffffffffffff16021790555050612ca7565b600a8190806001815401808255809150509060018203906000526020600020016000909192909190916101000a81548173ffffffffffffffffffffffffffffffffffffffff021916908373ffffffffffffffffffffffffffffffffffffffff160217905550505b6005612cc6600a80549050600980549050613aed90919063ffffffff16565b1415612cd657612cd4613dbc565b505b6006601060006101000a81548160ff02191690836006811115612cf557fe5b02179055506001915050919050565b6000600e60008473ffffffffffffffffffffffffffffffffffffffff1673ffffffffffffffffffffffffffffffffffffffff16815260200190815260200160002060008373ffffffffffffffffffffffffffffffffffffffff1673ffffffffffffffffffffffffffffffffffffffff16815260200190815260200160002054905092915050565b6000600560009054906101000a900473ffffffffffffffffffffffffffffffffffffffff16905090565b6000601460008473ffffffffffffffffffffffffffffffffffffffff1673ffffffffffffffffffffffffffffffffffffffff16815260200190815260200160002060008373ffffffffffffffffffffffffffffffffffffffff1673ffffffffffffffffffffffffffffffffffffffff16815260200190815260200160002060009054906101000a900460ff16905092915050565b6000601060009054906101000a900460ff16905090565b6000806000806000600260186000600460009054906101000a900473ffffffffffffffffffffffffffffffffffffffff1673ffffffffffffffffffffffffffffffffffffffff1673ffffffffffffffffffffffffffffffffffffffff16815260200190815260200160002060009054906101000a900460ff1660ff16141515612ee857600080fd5b600260186000600560009054906101000a900473ffffffffffffffffffffffffffffffffffffffff1673ffffffffffffffffffffffffffffffffffffffff1673ffffffffffffffffffffffffffffffffffffffff16815260200190815260200160002060009054906101000a900460ff1660ff16141515612f6857600080fd5b600460009054906101000a900473ffffffffffffffffffffffffffffffffffffffff1673ffffffffffffffffffffffffffffffffffffffff16601260009054906101000a900473ffffffffffffffffffffffffffffffffffffffff1673ffffffffffffffffffffffffffffffffffffffff1614156131c9576130c96008546130bb600d6000600560009054906101000a900473ffffffffffffffffffffffffffffffffffffffff1673ffffffffffffffffffffffffffffffffffffffff1673ffffffffffffffffffffffffffffffffffffffff1681526020019081526020016000205460066000600560009054906101000a900473ffffffffffffffffffffffffffffffffffffffff1673ffffffffffffffffffffffffffffffffffffffff1673ffffffffffffffffffffffffffffffffffffffff16815260200190815260200160002054613aed90919063ffffffff16565b613aed90919063ffffffff16565b93506131b4600d6000600460009054906101000a900473ffffffffffffffffffffffffffffffffffffffff1673ffffffffffffffffffffffffffffffffffffffff1673ffffffffffffffffffffffffffffffffffffffff168152602001908152602001600020546131a660066000600460009054906101000a900473ffffffffffffffffffffffffffffffffffffffff1673ffffffffffffffffffffffffffffffffffffffff1673ffffffffffffffffffffffffffffffffffffffff16815260200190815260200160002054600f54613aed90919063ffffffff16565b613aed90919063ffffffff16565b92506131c36013548486614b64565b50613abe565b601160009054906101000a900473ffffffffffffffffffffffffffffffffffffffff1673ffffffffffffffffffffffffffffffffffffffff1663dd62ed3e600560009054906101000a900473ffffffffffffffffffffffffffffffffffffffff16306040518363ffffffff167c0100000000000000000000000000000000000000000000000000000000028152600401808373ffffffffffffffffffffffffffffffffffffffff1673ffffffffffffffffffffffffffffffffffffffff1681526020018273ffffffffffffffffffffffffffffffffffffffff1673ffffffffffffffffffffffffffffffffffffffff16815260200192505050602060405180830381600087803b1580156132dc57600080fd5b505af11580156132f0573d6000803e3d6000fd5b505050506040513d602081101561330657600080fd5b8101908080519060200190929190505050915060066000600560009054906101000a900473ffffffffffffffffffffffffffffffffffffffff1673ffffffffffffffffffffffffffffffffffffffff1673ffffffffffffffffffffffffffffffffffffffff168152602001908152602001600020546007541115613876576133fa60066000600560009054906101000a900473ffffffffffffffffffffffffffffffffffffffff1673ffffffffffffffffffffffffffffffffffffffff1673ffffffffffffffffffffffffffffffffffffffff16815260200190815260200160002054600754613d1f90919063ffffffff16565b90506135666013546134ff600d6000600460009054906101000a900473ffffffffffffffffffffffffffffffffffffffff1673ffffffffffffffffffffffffffffffffffffffff1673ffffffffffffffffffffffffffffffffffffffff168152602001908152602001600020546134f1600f546134e360085460066000600560009054906101000a900473ffffffffffffffffffffffffffffffffffffffff1673ffffffffffffffffffffffffffffffffffffffff1673ffffffffffffffffffffffffffffffffffffffff16815260200190815260200160002054613aed90919063ffffffff16565b613aed90919063ffffffff16565b613aed90919063ffffffff16565b600d6000600560009054906101000a900473ffffffffffffffffffffffffffffffffffffffff1673ffffffffffffffffffffffffffffffffffffffff1673ffffffffffffffffffffffffffffffffffffffff16815260200190815260200160002054614b64565b50818110156136ed57601160009054906101000a900473ffffffffffffffffffffffffffffffffffffffff1673ffffffffffffffffffffffffffffffffffffffff166323b872dd600560009054906101000a900473ffffffffffffffffffffffffffffffffffffffff16600460009054906101000a900473ffffffffffffffffffffffffffffffffffffffff16846040518463ffffffff167c0100000000000000000000000000000000000000000000000000000000028152600401808473ffffffffffffffffffffffffffffffffffffffff1673ffffffffffffffffffffffffffffffffffffffff1681526020018373ffffffffffffffffffffffffffffffffffffffff1673ffffffffffffffffffffffffffffffffffffffff1681526020018281526020019350505050602060405180830381600087803b1580156136ac57600080fd5b505af11580156136c0573d6000803e3d6000fd5b505050506040513d60208110156136d657600080fd5b810190808051906020019092919050505050613871565b600082111561387057601160009054906101000a900473ffffffffffffffffffffffffffffffffffffffff1673ffffffffffffffffffffffffffffffffffffffff166323b872dd600560009054906101000a900473ffffffffffffffffffffffffffffffffffffffff16600460009054906101000a900473ffffffffffffffffffffffffffffffffffffffff16856040518463ffffffff167c0100000000000000000000000000000000000000000000000000000000028152600401808473ffffffffffffffffffffffffffffffffffffffff1673ffffffffffffffffffffffffffffffffffffffff1681526020018373ffffffffffffffffffffffffffffffffffffffff1673ffffffffffffffffffffffffffffffffffffffff1681526020018281526020019350505050602060405180830381600087803b15801561383357600080fd5b505af1158015613847573d6000803e3d6000fd5b505050506040513d602081101561385d57600080fd5b8101908080519060200190929190505050505b5b613abd565b6138ec60075460066000600560009054906101000a900473ffffffffffffffffffffffffffffffffffffffff1673ffffffffffffffffffffffffffffffffffffffff1673ffffffffffffffffffffffffffffffffffffffff16815260200190815260200160002054613d1f90919063ffffffff16565b60066000600560009054906101000a900473ffffffffffffffffffffffffffffffffffffffff1673ffffffffffffffffffffffffffffffffffffffff1673ffffffffffffffffffffffffffffffffffffffff16815260200190815260200160002081905550613abb6013546139e1600d6000600460009054906101000a900473ffffffffffffffffffffffffffffffffffffffff1673ffffffffffffffffffffffffffffffffffffffff1673ffffffffffffffffffffffffffffffffffffffff168152602001908152602001600020546139d3600854600754613aed90919063ffffffff16565b613aed90919063ffffffff16565b613ab6600d6000600560009054906101000a900473ffffffffffffffffffffffffffffffffffffffff1673ffffffffffffffffffffffffffffffffffffffff1673ffffffffffffffffffffffffffffffffffffffff1681526020019081526020016000205460066000600560009054906101000a900473ffffffffffffffffffffffffffffffffffffffff1673ffffffffffffffffffffffffffffffffffffffff1673ffffffffffffffffffffffffffffffffffffffff16815260200190815260200160002054613aed90919063ffffffff16565b614b64565b505b5b6006601060006101000a81548160ff02191690836006811115613add57fe5b0217905550600194505050505090565b60008183019050828110151515613b0057fe5b80905092915050565b6000806000613c0b600854613bfd600d6000600560009054906101000a900473ffffffffffffffffffffffffffffffffffffffff1673ffffffffffffffffffffffffffffffffffffffff1673ffffffffffffffffffffffffffffffffffffffff16815260200190815260200160002054613bef60066000600560009054906101000a900473ffffffffffffffffffffffffffffffffffffffff1673ffffffffffffffffffffffffffffffffffffffff1673ffffffffffffffffffffffffffffffffffffffff16815260200190815260200160002054600f54613aed90919063ffffffff16565b613aed90919063ffffffff16565b613aed90919063ffffffff16565b9150613ce2600d6000600460009054906101000a900473ffffffffffffffffffffffffffffffffffffffff1673ffffffffffffffffffffffffffffffffffffffff1673ffffffffffffffffffffffffffffffffffffffff1681526020019081526020016000205460066000600460009054906101000a900473ffffffffffffffffffffffffffffffffffffffff1673ffffffffffffffffffffffffffffffffffffffff1673ffffffffffffffffffffffffffffffffffffffff16815260200190815260200160002054613aed90919063ffffffff16565b9050613cf16013548284614b64565b506006601060006101000a81548160ff02191690836006811115613d1157fe5b021790555060019250505090565b6000828211151515613d2d57fe5b818303905092915050565b6000816002819055506000600560149054906101000a900460ff1660ff16111515613d6257600080fd5b6001600560149054906101000a900460ff1603600560146101000a81548160ff021916908360ff1602179055506001601060006101000a81548160ff02191690836006811115613dae57fe5b021790555060019050919050565b600080600080600080600080600a8054905060098054905011156148ea57601160009054906101000a900473ffffffffffffffffffffffffffffffffffffffff1673ffffffffffffffffffffffffffffffffffffffff1663dd62ed3e600560009054906101000a900473ffffffffffffffffffffffffffffffffffffffff16306040518363ffffffff167c0100000000000000000000000000000000000000000000000000000000028152600401808373ffffffffffffffffffffffffffffffffffffffff1673ffffffffffffffffffffffffffffffffffffffff1681526020018273ffffffffffffffffffffffffffffffffffffffff1673ffffffffffffffffffffffffffffffffffffffff16815260200192505050602060405180830381600087803b158015613eed57600080fd5b505af1158015613f01573d6000803e3d6000fd5b505050506040513d6020811015613f1757600080fd5b81019080805190602001909291905050509650613f9660066000600560009054906101000a900473ffffffffffffffffffffffffffffffffffffffff1673ffffffffffffffffffffffffffffffffffffffff1673ffffffffffffffffffffffffffffffffffffffff1681526020019081526020016000205460026152af565b9550613fa7866009805490506152af565b94508560075411156143e357613fc886600754613d1f90919063ffffffff16565b93506140d360135461406c600f5461405e600d6000600460009054906101000a900473ffffffffffffffffffffffffffffffffffffffff1673ffffffffffffffffffffffffffffffffffffffff1673ffffffffffffffffffffffffffffffffffffffff168152602001908152602001600020546140506008548d613aed90919063ffffffff16565b613aed90919063ffffffff16565b613aed90919063ffffffff16565b600d6000600560009054906101000a900473ffffffffffffffffffffffffffffffffffffffff1673ffffffffffffffffffffffffffffffffffffffff1673ffffffffffffffffffffffffffffffffffffffff16815260200190815260200160002054614b64565b508684101561425a57601160009054906101000a900473ffffffffffffffffffffffffffffffffffffffff1673ffffffffffffffffffffffffffffffffffffffff166323b872dd600560009054906101000a900473ffffffffffffffffffffffffffffffffffffffff16600460009054906101000a900473ffffffffffffffffffffffffffffffffffffffff16876040518463ffffffff167c0100000000000000000000000000000000000000000000000000000000028152600401808473ffffffffffffffffffffffffffffffffffffffff1673ffffffffffffffffffffffffffffffffffffffff1681526020018373ffffffffffffffffffffffffffffffffffffffff1673ffffffffffffffffffffffffffffffffffffffff1681526020018281526020019350505050602060405180830381600087803b15801561421957600080fd5b505af115801561422d573d6000803e3d6000fd5b505050506040513d602081101561424357600080fd5b8101908080519060200190929190505050506143de565b60008711156143dd57601160009054906101000a900473ffffffffffffffffffffffffffffffffffffffff1673ffffffffffffffffffffffffffffffffffffffff166323b872dd600560009054906101000a900473ffffffffffffffffffffffffffffffffffffffff16600460009054906101000a900473ffffffffffffffffffffffffffffffffffffffff168a6040518463ffffffff167c0100000000000000000000000000000000000000000000000000000000028152600401808473ffffffffffffffffffffffffffffffffffffffff1673ffffffffffffffffffffffffffffffffffffffff1681526020018373ffffffffffffffffffffffffffffffffffffffff1673ffffffffffffffffffffffffffffffffffffffff1681526020018281526020019350505050602060405180830381600087803b1580156143a057600080fd5b505af11580156143b4573d6000803e3d6000fd5b505050506040513d60208110156143ca57600080fd5b8101908080519060200190929190505050505b5b61464e565b61446b8661445d60075460066000600560009054906101000a900473ffffffffffffffffffffffffffffffffffffffff1673ffffffffffffffffffffffffffffffffffffffff1673ffffffffffffffffffffffffffffffffffffffff16815260200190815260200160002054613d1f90919063ffffffff16565b613d1f90919063ffffffff16565b60066000600560009054906101000a900473ffffffffffffffffffffffffffffffffffffffff1673ffffffffffffffffffffffffffffffffffffffff1673ffffffffffffffffffffffffffffffffffffffff1681526020019081526020016000208190555061464c601354614572600d6000600460009054906101000a900473ffffffffffffffffffffffffffffffffffffffff1673ffffffffffffffffffffffffffffffffffffffff1673ffffffffffffffffffffffffffffffffffffffff168152602001908152602001600020546145648a614556600854600754613aed90919063ffffffff16565b613aed90919063ffffffff16565b613aed90919063ffffffff16565b614647600d6000600560009054906101000a900473ffffffffffffffffffffffffffffffffffffffff1673ffffffffffffffffffffffffffffffffffffffff1673ffffffffffffffffffffffffffffffffffffffff1681526020019081526020016000205460066000600560009054906101000a900473ffffffffffffffffffffffffffffffffffffffff1673ffffffffffffffffffffffffffffffffffffffff1673ffffffffffffffffffffffffffffffffffffffff16815260200190815260200160002054613aed90919063ffffffff16565b614b64565b505b600092505b6009805490508310156148e157601160009054906101000a900473ffffffffffffffffffffffffffffffffffffffff1673ffffffffffffffffffffffffffffffffffffffff1663095ea7b36009858154811015156146ad57fe5b9060005260206000200160009054906101000a900473ffffffffffffffffffffffffffffffffffffffff16876040518363ffffffff167c0100000000000000000000000000000000000000000000000000000000028152600401808373ffffffffffffffffffffffffffffffffffffffff1673ffffffffffffffffffffffffffffffffffffffff16815260200182815260200192505050602060405180830381600087803b15801561475e57600080fd5b505af1158015614772573d6000803e3d6000fd5b505050506040513d602081101561478857600080fd5b810190808051906020019092919050505050601160009054906101000a900473ffffffffffffffffffffffffffffffffffffffff1673ffffffffffffffffffffffffffffffffffffffff1663a9059cbb6009858154811015156147e757fe5b9060005260206000200160009054906101000a900473ffffffffffffffffffffffffffffffffffffffff16876040518363ffffffff167c0100000000000000000000000000000000000000000000000000000000028152600401808373ffffffffffffffffffffffffffffffffffffffff1673ffffffffffffffffffffffffffffffffffffffff16815260200182815260200192505050602060405180830381600087803b15801561489857600080fd5b505af11580156148ac573d6000803e3d6000fd5b505050506040513d60208110156148c257600080fd5b8101908080519060200190929190505050508280600101935050614653565b60019750614b5a565b614a50600f54614a4260066000600560009054906101000a900473ffffffffffffffffffffffffffffffffffffffff1673ffffffffffffffffffffffffffffffffffffffff1673ffffffffffffffffffffffffffffffffffffffff16815260200190815260200160002054614a34600d6000600560009054906101000a900473ffffffffffffffffffffffffffffffffffffffff1673ffffffffffffffffffffffffffffffffffffffff1673ffffffffffffffffffffffffffffffffffffffff16815260200190815260200160002054614a2660066000600460009054906101000a900473ffffffffffffffffffffffffffffffffffffffff1673ffffffffffffffffffffffffffffffffffffffff1673ffffffffffffffffffffffffffffffffffffffff1681526020019081526020016000205460026152af565b613aed90919063ffffffff16565b613aed90919063ffffffff16565b613aed90919063ffffffff16565b9150600d6000600460009054906101000a900473ffffffffffffffffffffffffffffffffffffffff1673ffffffffffffffffffffffffffffffffffffffff1673ffffffffffffffffffffffffffffffffffffffff168152602001908152602001600020549050614b2660066000600460009054906101000a900473ffffffffffffffffffffffffffffffffffffffff1673ffffffffffffffffffffffffffffffffffffffff1673ffffffffffffffffffffffffffffffffffffffff16815260200190815260200160002054600a805490506152af565b9450600092505b600a80549050831015614b47578280600101935050614b2d565b614b546013548284614b64565b50600197505b5050505050505090565b6000614b91600460009054906101000a900473ffffffffffffffffffffffffffffffffffffffff166152c5565b50614bbd600560009054906101000a900473ffffffffffffffffffffffffffffffffffffffff166152c5565b50601160009054906101000a900473ffffffffffffffffffffffffffffffffffffffff1673ffffffffffffffffffffffffffffffffffffffff1663095ea7b3601060019054906101000a900473ffffffffffffffffffffffffffffffffffffffff16866040518363ffffffff167c0100000000000000000000000000000000000000000000000000000000028152600401808373ffffffffffffffffffffffffffffffffffffffff1673ffffffffffffffffffffffffffffffffffffffff16815260200182815260200192505050602060405180830381600087803b158015614ca557600080fd5b505af1158015614cb9573d6000803e3d6000fd5b505050506040513d6020811015614ccf57600080fd5b810190808051906020019092919050505050601160009054906101000a900473ffffffffffffffffffffffffffffffffffffffff1673ffffffffffffffffffffffffffffffffffffffff1663a9059cbb601060019054906101000a900473ffffffffffffffffffffffffffffffffffffffff16866040518363ffffffff167c0100000000000000000000000000000000000000000000000000000000028152600401808373ffffffffffffffffffffffffffffffffffffffff1673ffffffffffffffffffffffffffffffffffffffff16815260200182815260200192505050602060405180830381600087803b158015614dc857600080fd5b505af1158015614ddc573d6000803e3d6000fd5b505050506040513d6020811015614df257600080fd5b810190808051906020019092919050505050600083111561505457601160009054906101000a900473ffffffffffffffffffffffffffffffffffffffff1673ffffffffffffffffffffffffffffffffffffffff1663095ea7b3600460009054906101000a900473ffffffffffffffffffffffffffffffffffffffff16856040518363ffffffff167c0100000000000000000000000000000000000000000000000000000000028152600401808373ffffffffffffffffffffffffffffffffffffffff1673ffffffffffffffffffffffffffffffffffffffff16815260200182815260200192505050602060405180830381600087803b158015614ef457600080fd5b505af1158015614f08573d6000803e3d6000fd5b505050506040513d6020811015614f1e57600080fd5b810190808051906020019092919050505050601160009054906101000a900473ffffffffffffffffffffffffffffffffffffffff1673ffffffffffffffffffffffffffffffffffffffff1663a9059cbb600460009054906101000a900473ffffffffffffffffffffffffffffffffffffffff16856040518363ffffffff167c0100000000000000000000000000000000000000000000000000000000028152600401808373ffffffffffffffffffffffffffffffffffffffff1673ffffffffffffffffffffffffffffffffffffffff16815260200182815260200192505050602060405180830381600087803b15801561501757600080fd5b505af115801561502b573d6000803e3d6000fd5b505050506040513d602081101561504157600080fd5b8101908080519060200190929190505050505b60008211156152a457601160009054906101000a900473ffffffffffffffffffffffffffffffffffffffff1673ffffffffffffffffffffffffffffffffffffffff1663095ea7b3600560009054906101000a900473ffffffffffffffffffffffffffffffffffffffff16846040518363ffffffff167c0100000000000000000000000000000000000000000000000000000000028152600401808373ffffffffffffffffffffffffffffffffffffffff1673ffffffffffffffffffffffffffffffffffffffff16815260200182815260200192505050602060405180830381600087803b15801561514457600080fd5b505af1158015615158573d6000803e3d6000fd5b505050506040513d602081101561516e57600080fd5b810190808051906020019092919050505050601160009054906101000a900473ffffffffffffffffffffffffffffffffffffffff1673ffffffffffffffffffffffffffffffffffffffff1663a9059cbb600560009054906101000a900473ffffffffffffffffffffffffffffffffffffffff16846040518363ffffffff167c0100000000000000000000000000000000000000000000000000000000028152600401808373ffffffffffffffffffffffffffffffffffffffff1673ffffffffffffffffffffffffffffffffffffffff16815260200182815260200192505050602060405180830381600087803b15801561526757600080fd5b505af115801561527b573d6000803e3d6000fd5b505050506040513d602081101561529157600080fd5b8101908080519060200190929190505050505b600190509392505050565b600081838115156152bc57fe5b04905092915050565b600080600080600460009054906101000a900473ffffffffffffffffffffffffffffffffffffffff1673ffffffffffffffffffffffffffffffffffffffff168573ffffffffffffffffffffffffffffffffffffffff16141561560c57600090505b600b8054905081101561560757600b8181548110151561534257fe5b9060005260206000200160009054906101000a900473ffffffffffffffffffffffffffffffffffffffff169250600e60008673ffffffffffffffffffffffffffffffffffffffff1673ffffffffffffffffffffffffffffffffffffffff16815260200190815260200160002060008473ffffffffffffffffffffffffffffffffffffffff1673ffffffffffffffffffffffffffffffffffffffff16815260200190815260200160002054915060008211156155fa57601160009054906101000a900473ffffffffffffffffffffffffffffffffffffffff1673ffffffffffffffffffffffffffffffffffffffff1663095ea7b384846040518363ffffffff167c0100000000000000000000000000000000000000000000000000000000028152600401808373ffffffffffffffffffffffffffffffffffffffff1673ffffffffffffffffffffffffffffffffffffffff16815260200182815260200192505050602060405180830381600087803b1580156154bc57600080fd5b505af11580156154d0573d6000803e3d6000fd5b505050506040513d60208110156154e657600080fd5b810190808051906020019092919050505050601160009054906101000a900473ffffffffffffffffffffffffffffffffffffffff1673ffffffffffffffffffffffffffffffffffffffff1663a9059cbb84846040518363ffffffff167c0100000000000000000000000000000000000000000000000000000000028152600401808373ffffffffffffffffffffffffffffffffffffffff1673ffffffffffffffffffffffffffffffffffffffff16815260200182815260200192505050602060405180830381600087803b1580156155bd57600080fd5b505af11580156155d1573d6000803e3d6000fd5b505050506040513d60208110156155e757600080fd5b8101908080519060200190929190505050505b8080600101915050615326565b6158f3565b600090505b600b805490508110156158f257600c8181548110151561562d57fe5b9060005260206000200160009054906101000a900473ffffffffffffffffffffffffffffffffffffffff169250600e60008673ffffffffffffffffffffffffffffffffffffffff1673ffffffffffffffffffffffffffffffffffffffff16815260200190815260200160002060008473ffffffffffffffffffffffffffffffffffffffff1673ffffffffffffffffffffffffffffffffffffffff16815260200190815260200160002054915060008211156158e557601160009054906101000a900473ffffffffffffffffffffffffffffffffffffffff1673ffffffffffffffffffffffffffffffffffffffff1663095ea7b384846040518363ffffffff167c0100000000000000000000000000000000000000000000000000000000028152600401808373ffffffffffffffffffffffffffffffffffffffff1673ffffffffffffffffffffffffffffffffffffffff16815260200182815260200192505050602060405180830381600087803b1580156157a757600080fd5b505af11580156157bb573d6000803e3d6000fd5b505050506040513d60208110156157d157600080fd5b810190808051906020019092919050505050601160009054906101000a900473ffffffffffffffffffffffffffffffffffffffff1673ffffffffffffffffffffffffffffffffffffffff1663a9059cbb84846040518363ffffffff167c0100000000000000000000000000000000000000000000000000000000028152600401808373ffffffffffffffffffffffffffffffffffffffff1673ffffffffffffffffffffffffffffffffffffffff16815260200182815260200192505050602060405180830381600087803b1580156158a857600080fd5b505af11580156158bc573d6000803e3d6000fd5b505050506040513d60208110156158d257600080fd5b8101908080519060200190929190505050505b8080600101915050615611565b5b60019350505050919050565b608060405190810160405280600073ffffffffffffffffffffffffffffffffffffffff168152602001600081526020016060815260200160007bffffffffffffffffffffffffffffffffffffffffffffffffffffffff191681525090565b828054600181600116156101000203166002900490600052602060002090601f016020900481019282601f1061599e57805160ff19168380011785556159cc565b828001600101855582156159cc579182015b828111156159cb5782518255916020019190600101906159b0565b5b5090506159d991906159dd565b5090565b6159ff91905b808211156159fb5760008160009055506001016159e3565b5090565b90565b600080831415615a155760009050615a34565b8183029050818382811515615a2657fe5b04141515615a3057fe5b8090505b929150505600a165627a7a7230582043bc6da9944e20f323f41e0ddbe1fe52c0599c08de745a50fec0383779cadb890029",
  "source": "pragma solidity ^0.4.24;\n\nimport \"./EventToken.sol\";\n\ncontract EventContract{\n  using SafeMath for uint;\n  enum EVENTSTATE {NOTACTIVE, ACTIVE, POSTPONEMENT, CANCELLATION, REPORTING, DISPUTED, SETTLED}\n  string private _eventName;\n  string private _eventLocation;\n  uint private _eventDate;\n  uint private _eventCreationDate;\n  address private _buyer;\n  address private _seller;\n  uint8 private _noOfAllowedPostponements;\n  mapping(address => uint256) private _escrows;\n  uint256 private _sellerAdvanceFee;\n  uint256 private _sellerCancellationPenalty;\n  address[] private _arbiterAddressesBuyer;\n  address[] private _arbiterAddressesSeller;\n  address[] private _contributerAddressesBuyer;\n  address[] private _contributerAddressesSeller;\n  mapping(address => uint256) private _contributionPoolAmounts;\n  mapping(address => mapping(address => uint256)) private _contributersAcknowledgement;\n  uint private _eventPaymentAmount;\n  EVENTSTATE private _eventState;\n  address private _eventProtocolAddress;\n  EventToken private _ETContract;\n  address private _cancellingParty;\n  uint256 private _eventProtocolCharges;\n\n  //Helper data function\n  mapping(address => mapping(address => bool)) private _isContributor;\n\n  struct TKN {\n   address sender;\n   uint256 value;\n   bytes data;\n   bytes4 sig;\n  }\n\n  mapping(address => uint256) internal _transferredAmounts;\n  TKN[] _transactionData;\n\n  mapping(uint => mapping(address => bool)) private _postPoneRequest;\n  mapping(address => uint8) private _resolveEvent;\n\n  constructor (string eventName,\n    string eventLocation,\n    uint eventDate,\n    address buyer,\n    uint8 allowedPostponements,\n    uint buyerEscrow,\n    uint sellerEscrow,\n    uint sellerAdvanceFee,\n    uint sellerCancellationPenalty,\n    uint buyerContributionPoolAmount,\n    uint sellerContributionPoolAmount,\n    uint eventPaymentAmount,\n    address eventProtocolAddress,\n    address eventTokenAddress) public{\n\n      require(eventDate > now);\n      require(allowedPostponements < 3);\n      require(buyer != address(0));\n      require(buyerEscrow > 0);\n      require(sellerEscrow > 0);\n      require(sellerAdvanceFee > 0);\n      require(sellerCancellationPenalty > 0);\n      require(buyerContributionPoolAmount > 0);\n      require(sellerContributionPoolAmount > 0);\n      require(eventPaymentAmount > 0);\n      _eventName = eventName;\n      _eventLocation = eventLocation;\n      _eventDate = eventDate;\n      _eventCreationDate = now;\n      _buyer = buyer;\n      _seller = msg.sender;\n      _noOfAllowedPostponements = allowedPostponements;\n      _escrows[_buyer] = buyerEscrow;\n      _escrows[_seller] = sellerEscrow;\n      _sellerAdvanceFee = sellerAdvanceFee;\n      _sellerCancellationPenalty = sellerCancellationPenalty;\n      _contributionPoolAmounts[_buyer] = buyerContributionPoolAmount;\n      _contributionPoolAmounts[_seller] = sellerContributionPoolAmount;\n      _eventProtocolAddress = eventProtocolAddress;\n      _ETContract = EventToken(eventTokenAddress);\n      _eventState = EVENTSTATE.NOTACTIVE;\n      _eventProtocolCharges = SafeMath.div(SafeMath.mul(eventPaymentAmount, 5), 100);\n      _eventPaymentAmount = eventPaymentAmount.sub(_eventProtocolCharges);\n  }\n\n  modifier onlyBuyer{\n      require(msg.sender == _buyer);\n      _;\n  }\n\n  modifier onlySeller{\n      require(msg.sender == _seller);\n      _;\n  }\n\n  modifier onlyBuyerAndSeller{\n      require(msg.sender == _buyer || msg.sender == _seller);\n      _;\n  }\n\n  function tokenFallback(address _from, uint256 _value, bytes _data) public{\n      require(_eventState == EVENTSTATE.NOTACTIVE);\n      TKN memory tkn;\n      tkn.sender = _from;\n      tkn.value = _value;\n      tkn.data = _data;\n      uint32 u = uint32(_data[3]) + (uint32(_data[2]) << 8) + (uint32(_data[1]) << 16) + (uint32(_data[0]) << 24);\n      tkn.sig = bytes4(u);\n      _transferredAmounts[_from] = _transferredAmounts[_from].add(_value);\n      _transactionData.push(tkn);\n\n      if(_transferredAmounts[_buyer] >= getBuyerActivationAmount() && _transferredAmounts[_seller] >= getSellerActivationAmount()){\n        _eventState = EVENTSTATE.ACTIVE;\n        _ETContract.approve(_seller, _sellerAdvanceFee);\n        _ETContract.transfer(_seller, _sellerAdvanceFee);\n        _eventPaymentAmount = _eventPaymentAmount.sub(_sellerAdvanceFee);\n      }\n  }\n\n  function getBuyerActivationAmount() public view returns (uint){\n      return _escrows[_buyer].add(_eventPaymentAmount).add(_eventProtocolCharges).add(_contributionPoolAmounts[_buyer]);\n  }\n\n  function getSellerActivationAmount() public view returns (uint){\n      return _escrows[_seller].add(_contributionPoolAmounts[_seller]).add(_sellerCancellationPenalty);\n  }\n\n  function submitPostponeRequest(uint newEventDate) public onlyBuyerAndSeller returns (bool){\n      require(_eventDate < newEventDate);\n      require(_eventState == EVENTSTATE.ACTIVE || _eventState == EVENTSTATE.POSTPONEMENT);\n      _postPoneRequest[newEventDate][msg.sender] = true;\n      _eventState = EVENTSTATE.POSTPONEMENT;\n      if (_postPoneRequest[newEventDate][_buyer] == true && _postPoneRequest[newEventDate][_seller] == true){\n        postPoneEvent(newEventDate);\n      }\n      return true;\n  }\n\n  function postPoneEvent(uint newEventDate) internal returns (bool){\n      _eventDate = newEventDate;\n      require(_noOfAllowedPostponements > 0);\n      _noOfAllowedPostponements = _noOfAllowedPostponements -1;\n      _eventState = EVENTSTATE.ACTIVE;\n      return true;\n  }\n\n  function submitResolveRequest(uint8 val) public onlyBuyerAndSeller returns (bool){\n      if (val == 2 && _eventDate > now){\n        _cancellingParty = msg.sender;\n        _eventState = EVENTSTATE.CANCELLATION;\n      }\n\n      else{\n        _eventState = EVENTSTATE.REPORTING;\n      }\n      _resolveEvent[msg.sender] = val;\n      return true;\n  }\n\n  function acknowledgeCancelRequest() public onlyBuyerAndSeller returns (bool){\n      require(_eventState == EVENTSTATE.CANCELLATION);\n      require(_eventDate > now);\n      _resolveEvent[msg.sender] = 2;\n      cancelEvent();\n  }\n\n  function cancelEvent() internal returns (bool){\n      require(_resolveEvent[_buyer] == 2);\n      require(_resolveEvent[_seller] == 2);\n\n      // If buyer cancels the event, the advance payment will be vested with the seller\n      if (_cancellingParty == _buyer){\n        uint _sellerCharges = _escrows[_seller].add(_contributionPoolAmounts[_seller]).add(_sellerCancellationPenalty);\n        uint _buyerCharges = _eventPaymentAmount.add(_escrows[_buyer]).add(_contributionPoolAmounts[_buyer]);\n        payout(_eventProtocolCharges, _buyerCharges, _sellerCharges);\n      }\n\n      // If seller cancels the event, the cancellation fees will be p0aid back and advance may be paid back\n      else{\n        uint _securityDepositSeller = _ETContract.allowance(_seller, address(this));\n        if (_sellerAdvanceFee > _escrows[_seller]){\n          uint _delta = _sellerAdvanceFee.sub(_escrows[_seller]);\n          payout(_eventProtocolCharges, _escrows[_seller].add(_sellerCancellationPenalty).add(_eventPaymentAmount).add(_contributionPoolAmounts[_buyer]), _contributionPoolAmounts[_seller]);\n\n          if (_delta < _securityDepositSeller){\n            _ETContract.transferFrom(_seller, _buyer, _delta);\n          }\n          //Security deposit has to be greater than 0\n          else if (_securityDepositSeller > 0){\n            _ETContract.transferFrom(_seller, _buyer, _securityDepositSeller);\n          }\n\n        }\n        else{\n          _escrows[_seller] = _escrows[_seller].sub(_sellerAdvanceFee);\n          payout(_eventProtocolCharges, _sellerAdvanceFee.add(_sellerCancellationPenalty).add(_contributionPoolAmounts[_buyer]), _escrows[_seller].add(_contributionPoolAmounts[_seller]));\n        }\n      }\n\n      _eventState = EVENTSTATE.SETTLED;\n      return true;\n  }\n\n  function completeResolve(uint8 val) public onlyBuyerAndSeller returns (bool){\n      require(_eventState == EVENTSTATE.REPORTING);\n      require(now > _eventDate);\n      _resolveEvent[msg.sender] = val;\n\n      //Check if DISPUTED\n      if (_resolveEvent[_buyer] == _resolveEvent[_seller]){\n        if (_resolveEvent[_buyer] == 1){\n          resolveContract();\n        }\n        else{\n          cancelEvent();\n        }\n        return true;\n      }\n      _eventState = EVENTSTATE.DISPUTED;\n      return false;\n\n  }\n\n\n  function resolveContract() internal returns (bool){\n      //Pay balance to buyer (and the escrow amount if any)\n      uint _sellerCharges = _eventPaymentAmount.add(_escrows[_seller]).add(_contributionPoolAmounts[_seller]).add(_sellerCancellationPenalty);\n      uint _buyerCharges = _escrows[_buyer].add(_contributionPoolAmounts[_buyer]);\n      payout(_eventProtocolCharges, _buyerCharges, _sellerCharges);\n      _eventState = EVENTSTATE.SETTLED;\n      return true;\n  }\n\n  function addContributers(address contributor) public onlyBuyerAndSeller returns (bool){\n      require(_eventState == EVENTSTATE.ACTIVE);\n      require(_contributionPoolAmounts[msg.sender] > 0);\n      _isContributor[msg.sender][contributor] = true;\n      if (msg.sender == _buyer){\n        _contributerAddressesBuyer.push(contributor);\n        return true;\n      }\n      _contributerAddressesSeller.push(contributor);\n      return true;\n  }\n\n  function acknowledgeContributors(address contributor, uint256 _tokens) public onlyBuyerAndSeller returns (bool){\n      require(_eventState != EVENTSTATE.NOTACTIVE || _eventState != EVENTSTATE.POSTPONEMENT || _eventState != EVENTSTATE.SETTLED);\n      require(_contributionPoolAmounts[msg.sender] >= _tokens);\n      require(_isContributor[msg.sender][contributor] == true);\n      _contributersAcknowledgement[msg.sender][contributor] = _contributersAcknowledgement[msg.sender][contributor].add(_tokens);\n      _contributionPoolAmounts[msg.sender] = _contributionPoolAmounts[msg.sender].sub(_tokens);\n      return true;\n  }\n\n  function payOutContributors(address _target) internal returns (bool){\n      address _beneficier;\n      uint _val;\n      if (_target == _buyer){\n        for (uint i = 0; i< _contributerAddressesBuyer.length; i++){\n           _beneficier = _contributerAddressesBuyer[i];\n           _val = _contributersAcknowledgement[_target][_beneficier];\n           if (_val > 0){\n             _ETContract.approve(_beneficier, _val);\n             _ETContract.transfer(_beneficier, _val);\n           }\n        }\n      }\n\n      else{\n        for (i = 0; i< _contributerAddressesBuyer.length; i++){\n          _beneficier = _contributerAddressesSeller[i];\n          _val = _contributersAcknowledgement[_target][_beneficier];\n          if (_val > 0){\n            _ETContract.approve(_beneficier, _val);\n            _ETContract.transfer(_beneficier, _val);\n          }\n        }\n      }\n      return true;\n  }\n\n\n  function payout(uint256 eventProtocolCharges, uint256 buyerAmount, uint256 sellerAmount) internal returns (bool){\n      payOutContributors(_buyer);\n      payOutContributors(_seller);\n\n      _ETContract.approve(_eventProtocolAddress, eventProtocolCharges);\n      _ETContract.transfer(_eventProtocolAddress, eventProtocolCharges);\n\n      if (buyerAmount > 0){\n        _ETContract.approve(_buyer, buyerAmount);\n        _ETContract.transfer(_buyer, buyerAmount);\n      }\n\n      if (sellerAmount > 0){\n        _ETContract.approve(_seller, sellerAmount);\n        _ETContract.transfer(_seller, sellerAmount);\n      }\n      return true;\n  }\n\n\n  function addArbiters(uint val) public returns (bool){\n      address arbiter = msg.sender;\n\n      if (val == _resolveEvent[_buyer]){\n        _arbiterAddressesBuyer.push(arbiter);\n      }\n      else{\n        _arbiterAddressesSeller.push(arbiter);\n      }\n\n      if (_arbiterAddressesBuyer.length.add(_arbiterAddressesSeller.length) == 5){\n        makeArbitrationDecision();\n      }\n      _eventState = EVENTSTATE.SETTLED;\n      return true;\n  }\n\n  function makeArbitrationDecision() internal returns (bool){\n      if (_arbiterAddressesBuyer.length > _arbiterAddressesSeller.length){\n          // Buyer wins here (So advance, 50% of escrow of seller and cancellation fees for buyer rewarded)\n          uint _securityDepositSeller = _ETContract.allowance(_seller, address(this));\n          uint _sellerEscrowHalf = SafeMath.div(_escrows[_seller], 2);\n          uint arbiterCharges = SafeMath.div(_sellerEscrowHalf, _arbiterAddressesBuyer.length);\n\n          if (_sellerAdvanceFee > _sellerEscrowHalf){\n            uint _delta = _sellerAdvanceFee.sub(_sellerEscrowHalf);\n            payout(_eventProtocolCharges, _sellerEscrowHalf.add(_sellerCancellationPenalty).add(_contributionPoolAmounts[_buyer]).add(_eventPaymentAmount), _contributionPoolAmounts[_seller]);\n\n            if (_delta < _securityDepositSeller){\n              _ETContract.transferFrom(_seller, _buyer, _delta);\n            }\n            else if(_securityDepositSeller > 0){\n              _ETContract.transferFrom(_seller, _buyer, _securityDepositSeller);\n            }\n\n          }\n          else{\n            _escrows[_seller] = _escrows[_seller].sub(_sellerAdvanceFee).sub(_sellerEscrowHalf);\n            payout(_eventProtocolCharges, _sellerAdvanceFee.add(_sellerCancellationPenalty).add(_sellerEscrowHalf).add(_contributionPoolAmounts[_buyer]), _escrows[_seller].add(_contributionPoolAmounts[_seller]));\n          }\n\n          for (uint i = 0; i< _arbiterAddressesBuyer.length; i++){\n            _ETContract.approve(_arbiterAddressesBuyer[i], arbiterCharges);\n            _ETContract.transfer(_arbiterAddressesBuyer[i], arbiterCharges);\n          }\n\n          return true;\n\n      }\n      else{\n        // Seller wins (So 50% of escrow and event payment amount is paid)\n        uint sellerCharges = SafeMath.div(_escrows[_buyer], 2).add(_contributionPoolAmounts[_seller]).add(_escrows[_seller]).add(_eventPaymentAmount);\n        uint buyerCharges = _contributionPoolAmounts[_buyer];\n        arbiterCharges = SafeMath.div(_escrows[_buyer], _arbiterAddressesSeller.length);\n        for ( i = 0; i< _arbiterAddressesSeller.length; i++){\n          //_ETContract.approve(_arbiterAddressesSeller[i], arbiterCharges);\n          //_ETContract.transfer(_arbiterAddressesSeller[i], arbiterCharges);\n        }\n        payout(_eventProtocolCharges, buyerCharges, sellerCharges);\n        return true;\n      }\n  }\n\n  function getEventState() public view returns (EVENTSTATE){\n      return _eventState;\n  }\n\n  function getBuyer() public view returns (address){\n      return _buyer;\n  }\n\n  function getSeller() public view returns (address){\n      return _seller;\n  }\n\n  function getEventDate() public view returns (uint){\n      return _eventDate;\n  }\n\n  function getEventName() public view returns (string){\n      return _eventName;\n  }\n\n  function getEventLocation() public view returns (string){\n      return _eventLocation;\n  }\n\n  function getSellerAdvanceFee() public view returns (uint){\n      return _sellerAdvanceFee;\n  }\n\n  function getsellerCancellationPenalty() public view returns (uint){\n      return _sellerCancellationPenalty;\n  }\n\n  function getEventCreationDate() public view returns (uint){\n      return _eventCreationDate;\n  }\n\n  function getEventProtocolAddress() public view returns (address){\n      return _eventProtocolAddress;\n  }\n\n  function getEventProtocolCharges() public view returns (uint){\n      return _eventProtocolCharges;\n  }\n\n  function getEventPaymentCharges() public view returns (uint){\n      return _eventProtocolCharges.add(_eventPaymentAmount);\n  }\n\n  function getContributionPoolAmounts(address addr) public view returns (uint){\n      require(addr == _buyer || addr == _seller);\n      return _contributionPoolAmounts[addr];\n  }\n\n  function getContributionAmounts(address target, address contributor) public view returns (uint){\n      return _contributersAcknowledgement[target][contributor];\n  }\n\n  function getContributorPoolSize(address target) public view returns (uint){\n      require(target == _buyer || target == _seller);\n      if (target == _buyer){\n        return _contributerAddressesBuyer.length;\n      }\n      return _contributerAddressesSeller.length;\n  }\n\n  function getEscrowAmounts(address addr) public view returns (uint){\n      require(addr == _buyer || addr == _seller);\n      return _escrows[addr];\n  }\n\n  function getTokenAddress() public view returns (address){\n      return address(_ETContract);\n  }\n\n  function getSellerSecurityDeposit() public view returns (uint){\n      return _ETContract.allowance(_seller, address(this));\n  }\n\n  function isContributor(address target, address contributor) public view returns (bool){\n      return _isContributor[target][contributor];\n  }\n\n  function checkEventCompletion() public returns (bool){\n      require(now > _eventDate && _eventState == EVENTSTATE.ACTIVE);\n      _eventState = EVENTSTATE.REPORTING;\n      return true;\n  }\n\n\n}\n",
  "sourcePath": "/home/keshik/Documents/GitHub/event-protocol-contracts/contracts/EventContract.sol",
  "compiler": {
    "name": "solc",
    "version": "0.4.24+commit.e67f0147.Emscripten.clang"
  },
  "schemaVersion": "2.0.1",
  "updatedAt": "2018-08-12T06:17:08.067Z"
}