{
  "contractName": "EventContract",
  "abi": [
    {
      "inputs": [
        {
          "name": "eventName",
          "type": "string"
        },
        {
          "name": "eventLocation",
          "type": "string"
        },
        {
          "name": "eventDate",
          "type": "uint256"
        },
        {
          "name": "buyer",
          "type": "address"
        },
        {
          "name": "allowedPostponements",
          "type": "uint8"
        },
        {
          "name": "buyerEscrow",
          "type": "uint256"
        },
        {
          "name": "sellerEscrow",
          "type": "uint256"
        },
        {
          "name": "sellerAdvanceFee",
          "type": "uint256"
        },
        {
          "name": "buyerCancellationFee",
          "type": "uint256"
        },
        {
          "name": "buyerContributionPoolAmount",
          "type": "uint256"
        },
        {
          "name": "sellerContributionPoolAmount",
          "type": "uint256"
        },
        {
          "name": "eventPaymentAmount",
          "type": "uint256"
        },
        {
          "name": "eventProtocolAddress",
          "type": "address"
        },
        {
          "name": "eventTokenAddress",
          "type": "address"
        }
      ],
      "payable": false,
      "stateMutability": "nonpayable",
      "type": "constructor"
    },
    {
      "constant": false,
      "inputs": [
        {
          "name": "_from",
          "type": "address"
        },
        {
          "name": "_value",
          "type": "uint256"
        },
        {
          "name": "_data",
          "type": "bytes"
        }
      ],
      "name": "tokenFallback",
      "outputs": [],
      "payable": false,
      "stateMutability": "nonpayable",
      "type": "function"
    },
    {
      "constant": true,
      "inputs": [],
      "name": "getBuyerActivationAmount",
      "outputs": [
        {
          "name": "",
          "type": "uint256"
        }
      ],
      "payable": false,
      "stateMutability": "view",
      "type": "function"
    },
    {
      "constant": true,
      "inputs": [],
      "name": "getSellerActivationAmount",
      "outputs": [
        {
          "name": "",
          "type": "uint256"
        }
      ],
      "payable": false,
      "stateMutability": "view",
      "type": "function"
    },
    {
      "constant": false,
      "inputs": [
        {
          "name": "newEventDate",
          "type": "uint256"
        }
      ],
      "name": "submitPostponeRequest",
      "outputs": [
        {
          "name": "",
          "type": "bool"
        }
      ],
      "payable": false,
      "stateMutability": "nonpayable",
      "type": "function"
    },
    {
      "constant": false,
      "inputs": [
        {
          "name": "_bool",
          "type": "bool"
        }
      ],
      "name": "submitResolveRequest",
      "outputs": [
        {
          "name": "",
          "type": "bool"
        }
      ],
      "payable": false,
      "stateMutability": "nonpayable",
      "type": "function"
    },
    {
      "constant": false,
      "inputs": [],
      "name": "acknowledgeCancelRequest",
      "outputs": [
        {
          "name": "",
          "type": "bool"
        }
      ],
      "payable": false,
      "stateMutability": "nonpayable",
      "type": "function"
    },
    {
      "constant": false,
      "inputs": [
        {
          "name": "_bool",
          "type": "bool"
        }
      ],
      "name": "completeResolve",
      "outputs": [
        {
          "name": "",
          "type": "bool"
        }
      ],
      "payable": false,
      "stateMutability": "nonpayable",
      "type": "function"
    },
    {
      "constant": false,
      "inputs": [
        {
          "name": "contributor",
          "type": "address"
        }
      ],
      "name": "addContributers",
      "outputs": [
        {
          "name": "",
          "type": "bool"
        }
      ],
      "payable": false,
      "stateMutability": "nonpayable",
      "type": "function"
    },
    {
      "constant": false,
      "inputs": [
        {
          "name": "contributor",
          "type": "address"
        },
        {
          "name": "_tokens",
          "type": "uint256"
        }
      ],
      "name": "acknowledgeContributors",
      "outputs": [
        {
          "name": "",
          "type": "bool"
        }
      ],
      "payable": false,
      "stateMutability": "nonpayable",
      "type": "function"
    },
    {
      "constant": false,
      "inputs": [
        {
          "name": "_target",
          "type": "address"
        }
      ],
      "name": "payOutContributors",
      "outputs": [
        {
          "name": "",
          "type": "bool"
        }
      ],
      "payable": false,
      "stateMutability": "nonpayable",
      "type": "function"
    },
    {
      "constant": false,
      "inputs": [
        {
          "name": "arbiter",
          "type": "address"
        },
        {
          "name": "_bool",
          "type": "bool"
        }
      ],
      "name": "addArbiters",
      "outputs": [
        {
          "name": "",
          "type": "bool"
        }
      ],
      "payable": false,
      "stateMutability": "nonpayable",
      "type": "function"
    },
    {
      "constant": true,
      "inputs": [],
      "name": "getEventState",
      "outputs": [
        {
          "name": "",
          "type": "uint8"
        }
      ],
      "payable": false,
      "stateMutability": "view",
      "type": "function"
    },
    {
      "constant": true,
      "inputs": [],
      "name": "getBuyer",
      "outputs": [
        {
          "name": "",
          "type": "address"
        }
      ],
      "payable": false,
      "stateMutability": "view",
      "type": "function"
    },
    {
      "constant": true,
      "inputs": [],
      "name": "getSeller",
      "outputs": [
        {
          "name": "",
          "type": "address"
        }
      ],
      "payable": false,
      "stateMutability": "view",
      "type": "function"
    },
    {
      "constant": true,
      "inputs": [],
      "name": "getEventDate",
      "outputs": [
        {
          "name": "",
          "type": "uint256"
        }
      ],
      "payable": false,
      "stateMutability": "view",
      "type": "function"
    },
    {
      "constant": true,
      "inputs": [],
      "name": "getEventName",
      "outputs": [
        {
          "name": "",
          "type": "string"
        }
      ],
      "payable": false,
      "stateMutability": "view",
      "type": "function"
    },
    {
      "constant": true,
      "inputs": [],
      "name": "getEventLocation",
      "outputs": [
        {
          "name": "",
          "type": "string"
        }
      ],
      "payable": false,
      "stateMutability": "view",
      "type": "function"
    },
    {
      "constant": true,
      "inputs": [],
      "name": "getSellerAdvanceFee",
      "outputs": [
        {
          "name": "",
          "type": "uint256"
        }
      ],
      "payable": false,
      "stateMutability": "view",
      "type": "function"
    },
    {
      "constant": true,
      "inputs": [],
      "name": "getBuyerCancellationFee",
      "outputs": [
        {
          "name": "",
          "type": "uint256"
        }
      ],
      "payable": false,
      "stateMutability": "view",
      "type": "function"
    },
    {
      "constant": true,
      "inputs": [],
      "name": "getEventCreationDate",
      "outputs": [
        {
          "name": "",
          "type": "uint256"
        }
      ],
      "payable": false,
      "stateMutability": "view",
      "type": "function"
    },
    {
      "constant": true,
      "inputs": [],
      "name": "getEventProtocolAddress",
      "outputs": [
        {
          "name": "",
          "type": "address"
        }
      ],
      "payable": false,
      "stateMutability": "view",
      "type": "function"
    },
    {
      "constant": true,
      "inputs": [],
      "name": "getEventProtocolCharges",
      "outputs": [
        {
          "name": "",
          "type": "uint256"
        }
      ],
      "payable": false,
      "stateMutability": "view",
      "type": "function"
    },
    {
      "constant": true,
      "inputs": [],
      "name": "getEventPaymentCharges",
      "outputs": [
        {
          "name": "",
          "type": "uint256"
        }
      ],
      "payable": false,
      "stateMutability": "view",
      "type": "function"
    },
    {
      "constant": true,
      "inputs": [
        {
          "name": "addr",
          "type": "address"
        }
      ],
      "name": "getContributionPoolAmounts",
      "outputs": [
        {
          "name": "",
          "type": "uint256"
        }
      ],
      "payable": false,
      "stateMutability": "view",
      "type": "function"
    },
    {
      "constant": true,
      "inputs": [
        {
          "name": "target",
          "type": "address"
        },
        {
          "name": "contributor",
          "type": "address"
        }
      ],
      "name": "getContributionAmounts",
      "outputs": [
        {
          "name": "",
          "type": "uint256"
        }
      ],
      "payable": false,
      "stateMutability": "view",
      "type": "function"
    },
    {
      "constant": true,
      "inputs": [
        {
          "name": "target",
          "type": "address"
        }
      ],
      "name": "getContributorPoolSize",
      "outputs": [
        {
          "name": "",
          "type": "uint256"
        }
      ],
      "payable": false,
      "stateMutability": "view",
      "type": "function"
    },
    {
      "constant": true,
      "inputs": [
        {
          "name": "addr",
          "type": "address"
        }
      ],
      "name": "getEscrowAmounts",
      "outputs": [
        {
          "name": "",
          "type": "uint256"
        }
      ],
      "payable": false,
      "stateMutability": "view",
      "type": "function"
    },
    {
      "constant": true,
      "inputs": [],
      "name": "getTokenAddress",
      "outputs": [
        {
          "name": "",
          "type": "address"
        }
      ],
      "payable": false,
      "stateMutability": "view",
      "type": "function"
    },
    {
      "constant": true,
      "inputs": [],
      "name": "getSellerSecurityDeposit",
      "outputs": [
        {
          "name": "",
          "type": "uint256"
        }
      ],
      "payable": false,
      "stateMutability": "view",
      "type": "function"
    },
    {
      "constant": true,
      "inputs": [
        {
          "name": "target",
          "type": "address"
        },
        {
          "name": "contributor",
          "type": "address"
        }
      ],
      "name": "isContributor",
      "outputs": [
        {
          "name": "",
          "type": "bool"
        }
      ],
      "payable": false,
      "stateMutability": "view",
      "type": "function"
    },
    {
      "constant": false,
      "inputs": [],
      "name": "checkEventCompletion",
      "outputs": [
        {
          "name": "",
          "type": "bool"
        }
      ],
      "payable": false,
      "stateMutability": "nonpayable",
      "type": "function"
    },
    {
      "constant": true,
      "inputs": [],
      "name": "testThis",
      "outputs": [
        {
          "name": "",
          "type": "bool"
        }
      ],
      "payable": false,
      "stateMutability": "view",
      "type": "function"
    },
    {
      "constant": true,
      "inputs": [],
      "name": "testNew",
      "outputs": [
        {
          "name": "",
          "type": "uint256"
        }
      ],
      "payable": false,
      "stateMutability": "view",
      "type": "function"
    }
  ],
  "bytecode": "0x60806040523480156200001157600080fd5b5060405162006016380380620060168339810180604052810190808051820192919060200180518201929190602001805190602001909291908051906020019092919080519060200190929190805190602001909291908051906020019092919080519060200190929190805190602001909291908051906020019092919080519060200190929190805190602001909291908051906020019092919080519060200190929190505050428c111515620000ca57600080fd5b60038a60ff16101515620000dd57600080fd5b600073ffffffffffffffffffffffffffffffffffffffff168b73ffffffffffffffffffffffffffffffffffffffff16141515156200011a57600080fd5b6000891115156200012a57600080fd5b6000881115156200013a57600080fd5b6000871115156200014a57600080fd5b6000861115156200015a57600080fd5b6000851115156200016a57600080fd5b6000841115156200017a57600080fd5b6000831115156200018a57600080fd5b8d60009080519060200190620001a2929190620005a7565b508c60019080519060200190620001bb929190620005a7565b508b600281905550426003819055508a600460006101000a81548173ffffffffffffffffffffffffffffffffffffffff021916908373ffffffffffffffffffffffffffffffffffffffff16021790555033600560006101000a81548173ffffffffffffffffffffffffffffffffffffffff021916908373ffffffffffffffffffffffffffffffffffffffff16021790555089600560146101000a81548160ff021916908360ff1602179055508860066000600460009054906101000a900473ffffffffffffffffffffffffffffffffffffffff1673ffffffffffffffffffffffffffffffffffffffff1673ffffffffffffffffffffffffffffffffffffffff168152602001908152602001600020819055508760066000600560009054906101000a900473ffffffffffffffffffffffffffffffffffffffff1673ffffffffffffffffffffffffffffffffffffffff1673ffffffffffffffffffffffffffffffffffffffff16815260200190815260200160002081905550866007819055508560088190555084600d6000600460009054906101000a900473ffffffffffffffffffffffffffffffffffffffff1673ffffffffffffffffffffffffffffffffffffffff1673ffffffffffffffffffffffffffffffffffffffff1681526020019081526020016000208190555083600d6000600560009054906101000a900473ffffffffffffffffffffffffffffffffffffffff1673ffffffffffffffffffffffffffffffffffffffff1673ffffffffffffffffffffffffffffffffffffffff1681526020019081526020016000208190555081601060016101000a81548173ffffffffffffffffffffffffffffffffffffffff021916908373ffffffffffffffffffffffffffffffffffffffff16021790555080601160006101000a81548173ffffffffffffffffffffffffffffffffffffffff021916908373ffffffffffffffffffffffffffffffffffffffff1602179055506000601060006101000a81548160ff02191690836006811115620004af57fe5b0217905550620004f5620004d98460056200053a640100000000026200594c176401000000009004565b6064620005766401000000000262004d33176401000000009004565b60138190555062000520601354846200058d6401000000000262004d49179091906401000000009004565b600f81905550505050505050505050505050505062000656565b6000808314156200054f576000905062000570565b81830290508183828115156200056157fe5b041415156200056c57fe5b8090505b92915050565b600081838115156200058457fe5b04905092915050565b60008282111515156200059c57fe5b818303905092915050565b828054600181600116156101000203166002900490600052602060002090601f016020900481019282601f10620005ea57805160ff19168380011785556200061b565b828001600101855582156200061b579182015b828111156200061a578251825591602001919060010190620005fd565b5b5090506200062a91906200062e565b5090565b6200065391905b808211156200064f57600081600090555060010162000635565b5090565b90565b6159b080620006666000396000f3006080604052600436106101a1576000357c0100000000000000000000000000000000000000000000000000000000900463ffffffff16806310fe9ae8146101a65780631375e2e8146101fd5780632076e2621461022c5780632bf0eae6146102575780632c292aea146102ae57806334cc08721461030557806335b58caf1461033057806339c5b6991461038b57806342fe6277146103e6578063505eb9a61461044d57806350ce9a81146104b2578063575836a314610509578063600ecdbf1461053457806360388de41461057b578063603daf9a146105d2578063673cad3a146106295780637987c3fc146106545780637d9cf28314610683578063886555fc1461071357806390be6c1d1461073e5780639b3481e91461076d578063accaf77914610798578063b81e43fc146107dd578063bb230a321461086d578063bec7682514610898578063c0ee0b8a146108c3578063c2902c0314610956578063c3a9555114610981578063cea7d8f3146109c8578063d092096014610a3f578063dbd0e1b614610a6a578063ea93636214610ac1578063f750790114610b3c575b600080fd5b3480156101b257600080fd5b506101bb610b75565b604051808273ffffffffffffffffffffffffffffffffffffffff1673ffffffffffffffffffffffffffffffffffffffff16815260200191505060405180910390f35b34801561020957600080fd5b50610212610b9f565b604051808215151515815260200191505060405180910390f35b34801561023857600080fd5b50610241610cfd565b6040518082815260200191505060405180910390f35b34801561026357600080fd5b5061026c610ded565b604051808273ffffffffffffffffffffffffffffffffffffffff1673ffffffffffffffffffffffffffffffffffffffff16815260200191505060405180910390f35b3480156102ba57600080fd5b506102ef600480360381019080803573ffffffffffffffffffffffffffffffffffffffff169060200190929190505050610e17565b6040518082815260200191505060405180910390f35b34801561031157600080fd5b5061031a610f14565b6040518082815260200191505060405180910390f35b34801561033c57600080fd5b50610371600480360381019080803573ffffffffffffffffffffffffffffffffffffffff169060200190929190505050610f32565b604051808215151515815260200191505060405180910390f35b34801561039757600080fd5b506103cc600480360381019080803573ffffffffffffffffffffffffffffffffffffffff169060200190929190505050611234565b604051808215151515815260200191505060405180910390f35b3480156103f257600080fd5b50610433600480360381019080803573ffffffffffffffffffffffffffffffffffffffff1690602001909291908035151590602001909291905050506119fe565b604051808215151515815260200191505060405180910390f35b34801561045957600080fd5b50610498600480360381019080803573ffffffffffffffffffffffffffffffffffffffff16906020019092919080359060200190929190505050612a8d565b604051808215151515815260200191505060405180910390f35b3480156104be57600080fd5b506104f3600480360381019080803573ffffffffffffffffffffffffffffffffffffffff169060200190929190505050612e71565b6040518082815260200191505060405180910390f35b34801561051557600080fd5b5061051e612f98565b6040518082815260200191505060405180910390f35b34801561054057600080fd5b50610561600480360381019080803515159060200190929190505050612fa2565b604051808215151515815260200191505060405180910390f35b34801561058757600080fd5b506105bc600480360381019080803573ffffffffffffffffffffffffffffffffffffffff169060200190929190505050613198565b6040518082815260200191505060405180910390f35b3480156105de57600080fd5b506105e7613295565b604051808273ffffffffffffffffffffffffffffffffffffffff1673ffffffffffffffffffffffffffffffffffffffff16815260200191505060405180910390f35b34801561063557600080fd5b5061063e6132bf565b6040518082815260200191505060405180910390f35b34801561066057600080fd5b506106696132c7565b604051808215151515815260200191505060405180910390f35b34801561068f57600080fd5b50610698613304565b6040518080602001828103825283818151815260200191508051906020019080838360005b838110156106d85780820151818401526020810190506106bd565b50505050905090810190601f1680156107055780820380516001836020036101000a031916815260200191505b509250505060405180910390f35b34801561071f57600080fd5b506107286133a6565b6040518082815260200191505060405180910390f35b34801561074a57600080fd5b506107536133b0565b604051808215151515815260200191505060405180910390f35b34801561077957600080fd5b506107826133bc565b6040518082815260200191505060405180910390f35b3480156107a457600080fd5b506107c3600480360381019080803590602001909291905050506134b1565b604051808215151515815260200191505060405180910390f35b3480156107e957600080fd5b506107f2613624565b6040518080602001828103825283818151815260200191508051906020019080838360005b83811015610832578082015181840152602081019050610817565b50505050905090810190601f16801561085f5780820380516001836020036101000a031916815260200191505b509250505060405180910390f35b34801561087957600080fd5b506108826136c6565b6040518082815260200191505060405180910390f35b3480156108a457600080fd5b506108ad6136d0565b6040518082815260200191505060405180910390f35b3480156108cf57600080fd5b50610954600480360381019080803573ffffffffffffffffffffffffffffffffffffffff16906020019092919080359060200190929190803590602001908201803590602001908080601f01602080910402602001604051908101604052809392919081815260200183838082843782019150505050505091929192905050506136da565b005b34801561096257600080fd5b5061096b613c71565b6040518082815260200191505060405180910390f35b34801561098d57600080fd5b506109ae600480360381019080803515159060200190929190505050613dc6565b604051808215151515815260200191505060405180910390f35b3480156109d457600080fd5b50610a29600480360381019080803573ffffffffffffffffffffffffffffffffffffffff169060200190929190803573ffffffffffffffffffffffffffffffffffffffff1690602001909291905050506140c9565b6040518082815260200191505060405180910390f35b348015610a4b57600080fd5b50610a54614150565b6040518082815260200191505060405180910390f35b348015610a7657600080fd5b50610a7f61415a565b604051808273ffffffffffffffffffffffffffffffffffffffff1673ffffffffffffffffffffffffffffffffffffffff16815260200191505060405180910390f35b348015610acd57600080fd5b50610b22600480360381019080803573ffffffffffffffffffffffffffffffffffffffff169060200190929190803573ffffffffffffffffffffffffffffffffffffffff169060200190929190505050614184565b604051808215151515815260200191505060405180910390f35b348015610b4857600080fd5b50610b51614218565b60405180826006811115610b6157fe5b60ff16815260200191505060405180910390f35b6000601160009054906101000a900473ffffffffffffffffffffffffffffffffffffffff16905090565b6000600460009054906101000a900473ffffffffffffffffffffffffffffffffffffffff1673ffffffffffffffffffffffffffffffffffffffff163373ffffffffffffffffffffffffffffffffffffffff161480610c4a5750600560009054906101000a900473ffffffffffffffffffffffffffffffffffffffff1673ffffffffffffffffffffffffffffffffffffffff163373ffffffffffffffffffffffffffffffffffffffff16145b1515610c5557600080fd5b60036006811115610c6257fe5b601060009054906101000a900460ff166006811115610c7d57fe5b141515610c8957600080fd5b42600254111515610c9957600080fd5b6000601860003373ffffffffffffffffffffffffffffffffffffffff1673ffffffffffffffffffffffffffffffffffffffff16815260200190815260200160002060006101000a81548160ff021916908315150217905550610cf961422f565b5090565b6000610de8600854610dda600d6000600560009054906101000a900473ffffffffffffffffffffffffffffffffffffffff1673ffffffffffffffffffffffffffffffffffffffff1673ffffffffffffffffffffffffffffffffffffffff1681526020019081526020016000205460066000600560009054906101000a900473ffffffffffffffffffffffffffffffffffffffff1673ffffffffffffffffffffffffffffffffffffffff1673ffffffffffffffffffffffffffffffffffffffff16815260200190815260200160002054614d1790919063ffffffff16565b614d1790919063ffffffff16565b905090565b6000601060019054906101000a900473ffffffffffffffffffffffffffffffffffffffff16905090565b6000600460009054906101000a900473ffffffffffffffffffffffffffffffffffffffff1673ffffffffffffffffffffffffffffffffffffffff168273ffffffffffffffffffffffffffffffffffffffff161480610ec25750600560009054906101000a900473ffffffffffffffffffffffffffffffffffffffff1673ffffffffffffffffffffffffffffffffffffffff168273ffffffffffffffffffffffffffffffffffffffff16145b1515610ecd57600080fd5b600660008373ffffffffffffffffffffffffffffffffffffffff1673ffffffffffffffffffffffffffffffffffffffff168152602001908152602001600020549050919050565b6000610f2d600f54601354614d1790919063ffffffff16565b905090565b6000600460009054906101000a900473ffffffffffffffffffffffffffffffffffffffff1673ffffffffffffffffffffffffffffffffffffffff163373ffffffffffffffffffffffffffffffffffffffff161480610fdd5750600560009054906101000a900473ffffffffffffffffffffffffffffffffffffffff1673ffffffffffffffffffffffffffffffffffffffff163373ffffffffffffffffffffffffffffffffffffffff16145b1515610fe857600080fd5b60016006811115610ff557fe5b601060009054906101000a900460ff16600681111561101057fe5b14151561101c57600080fd5b6000600d60003373ffffffffffffffffffffffffffffffffffffffff1673ffffffffffffffffffffffffffffffffffffffff1681526020019081526020016000205411151561106a57600080fd5b6001601460003373ffffffffffffffffffffffffffffffffffffffff1673ffffffffffffffffffffffffffffffffffffffff16815260200190815260200160002060008473ffffffffffffffffffffffffffffffffffffffff1673ffffffffffffffffffffffffffffffffffffffff16815260200190815260200160002060006101000a81548160ff021916908315150217905550600460009054906101000a900473ffffffffffffffffffffffffffffffffffffffff1673ffffffffffffffffffffffffffffffffffffffff163373ffffffffffffffffffffffffffffffffffffffff1614156111c457600b8290806001815401808255809150509060018203906000526020600020016000909192909190916101000a81548173ffffffffffffffffffffffffffffffffffffffff021916908373ffffffffffffffffffffffffffffffffffffffff160217905550506001905061122f565b600c8290806001815401808255809150509060018203906000526020600020016000909192909190916101000a81548173ffffffffffffffffffffffffffffffffffffffff021916908373ffffffffffffffffffffffffffffffffffffffff16021790555050600190505b919050565b6000806000600460009054906101000a900473ffffffffffffffffffffffffffffffffffffffff1673ffffffffffffffffffffffffffffffffffffffff163373ffffffffffffffffffffffffffffffffffffffff1614806112e25750600560009054906101000a900473ffffffffffffffffffffffffffffffffffffffff1673ffffffffffffffffffffffffffffffffffffffff163373ffffffffffffffffffffffffffffffffffffffff16145b15156112ed57600080fd5b600460009054906101000a900473ffffffffffffffffffffffffffffffffffffffff1673ffffffffffffffffffffffffffffffffffffffff168473ffffffffffffffffffffffffffffffffffffffff16141561169d57600090505b600b8054905081101561169857600b8181548110151561136457fe5b9060005260206000200160009054906101000a900473ffffffffffffffffffffffffffffffffffffffff169150601160009054906101000a900473ffffffffffffffffffffffffffffffffffffffff1673ffffffffffffffffffffffffffffffffffffffff1663095ea7b383600e60003373ffffffffffffffffffffffffffffffffffffffff1673ffffffffffffffffffffffffffffffffffffffff16815260200190815260200160002060008673ffffffffffffffffffffffffffffffffffffffff1673ffffffffffffffffffffffffffffffffffffffff168152602001908152602001600020546040518363ffffffff167c0100000000000000000000000000000000000000000000000000000000028152600401808373ffffffffffffffffffffffffffffffffffffffff1673ffffffffffffffffffffffffffffffffffffffff16815260200182815260200192505050602060405180830381600087803b1580156114d257600080fd5b505af11580156114e6573d6000803e3d6000fd5b505050506040513d60208110156114fc57600080fd5b810190808051906020019092919050505050601160009054906101000a900473ffffffffffffffffffffffffffffffffffffffff1673ffffffffffffffffffffffffffffffffffffffff1663a9059cbb83600e60003373ffffffffffffffffffffffffffffffffffffffff1673ffffffffffffffffffffffffffffffffffffffff16815260200190815260200160002060008673ffffffffffffffffffffffffffffffffffffffff1673ffffffffffffffffffffffffffffffffffffffff168152602001908152602001600020546040518363ffffffff167c0100000000000000000000000000000000000000000000000000000000028152600401808373ffffffffffffffffffffffffffffffffffffffff1673ffffffffffffffffffffffffffffffffffffffff16815260200182815260200192505050602060405180830381600087803b15801561164f57600080fd5b505af1158015611663573d6000803e3d6000fd5b505050506040513d602081101561167957600080fd5b8101908080519060200190929190505050508080600101915050611348565b6119f3565b600090505b600b805490508110156119f257600c818154811015156116be57fe5b9060005260206000200160009054906101000a900473ffffffffffffffffffffffffffffffffffffffff169150601160009054906101000a900473ffffffffffffffffffffffffffffffffffffffff1673ffffffffffffffffffffffffffffffffffffffff1663095ea7b383600e60003373ffffffffffffffffffffffffffffffffffffffff1673ffffffffffffffffffffffffffffffffffffffff16815260200190815260200160002060008673ffffffffffffffffffffffffffffffffffffffff1673ffffffffffffffffffffffffffffffffffffffff168152602001908152602001600020546040518363ffffffff167c0100000000000000000000000000000000000000000000000000000000028152600401808373ffffffffffffffffffffffffffffffffffffffff1673ffffffffffffffffffffffffffffffffffffffff16815260200182815260200192505050602060405180830381600087803b15801561182c57600080fd5b505af1158015611840573d6000803e3d6000fd5b505050506040513d602081101561185657600080fd5b810190808051906020019092919050505050601160009054906101000a900473ffffffffffffffffffffffffffffffffffffffff1673ffffffffffffffffffffffffffffffffffffffff1663a9059cbb83600e60003373ffffffffffffffffffffffffffffffffffffffff1673ffffffffffffffffffffffffffffffffffffffff16815260200190815260200160002060008673ffffffffffffffffffffffffffffffffffffffff1673ffffffffffffffffffffffffffffffffffffffff168152602001908152602001600020546040518363ffffffff167c0100000000000000000000000000000000000000000000000000000000028152600401808373ffffffffffffffffffffffffffffffffffffffff1673ffffffffffffffffffffffffffffffffffffffff16815260200182815260200192505050602060405180830381600087803b1580156119a957600080fd5b505af11580156119bd573d6000803e3d6000fd5b505050506040513d60208110156119d357600080fd5b81019080805190602001909291905050505080806001019150506116a2565b5b600192505050919050565b60008060008060008060008060186000600460009054906101000a900473ffffffffffffffffffffffffffffffffffffffff1673ffffffffffffffffffffffffffffffffffffffff1673ffffffffffffffffffffffffffffffffffffffff16815260200190815260200160002060009054906101000a900460ff1615158915151415611aef5760098a90806001815401808255809150509060018203906000526020600020016000909192909190916101000a81548173ffffffffffffffffffffffffffffffffffffffff021916908373ffffffffffffffffffffffffffffffffffffffff16021790555050611b56565b600a8a90806001815401808255809150509060018203906000526020600020016000909192909190916101000a81548173ffffffffffffffffffffffffffffffffffffffff021916908373ffffffffffffffffffffffffffffffffffffffff160217905550505b6005611b75600a80549050600a80549050614d1790919063ffffffff16565b1415612a7f57600a80549050600980549050111561259657611b95613c71565b9650611c0760066000600560009054906101000a900473ffffffffffffffffffffffffffffffffffffffff1673ffffffffffffffffffffffffffffffffffffffff1673ffffffffffffffffffffffffffffffffffffffff16815260200190815260200160002054600980549050614d33565b9550611c7560066000600560009054906101000a900473ffffffffffffffffffffffffffffffffffffffff1673ffffffffffffffffffffffffffffffffffffffff1673ffffffffffffffffffffffffffffffffffffffff168152602001908152602001600020546002614d33565b945084600754111561209357611c9685600754614d4990919063ffffffff16565b9350611d8d601354611d26600d6000600460009054906101000a900473ffffffffffffffffffffffffffffffffffffffff1673ffffffffffffffffffffffffffffffffffffffff1673ffffffffffffffffffffffffffffffffffffffff16815260200190815260200160002054611d186008548a614d1790919063ffffffff16565b614d1790919063ffffffff16565b600d6000600560009054906101000a900473ffffffffffffffffffffffffffffffffffffffff1673ffffffffffffffffffffffffffffffffffffffff1673ffffffffffffffffffffffffffffffffffffffff16815260200190815260200160002054614d62565b5086841015611f1457601160009054906101000a900473ffffffffffffffffffffffffffffffffffffffff1673ffffffffffffffffffffffffffffffffffffffff166323b872dd600560009054906101000a900473ffffffffffffffffffffffffffffffffffffffff16600460009054906101000a900473ffffffffffffffffffffffffffffffffffffffff16876040518463ffffffff167c0100000000000000000000000000000000000000000000000000000000028152600401808473ffffffffffffffffffffffffffffffffffffffff1673ffffffffffffffffffffffffffffffffffffffff1681526020018373ffffffffffffffffffffffffffffffffffffffff1673ffffffffffffffffffffffffffffffffffffffff1681526020018281526020019350505050602060405180830381600087803b158015611ed357600080fd5b505af1158015611ee7573d6000803e3d6000fd5b505050506040513d6020811015611efd57600080fd5b81019080805190602001909291905050505061208e565b601160009054906101000a900473ffffffffffffffffffffffffffffffffffffffff1673ffffffffffffffffffffffffffffffffffffffff166323b872dd600560009054906101000a900473ffffffffffffffffffffffffffffffffffffffff16600460009054906101000a900473ffffffffffffffffffffffffffffffffffffffff168a6040518463ffffffff167c0100000000000000000000000000000000000000000000000000000000028152600401808473ffffffffffffffffffffffffffffffffffffffff1673ffffffffffffffffffffffffffffffffffffffff1681526020018373ffffffffffffffffffffffffffffffffffffffff1673ffffffffffffffffffffffffffffffffffffffff1681526020018281526020019350505050602060405180830381600087803b15801561205157600080fd5b505af1158015612065573d6000803e3d6000fd5b505050506040513d602081101561207b57600080fd5b8101908080519060200190929190505050505b6122fe565b61211b8561210d60075460066000600560009054906101000a900473ffffffffffffffffffffffffffffffffffffffff1673ffffffffffffffffffffffffffffffffffffffff1673ffffffffffffffffffffffffffffffffffffffff16815260200190815260200160002054614d4990919063ffffffff16565b614d4990919063ffffffff16565b60066000600560009054906101000a900473ffffffffffffffffffffffffffffffffffffffff1673ffffffffffffffffffffffffffffffffffffffff1673ffffffffffffffffffffffffffffffffffffffff168152602001908152602001600020819055506122fc601354612222600d6000600460009054906101000a900473ffffffffffffffffffffffffffffffffffffffff1673ffffffffffffffffffffffffffffffffffffffff1673ffffffffffffffffffffffffffffffffffffffff1681526020019081526020016000205461221489612206600854600754614d1790919063ffffffff16565b614d1790919063ffffffff16565b614d1790919063ffffffff16565b6122f7600d6000600560009054906101000a900473ffffffffffffffffffffffffffffffffffffffff1673ffffffffffffffffffffffffffffffffffffffff1673ffffffffffffffffffffffffffffffffffffffff1681526020019081526020016000205460066000600560009054906101000a900473ffffffffffffffffffffffffffffffffffffffff1673ffffffffffffffffffffffffffffffffffffffff1673ffffffffffffffffffffffffffffffffffffffff16815260200190815260200160002054614d1790919063ffffffff16565b614d62565b505b600092505b600a8054905083101561259157601160009054906101000a900473ffffffffffffffffffffffffffffffffffffffff1673ffffffffffffffffffffffffffffffffffffffff1663095ea7b3600a8581548110151561235d57fe5b9060005260206000200160009054906101000a900473ffffffffffffffffffffffffffffffffffffffff16886040518363ffffffff167c0100000000000000000000000000000000000000000000000000000000028152600401808373ffffffffffffffffffffffffffffffffffffffff1673ffffffffffffffffffffffffffffffffffffffff16815260200182815260200192505050602060405180830381600087803b15801561240e57600080fd5b505af1158015612422573d6000803e3d6000fd5b505050506040513d602081101561243857600080fd5b810190808051906020019092919050505050601160009054906101000a900473ffffffffffffffffffffffffffffffffffffffff1673ffffffffffffffffffffffffffffffffffffffff1663a9059cbb600a8581548110151561249757fe5b9060005260206000200160009054906101000a900473ffffffffffffffffffffffffffffffffffffffff16886040518363ffffffff167c0100000000000000000000000000000000000000000000000000000000028152600401808373ffffffffffffffffffffffffffffffffffffffff1673ffffffffffffffffffffffffffffffffffffffff16815260200182815260200192505050602060405180830381600087803b15801561254857600080fd5b505af115801561255c573d6000803e3d6000fd5b505050506040513d602081101561257257600080fd5b8101908080519060200190929190505050508280600101935050612303565b612a7e565b6126e861266e60066000600560009054906101000a900473ffffffffffffffffffffffffffffffffffffffff1673ffffffffffffffffffffffffffffffffffffffff1673ffffffffffffffffffffffffffffffffffffffff16815260200190815260200160002054600d6000600560009054906101000a900473ffffffffffffffffffffffffffffffffffffffff1673ffffffffffffffffffffffffffffffffffffffff1673ffffffffffffffffffffffffffffffffffffffff16815260200190815260200160002054614d1790919063ffffffff16565b6126da60066000600460009054906101000a900473ffffffffffffffffffffffffffffffffffffffff1673ffffffffffffffffffffffffffffffffffffffff1673ffffffffffffffffffffffffffffffffffffffff168152602001908152602001600020546002614d33565b614d1790919063ffffffff16565b9150612760600d6000600460009054906101000a900473ffffffffffffffffffffffffffffffffffffffff1673ffffffffffffffffffffffffffffffffffffffff1673ffffffffffffffffffffffffffffffffffffffff16815260200190815260200160002054600f54614d1790919063ffffffff16565b90506127d260066000600460009054906101000a900473ffffffffffffffffffffffffffffffffffffffff1673ffffffffffffffffffffffffffffffffffffffff1673ffffffffffffffffffffffffffffffffffffffff16815260200190815260200160002054600a80549050614d33565b9550600092505b600a80549050831015612a6757601160009054906101000a900473ffffffffffffffffffffffffffffffffffffffff1673ffffffffffffffffffffffffffffffffffffffff1663095ea7b3600a8581548110151561283357fe5b9060005260206000200160009054906101000a900473ffffffffffffffffffffffffffffffffffffffff16886040518363ffffffff167c0100000000000000000000000000000000000000000000000000000000028152600401808373ffffffffffffffffffffffffffffffffffffffff1673ffffffffffffffffffffffffffffffffffffffff16815260200182815260200192505050602060405180830381600087803b1580156128e457600080fd5b505af11580156128f8573d6000803e3d6000fd5b505050506040513d602081101561290e57600080fd5b810190808051906020019092919050505050601160009054906101000a900473ffffffffffffffffffffffffffffffffffffffff1673ffffffffffffffffffffffffffffffffffffffff1663a9059cbb600a8581548110151561296d57fe5b9060005260206000200160009054906101000a900473ffffffffffffffffffffffffffffffffffffffff16886040518363ffffffff167c0100000000000000000000000000000000000000000000000000000000028152600401808373ffffffffffffffffffffffffffffffffffffffff1673ffffffffffffffffffffffffffffffffffffffff16815260200182815260200192505050602060405180830381600087803b158015612a1e57600080fd5b505af1158015612a32573d6000803e3d6000fd5b505050506040513d6020811015612a4857600080fd5b81019080805190602001909291905050505082806001019350506127d9565b612a746013548284614d62565b5060019750612a80565b5b5b5050505050505092915050565b6000600460009054906101000a900473ffffffffffffffffffffffffffffffffffffffff1673ffffffffffffffffffffffffffffffffffffffff163373ffffffffffffffffffffffffffffffffffffffff161480612b385750600560009054906101000a900473ffffffffffffffffffffffffffffffffffffffff1673ffffffffffffffffffffffffffffffffffffffff163373ffffffffffffffffffffffffffffffffffffffff16145b1515612b4357600080fd5b60006006811115612b5057fe5b601060009054906101000a900460ff166006811115612b6b57fe5b141580612b9e575060026006811115612b8057fe5b601060009054906101000a900460ff166006811115612b9b57fe5b14155b80612bce5750600680811115612bb057fe5b601060009054906101000a900460ff166006811115612bcb57fe5b14155b1515612bd957600080fd5b81600d60003373ffffffffffffffffffffffffffffffffffffffff1673ffffffffffffffffffffffffffffffffffffffff1681526020019081526020016000205410151515612c2757600080fd5b60011515601460003373ffffffffffffffffffffffffffffffffffffffff1673ffffffffffffffffffffffffffffffffffffffff16815260200190815260200160002060008573ffffffffffffffffffffffffffffffffffffffff1673ffffffffffffffffffffffffffffffffffffffff16815260200190815260200160002060009054906101000a900460ff161515141515612cc357600080fd5b612d5282600e60003373ffffffffffffffffffffffffffffffffffffffff1673ffffffffffffffffffffffffffffffffffffffff16815260200190815260200160002060008673ffffffffffffffffffffffffffffffffffffffff1673ffffffffffffffffffffffffffffffffffffffff16815260200190815260200160002054614d1790919063ffffffff16565b600e60003373ffffffffffffffffffffffffffffffffffffffff1673ffffffffffffffffffffffffffffffffffffffff16815260200190815260200160002060008573ffffffffffffffffffffffffffffffffffffffff1673ffffffffffffffffffffffffffffffffffffffff16815260200190815260200160002081905550612e2482600d60003373ffffffffffffffffffffffffffffffffffffffff1673ffffffffffffffffffffffffffffffffffffffff16815260200190815260200160002054614d4990919063ffffffff16565b600d60003373ffffffffffffffffffffffffffffffffffffffff1673ffffffffffffffffffffffffffffffffffffffff168152602001908152602001600020819055506001905092915050565b6000600460009054906101000a900473ffffffffffffffffffffffffffffffffffffffff1673ffffffffffffffffffffffffffffffffffffffff168273ffffffffffffffffffffffffffffffffffffffff161480612f1c5750600560009054906101000a900473ffffffffffffffffffffffffffffffffffffffff1673ffffffffffffffffffffffffffffffffffffffff168273ffffffffffffffffffffffffffffffffffffffff16145b1515612f2757600080fd5b600460009054906101000a900473ffffffffffffffffffffffffffffffffffffffff1673ffffffffffffffffffffffffffffffffffffffff168273ffffffffffffffffffffffffffffffffffffffff161415612f8a57600b805490509050612f93565b600c8054905090505b919050565b6000600254905090565b6000600460009054906101000a900473ffffffffffffffffffffffffffffffffffffffff1673ffffffffffffffffffffffffffffffffffffffff163373ffffffffffffffffffffffffffffffffffffffff16148061304d5750600560009054906101000a900473ffffffffffffffffffffffffffffffffffffffff1673ffffffffffffffffffffffffffffffffffffffff163373ffffffffffffffffffffffffffffffffffffffff16145b151561305857600080fd5b6000151582151514156131035733601260006101000a81548173ffffffffffffffffffffffffffffffffffffffff021916908373ffffffffffffffffffffffffffffffffffffffff1602179055504260025411156130d9576003601060006101000a81548160ff021916908360068111156130cf57fe5b02179055506130fe565b6004601060006101000a81548160ff021916908360068111156130f857fe5b02179055505b613138565b4260025410151561311357600080fd5b6004601060006101000a81548160ff0219169083600681111561313257fe5b02179055505b81601860003373ffffffffffffffffffffffffffffffffffffffff1673ffffffffffffffffffffffffffffffffffffffff16815260200190815260200160002060006101000a81548160ff02191690831515021790555060019050919050565b6000600460009054906101000a900473ffffffffffffffffffffffffffffffffffffffff1673ffffffffffffffffffffffffffffffffffffffff168273ffffffffffffffffffffffffffffffffffffffff1614806132435750600560009054906101000a900473ffffffffffffffffffffffffffffffffffffffff1673ffffffffffffffffffffffffffffffffffffffff168273ffffffffffffffffffffffffffffffffffffffff16145b151561324e57600080fd5b600d60008373ffffffffffffffffffffffffffffffffffffffff1673ffffffffffffffffffffffffffffffffffffffff168152602001908152602001600020549050919050565b6000600460009054906101000a900473ffffffffffffffffffffffffffffffffffffffff16905090565b600042905090565b6000600254421115156132d957600080fd5b6004601060006101000a81548160ff021916908360068111156132f857fe5b02179055506001905090565b606060018054600181600116156101000203166002900480601f01602080910402602001604051908101604052809291908181526020018280546001816001161561010002031660029004801561339c5780601f106133715761010080835404028352916020019161339c565b820191906000526020600020905b81548152906001019060200180831161337f57829003601f168201915b5050505050905090565b6000600754905090565b60006002544211905090565b60006134ac600d6000600460009054906101000a900473ffffffffffffffffffffffffffffffffffffffff1673ffffffffffffffffffffffffffffffffffffffff1673ffffffffffffffffffffffffffffffffffffffff1681526020019081526020016000205461349e61342e610f14565b60066000600460009054906101000a900473ffffffffffffffffffffffffffffffffffffffff1673ffffffffffffffffffffffffffffffffffffffff1673ffffffffffffffffffffffffffffffffffffffff16815260200190815260200160002054614d1790919063ffffffff16565b614d1790919063ffffffff16565b905090565b6000600460009054906101000a900473ffffffffffffffffffffffffffffffffffffffff1673ffffffffffffffffffffffffffffffffffffffff163373ffffffffffffffffffffffffffffffffffffffff16148061355c5750600560009054906101000a900473ffffffffffffffffffffffffffffffffffffffff1673ffffffffffffffffffffffffffffffffffffffff163373ffffffffffffffffffffffffffffffffffffffff16145b151561356757600080fd5b6000600560149054906101000a900460ff1660ff1611151561358857600080fd5b60016017600084815260200190815260200160002060003373ffffffffffffffffffffffffffffffffffffffff1673ffffffffffffffffffffffffffffffffffffffff16815260200190815260200160002060006101000a81548160ff0219169083151502179055506002601060006101000a81548160ff0219169083600681111561361057fe5b021790555061361e82615499565b50919050565b606060008054600181600116156101000203166002900480601f0160208091040260200160405190810160405280929190818152602001828054600181600116156101000203166002900480156136bc5780601f10613691576101008083540402835291602001916136bc565b820191906000526020600020905b81548152906001019060200180831161369f57829003601f168201915b5050505050905090565b6000601354905090565b6000600354905090565b6136e2615849565b60008060068111156136f057fe5b601060009054906101000a900460ff16600681111561370b57fe5b14151561371757600080fd5b84826000019073ffffffffffffffffffffffffffffffffffffffff16908173ffffffffffffffffffffffffffffffffffffffff168152505083826020018181525050828260400181905250601883600081518110151561377357fe5b9060200101517f010000000000000000000000000000000000000000000000000000000000000090047f0100000000000000000000000000000000000000000000000000000000000000027f0100000000000000000000000000000000000000000000000000000000000000900463ffffffff169060020a0260108460018151811015156137fd57fe5b9060200101517f010000000000000000000000000000000000000000000000000000000000000090047f0100000000000000000000000000000000000000000000000000000000000000027f0100000000000000000000000000000000000000000000000000000000000000900463ffffffff169060020a02600885600281518110151561388757fe5b9060200101517f010000000000000000000000000000000000000000000000000000000000000090047f0100000000000000000000000000000000000000000000000000000000000000027f0100000000000000000000000000000000000000000000000000000000000000900463ffffffff169060020a0285600381518110151561390f57fe5b9060200101517f010000000000000000000000000000000000000000000000000000000000000090047f0100000000000000000000000000000000000000000000000000000000000000027f010000000000000000000000000000000000000000000000000000000000000090040101019050807c01000000000000000000000000000000000000000000000000000000000282606001907bffffffffffffffffffffffffffffffffffffffffffffffffffffffff191690817bffffffffffffffffffffffffffffffffffffffffffffffffffffffff191681525050613a3d84601560008873ffffffffffffffffffffffffffffffffffffffff1673ffffffffffffffffffffffffffffffffffffffff16815260200190815260200160002054614d1790919063ffffffff16565b601560008773ffffffffffffffffffffffffffffffffffffffff1673ffffffffffffffffffffffffffffffffffffffff168152602001908152602001600020819055506016829080600181540180825580915050906001820390600052602060002090600402016000909192909190915060008201518160000160006101000a81548173ffffffffffffffffffffffffffffffffffffffff021916908373ffffffffffffffffffffffffffffffffffffffff160217905550602082015181600101556040820151816002019080519060200190613b1b9291906158a7565b5060608201518160030160006101000a81548163ffffffff02191690837c010000000000000000000000000000000000000000000000000000000090040217905550505050613b686133bc565b60156000600460009054906101000a900473ffffffffffffffffffffffffffffffffffffffff1673ffffffffffffffffffffffffffffffffffffffff1673ffffffffffffffffffffffffffffffffffffffff1681526020019081526020016000205410158015613c405750613bdb610cfd565b60156000600560009054906101000a900473ffffffffffffffffffffffffffffffffffffffff1673ffffffffffffffffffffffffffffffffffffffff1673ffffffffffffffffffffffffffffffffffffffff1681526020019081526020016000205410155b15613c6a576001601060006101000a81548160ff02191690836006811115613c6457fe5b02179055505b5050505050565b6000601160009054906101000a900473ffffffffffffffffffffffffffffffffffffffff1673ffffffffffffffffffffffffffffffffffffffff1663dd62ed3e600560009054906101000a900473ffffffffffffffffffffffffffffffffffffffff16306040518363ffffffff167c0100000000000000000000000000000000000000000000000000000000028152600401808373ffffffffffffffffffffffffffffffffffffffff1673ffffffffffffffffffffffffffffffffffffffff1681526020018273ffffffffffffffffffffffffffffffffffffffff1673ffffffffffffffffffffffffffffffffffffffff16815260200192505050602060405180830381600087803b158015613d8657600080fd5b505af1158015613d9a573d6000803e3d6000fd5b505050506040513d6020811015613db057600080fd5b8101908080519060200190929190505050905090565b6000600460009054906101000a900473ffffffffffffffffffffffffffffffffffffffff1673ffffffffffffffffffffffffffffffffffffffff163373ffffffffffffffffffffffffffffffffffffffff161480613e715750600560009054906101000a900473ffffffffffffffffffffffffffffffffffffffff1673ffffffffffffffffffffffffffffffffffffffff163373ffffffffffffffffffffffffffffffffffffffff16145b1515613e7c57600080fd5b60046006811115613e8957fe5b601060009054906101000a900460ff166006811115613ea457fe5b141515613eb057600080fd5b42600254101515613ec057600080fd5b81601860003373ffffffffffffffffffffffffffffffffffffffff1673ffffffffffffffffffffffffffffffffffffffff16815260200190815260200160002060006101000a81548160ff02191690831515021790555060186000600560009054906101000a900473ffffffffffffffffffffffffffffffffffffffff1673ffffffffffffffffffffffffffffffffffffffff1673ffffffffffffffffffffffffffffffffffffffff16815260200190815260200160002060009054906101000a900460ff16151560186000600460009054906101000a900473ffffffffffffffffffffffffffffffffffffffff1673ffffffffffffffffffffffffffffffffffffffff1673ffffffffffffffffffffffffffffffffffffffff16815260200190815260200160002060009054906101000a900460ff161515141561409b576001151560186000600460009054906101000a900473ffffffffffffffffffffffffffffffffffffffff1673ffffffffffffffffffffffffffffffffffffffff1673ffffffffffffffffffffffffffffffffffffffff16815260200190815260200160002060009054906101000a900460ff161515141561408857614082615647565b50614092565b61409061422f565b505b600190506140c4565b6005601060006101000a81548160ff021916908360068111156140ba57fe5b0217905550600090505b919050565b6000600e60008473ffffffffffffffffffffffffffffffffffffffff1673ffffffffffffffffffffffffffffffffffffffff16815260200190815260200160002060008373ffffffffffffffffffffffffffffffffffffffff1673ffffffffffffffffffffffffffffffffffffffff16815260200190815260200160002054905092915050565b6000600854905090565b6000600560009054906101000a900473ffffffffffffffffffffffffffffffffffffffff16905090565b6000601460008473ffffffffffffffffffffffffffffffffffffffff1673ffffffffffffffffffffffffffffffffffffffff16815260200190815260200160002060008373ffffffffffffffffffffffffffffffffffffffff1673ffffffffffffffffffffffffffffffffffffffff16815260200190815260200160002060009054906101000a900460ff16905092915050565b6000601060009054906101000a900460ff16905090565b60008060008060006003600681111561424457fe5b601060009054906101000a900460ff16600681111561425f57fe5b14151561426b57600080fd5b4260025411151561427b57600080fd5b6000151560186000600460009054906101000a900473ffffffffffffffffffffffffffffffffffffffff1673ffffffffffffffffffffffffffffffffffffffff1673ffffffffffffffffffffffffffffffffffffffff16815260200190815260200160002060009054906101000a900460ff1615151415156142fc57600080fd5b6000151560186000600560009054906101000a900473ffffffffffffffffffffffffffffffffffffffff1673ffffffffffffffffffffffffffffffffffffffff1673ffffffffffffffffffffffffffffffffffffffff16815260200190815260200160002060009054906101000a900460ff16151514151561437d57600080fd5b600460009054906101000a900473ffffffffffffffffffffffffffffffffffffffff1673ffffffffffffffffffffffffffffffffffffffff16601260009054906101000a900473ffffffffffffffffffffffffffffffffffffffff1673ffffffffffffffffffffffffffffffffffffffff1614156145ca576144ca600d6000600560009054906101000a900473ffffffffffffffffffffffffffffffffffffffff1673ffffffffffffffffffffffffffffffffffffffff1673ffffffffffffffffffffffffffffffffffffffff1681526020019081526020016000205460066000600560009054906101000a900473ffffffffffffffffffffffffffffffffffffffff1673ffffffffffffffffffffffffffffffffffffffff1673ffffffffffffffffffffffffffffffffffffffff16815260200190815260200160002054614d1790919063ffffffff16565b93506145b5600d6000600460009054906101000a900473ffffffffffffffffffffffffffffffffffffffff1673ffffffffffffffffffffffffffffffffffffffff1673ffffffffffffffffffffffffffffffffffffffff168152602001908152602001600020546145a760066000600460009054906101000a900473ffffffffffffffffffffffffffffffffffffffff1673ffffffffffffffffffffffffffffffffffffffff1673ffffffffffffffffffffffffffffffffffffffff16815260200190815260200160002054600f54614d1790919063ffffffff16565b614d1790919063ffffffff16565b92506145c46013548486614d62565b50614ce8565b601160009054906101000a900473ffffffffffffffffffffffffffffffffffffffff1673ffffffffffffffffffffffffffffffffffffffff1663dd62ed3e600560009054906101000a900473ffffffffffffffffffffffffffffffffffffffff16306040518363ffffffff167c0100000000000000000000000000000000000000000000000000000000028152600401808373ffffffffffffffffffffffffffffffffffffffff1673ffffffffffffffffffffffffffffffffffffffff1681526020018273ffffffffffffffffffffffffffffffffffffffff1673ffffffffffffffffffffffffffffffffffffffff16815260200192505050602060405180830381600087803b1580156146dd57600080fd5b505af11580156146f1573d6000803e3d6000fd5b505050506040513d602081101561470757600080fd5b8101908080519060200190929190505050915060066000600560009054906101000a900473ffffffffffffffffffffffffffffffffffffffff1673ffffffffffffffffffffffffffffffffffffffff1673ffffffffffffffffffffffffffffffffffffffff168152602001908152602001600020546007541115614b86576147fb60066000600560009054906101000a900473ffffffffffffffffffffffffffffffffffffffff1673ffffffffffffffffffffffffffffffffffffffff1673ffffffffffffffffffffffffffffffffffffffff16815260200190815260200160002054600754614d4990919063ffffffff16565b905061488060135461487960085460066000600560009054906101000a900473ffffffffffffffffffffffffffffffffffffffff1673ffffffffffffffffffffffffffffffffffffffff1673ffffffffffffffffffffffffffffffffffffffff16815260200190815260200160002054614d1790919063ffffffff16565b6000614d62565b5081811015614a0757601160009054906101000a900473ffffffffffffffffffffffffffffffffffffffff1673ffffffffffffffffffffffffffffffffffffffff166323b872dd600560009054906101000a900473ffffffffffffffffffffffffffffffffffffffff16600460009054906101000a900473ffffffffffffffffffffffffffffffffffffffff16846040518463ffffffff167c0100000000000000000000000000000000000000000000000000000000028152600401808473ffffffffffffffffffffffffffffffffffffffff1673ffffffffffffffffffffffffffffffffffffffff1681526020018373ffffffffffffffffffffffffffffffffffffffff1673ffffffffffffffffffffffffffffffffffffffff1681526020018281526020019350505050602060405180830381600087803b1580156149c657600080fd5b505af11580156149da573d6000803e3d6000fd5b505050506040513d60208110156149f057600080fd5b810190808051906020019092919050505050614b81565b601160009054906101000a900473ffffffffffffffffffffffffffffffffffffffff1673ffffffffffffffffffffffffffffffffffffffff166323b872dd600560009054906101000a900473ffffffffffffffffffffffffffffffffffffffff16600460009054906101000a900473ffffffffffffffffffffffffffffffffffffffff16856040518463ffffffff167c0100000000000000000000000000000000000000000000000000000000028152600401808473ffffffffffffffffffffffffffffffffffffffff1673ffffffffffffffffffffffffffffffffffffffff1681526020018373ffffffffffffffffffffffffffffffffffffffff1673ffffffffffffffffffffffffffffffffffffffff1681526020018281526020019350505050602060405180830381600087803b158015614b4457600080fd5b505af1158015614b58573d6000803e3d6000fd5b505050506040513d6020811015614b6e57600080fd5b8101908080519060200190929190505050505b614ce7565b614bfc60075460066000600560009054906101000a900473ffffffffffffffffffffffffffffffffffffffff1673ffffffffffffffffffffffffffffffffffffffff1673ffffffffffffffffffffffffffffffffffffffff16815260200190815260200160002054614d4990919063ffffffff16565b60066000600560009054906101000a900473ffffffffffffffffffffffffffffffffffffffff1673ffffffffffffffffffffffffffffffffffffffff1673ffffffffffffffffffffffffffffffffffffffff16815260200190815260200160002081905550614ce5601354614c7e600854600754614d1790919063ffffffff16565b60066000600560009054906101000a900473ffffffffffffffffffffffffffffffffffffffff1673ffffffffffffffffffffffffffffffffffffffff1673ffffffffffffffffffffffffffffffffffffffff16815260200190815260200160002054614d62565b505b5b6006601060006101000a81548160ff02191690836006811115614d0757fe5b0217905550600194505050505090565b60008183019050828110151515614d2a57fe5b80905092915050565b60008183811515614d4057fe5b04905092915050565b6000828211151515614d5757fe5b818303905092915050565b6000614d8f600460009054906101000a900473ffffffffffffffffffffffffffffffffffffffff16611234565b50614dbb600560009054906101000a900473ffffffffffffffffffffffffffffffffffffffff16611234565b50601160009054906101000a900473ffffffffffffffffffffffffffffffffffffffff1673ffffffffffffffffffffffffffffffffffffffff1663095ea7b3601060019054906101000a900473ffffffffffffffffffffffffffffffffffffffff16866040518363ffffffff167c0100000000000000000000000000000000000000000000000000000000028152600401808373ffffffffffffffffffffffffffffffffffffffff1673ffffffffffffffffffffffffffffffffffffffff16815260200182815260200192505050602060405180830381600087803b158015614ea357600080fd5b505af1158015614eb7573d6000803e3d6000fd5b505050506040513d6020811015614ecd57600080fd5b810190808051906020019092919050505050601160009054906101000a900473ffffffffffffffffffffffffffffffffffffffff1673ffffffffffffffffffffffffffffffffffffffff1663a9059cbb601060019054906101000a900473ffffffffffffffffffffffffffffffffffffffff16866040518363ffffffff167c0100000000000000000000000000000000000000000000000000000000028152600401808373ffffffffffffffffffffffffffffffffffffffff1673ffffffffffffffffffffffffffffffffffffffff16815260200182815260200192505050602060405180830381600087803b158015614fc657600080fd5b505af1158015614fda573d6000803e3d6000fd5b505050506040513d6020811015614ff057600080fd5b810190808051906020019092919050505050601160009054906101000a900473ffffffffffffffffffffffffffffffffffffffff1673ffffffffffffffffffffffffffffffffffffffff1663095ea7b3600560009054906101000a900473ffffffffffffffffffffffffffffffffffffffff16846040518363ffffffff167c0100000000000000000000000000000000000000000000000000000000028152600401808373ffffffffffffffffffffffffffffffffffffffff1673ffffffffffffffffffffffffffffffffffffffff16815260200182815260200192505050602060405180830381600087803b1580156150e957600080fd5b505af11580156150fd573d6000803e3d6000fd5b505050506040513d602081101561511357600080fd5b810190808051906020019092919050505050601160009054906101000a900473ffffffffffffffffffffffffffffffffffffffff1673ffffffffffffffffffffffffffffffffffffffff1663a9059cbb600560009054906101000a900473ffffffffffffffffffffffffffffffffffffffff16846040518363ffffffff167c0100000000000000000000000000000000000000000000000000000000028152600401808373ffffffffffffffffffffffffffffffffffffffff1673ffffffffffffffffffffffffffffffffffffffff16815260200182815260200192505050602060405180830381600087803b15801561520c57600080fd5b505af1158015615220573d6000803e3d6000fd5b505050506040513d602081101561523657600080fd5b810190808051906020019092919050505050601160009054906101000a900473ffffffffffffffffffffffffffffffffffffffff1673ffffffffffffffffffffffffffffffffffffffff1663095ea7b3600460009054906101000a900473ffffffffffffffffffffffffffffffffffffffff16856040518363ffffffff167c0100000000000000000000000000000000000000000000000000000000028152600401808373ffffffffffffffffffffffffffffffffffffffff1673ffffffffffffffffffffffffffffffffffffffff16815260200182815260200192505050602060405180830381600087803b15801561532f57600080fd5b505af1158015615343573d6000803e3d6000fd5b505050506040513d602081101561535957600080fd5b810190808051906020019092919050505050601160009054906101000a900473ffffffffffffffffffffffffffffffffffffffff1673ffffffffffffffffffffffffffffffffffffffff1663a9059cbb600460009054906101000a900473ffffffffffffffffffffffffffffffffffffffff16856040518363ffffffff167c0100000000000000000000000000000000000000000000000000000000028152600401808373ffffffffffffffffffffffffffffffffffffffff1673ffffffffffffffffffffffffffffffffffffffff16815260200182815260200192505050602060405180830381600087803b15801561545257600080fd5b505af1158015615466573d6000803e3d6000fd5b505050506040513d602081101561547c57600080fd5b810190808051906020019092919050505050600190509392505050565b600060011515601760008481526020019081526020016000206000600460009054906101000a900473ffffffffffffffffffffffffffffffffffffffff1673ffffffffffffffffffffffffffffffffffffffff1673ffffffffffffffffffffffffffffffffffffffff16815260200190815260200160002060009054906101000a900460ff16151514151561552d57600080fd5b60011515601760008481526020019081526020016000206000600560009054906101000a900473ffffffffffffffffffffffffffffffffffffffff1673ffffffffffffffffffffffffffffffffffffffff1673ffffffffffffffffffffffffffffffffffffffff16815260200190815260200160002060009054906101000a900460ff1615151415156155bf57600080fd5b816002819055506005601481819054906101000a900460ff16809291906001900391906101000a81548160ff021916908360ff160217905550506000600560149054906101000a900460ff1660ff1611151561561a57600080fd5b6001601060006101000a81548160ff0219169083600681111561563957fe5b021790555060019050919050565b6000806000615735600d6000600560009054906101000a900473ffffffffffffffffffffffffffffffffffffffff1673ffffffffffffffffffffffffffffffffffffffff1673ffffffffffffffffffffffffffffffffffffffff1681526020019081526020016000205461572760066000600560009054906101000a900473ffffffffffffffffffffffffffffffffffffffff1673ffffffffffffffffffffffffffffffffffffffff1673ffffffffffffffffffffffffffffffffffffffff16815260200190815260200160002054600f54614d1790919063ffffffff16565b614d1790919063ffffffff16565b915061580c600d6000600460009054906101000a900473ffffffffffffffffffffffffffffffffffffffff1673ffffffffffffffffffffffffffffffffffffffff1673ffffffffffffffffffffffffffffffffffffffff1681526020019081526020016000205460066000600460009054906101000a900473ffffffffffffffffffffffffffffffffffffffff1673ffffffffffffffffffffffffffffffffffffffff1673ffffffffffffffffffffffffffffffffffffffff16815260200190815260200160002054614d1790919063ffffffff16565b905061581b6013548284614d62565b506006601060006101000a81548160ff0219169083600681111561583b57fe5b021790555060019250505090565b608060405190810160405280600073ffffffffffffffffffffffffffffffffffffffff168152602001600081526020016060815260200160007bffffffffffffffffffffffffffffffffffffffffffffffffffffffff191681525090565b828054600181600116156101000203166002900490600052602060002090601f016020900481019282601f106158e857805160ff1916838001178555615916565b82800160010185558215615916579182015b828111156159155782518255916020019190600101906158fa565b5b5090506159239190615927565b5090565b61594991905b8082111561594557600081600090555060010161592d565b5090565b90565b60008083141561595f576000905061597e565b818302905081838281151561597057fe5b0414151561597a57fe5b8090505b929150505600a165627a7a72305820266b08b88c704aa52463455ed564d5a554006748b9ef71dab3a6c299030602120029",
  "source": "pragma solidity ^0.4.24;\n\nimport \"./EventToken.sol\";\n\ncontract EventContract{\n  using SafeMath for uint;\n  enum EVENTSTATE {NOTACTIVE, ACTIVE, POSTPONEMENT, CANCELLATION, REPORTING, DISPUTED, SETTLED}\n  string private _eventName;\n  string private _eventLocation;\n  uint private _eventDate;\n  uint private _eventCreationDate;\n  address private _buyer;\n  address private _seller;\n  uint8 private _noOfAllowedPostponements;\n  mapping(address => uint256) private _escrows;\n  uint256 private _sellerAdvanceFee;\n  uint256 private _buyerCancellationFee;\n  address[] private _arbiterAddressesBuyer;\n  address[] private _arbiterAddressesSeller;\n  address[] private _contributerAddressesBuyer;\n  address[] private _contributerAddressesSeller;\n  mapping(address => uint256) private _contributionPoolAmounts;\n  mapping(address => mapping(address => uint256)) private _contributersAcknowledgement;\n  uint private _eventPaymentAmount;\n  EVENTSTATE private _eventState;\n  address private _eventProtocolAddress;\n  EventToken private _ETContract;\n  address private _cancellingParty;\n  uint256 private _eventProtocolCharges;\n\n  //Helper data function\n  mapping(address => mapping(address => bool)) private _isContributor;\n\n  struct TKN {\n   address sender;\n   uint256 value;\n   bytes data;\n   bytes4 sig;\n  }\n\n  mapping(address => uint256) internal _transferredAmounts;\n  TKN[] _transactionData;\n\n  mapping(uint => mapping(address => bool)) private _postPoneRequest;\n  mapping(address => bool) private _resolveEvent;\n\n  constructor (string eventName,\n    string eventLocation,\n    uint eventDate,\n    address buyer,\n    uint8 allowedPostponements,\n    uint buyerEscrow,\n    uint sellerEscrow,\n    uint sellerAdvanceFee,\n    uint buyerCancellationFee,\n    uint buyerContributionPoolAmount,\n    uint sellerContributionPoolAmount,\n    uint eventPaymentAmount,\n    address eventProtocolAddress,\n    address eventTokenAddress) public{\n\n      require(eventDate > now);\n      require(allowedPostponements < 3);\n      require(buyer != address(0));\n      require(buyerEscrow > 0);\n      require(sellerEscrow > 0);\n      require(sellerAdvanceFee > 0);\n      require(buyerCancellationFee > 0);\n      require(buyerContributionPoolAmount > 0);\n      require(sellerContributionPoolAmount > 0);\n      require(eventPaymentAmount > 0);\n      _eventName = eventName;\n      _eventLocation = eventLocation;\n      _eventDate = eventDate;\n      _eventCreationDate = now;\n      _buyer = buyer;\n      _seller = msg.sender;\n      _noOfAllowedPostponements = allowedPostponements;\n      _escrows[_buyer] = buyerEscrow;\n      _escrows[_seller] = sellerEscrow;\n      _sellerAdvanceFee = sellerAdvanceFee;\n      _buyerCancellationFee = buyerCancellationFee;\n      _contributionPoolAmounts[_buyer] = buyerContributionPoolAmount;\n      _contributionPoolAmounts[_seller] = sellerContributionPoolAmount;\n      _eventProtocolAddress = eventProtocolAddress;\n      _ETContract = EventToken(eventTokenAddress);\n      _eventState = EVENTSTATE.NOTACTIVE;\n      _eventProtocolCharges = SafeMath.div(SafeMath.mul(eventPaymentAmount, 5), 100);\n      _eventPaymentAmount = eventPaymentAmount.sub(_eventProtocolCharges);\n  }\n\n  modifier onlyBuyer{\n      require(msg.sender == _buyer);\n      _;\n  }\n\n  modifier onlySeller{\n      require(msg.sender == _seller);\n      _;\n  }\n\n  modifier onlyBuyerAndSeller{\n      require(msg.sender == _buyer || msg.sender == _seller);\n      _;\n  }\n\n  function tokenFallback(address _from, uint256 _value, bytes _data) public{\n      require(_eventState == EVENTSTATE.NOTACTIVE);\n      TKN memory tkn;\n      tkn.sender = _from;\n      tkn.value = _value;\n      tkn.data = _data;\n      uint32 u = uint32(_data[3]) + (uint32(_data[2]) << 8) + (uint32(_data[1]) << 16) + (uint32(_data[0]) << 24);\n      tkn.sig = bytes4(u);\n      _transferredAmounts[_from] = _transferredAmounts[_from].add(_value);\n      _transactionData.push(tkn);\n\n      if(_transferredAmounts[_buyer] >= getBuyerActivationAmount() && _transferredAmounts[_seller] >= getSellerActivationAmount()){\n        _eventState = EVENTSTATE.ACTIVE;\n      }\n  }\n\n  function getBuyerActivationAmount() public view returns (uint){\n      return _escrows[_buyer].add(getEventPaymentCharges()).add(_contributionPoolAmounts[_buyer]);\n  }\n\n  function getSellerActivationAmount() public view returns (uint){\n      return _escrows[_seller].add(_contributionPoolAmounts[_seller]).add(_buyerCancellationFee);\n  }\n\n  function submitPostponeRequest(uint newEventDate) public onlyBuyerAndSeller returns (bool){\n      require(_noOfAllowedPostponements >0);\n      _postPoneRequest[newEventDate][msg.sender] = true;\n      _eventState = EVENTSTATE.POSTPONEMENT;\n      postPoneEvent(newEventDate);\n  }\n\n  function postPoneEvent(uint newEventDate) internal returns (bool){\n      require(_postPoneRequest[newEventDate][_buyer] == true);\n      require(_postPoneRequest[newEventDate][_seller] == true);\n      _eventDate = newEventDate;\n      _noOfAllowedPostponements--;\n      require(_noOfAllowedPostponements >0);\n      _eventState = EVENTSTATE.ACTIVE;\n      return true;\n  }\n\n  function submitResolveRequest(bool _bool) public onlyBuyerAndSeller returns (bool){\n      //require(_eventState == EVENTSTATE.REPORTING);\n      if (_bool == false){\n        _cancellingParty = msg.sender;\n        if (_eventDate > now){\n          _eventState = EVENTSTATE.CANCELLATION;\n        }\n        else{\n          _eventState = EVENTSTATE.REPORTING;\n        }\n      }\n      else{\n        require(_eventDate < now);\n        _eventState = EVENTSTATE.REPORTING;\n\n      }\n      _resolveEvent[msg.sender] = _bool;\n      return true;\n\n  }\n\n  function acknowledgeCancelRequest() public onlyBuyerAndSeller returns (bool){\n      require(_eventState == EVENTSTATE.CANCELLATION);\n      require(_eventDate > now);\n      _resolveEvent[msg.sender] = false;\n      cancelEvent();\n  }\n\n  function cancelEvent() internal returns (bool){\n      require(_eventState == EVENTSTATE.CANCELLATION);\n      require(_eventDate > now);\n      require(_resolveEvent[_buyer] == false);\n      require(_resolveEvent[_seller] == false);\n\n      // If buyer cancels the event, the advance payment will be vested with the seller\n      if (_cancellingParty == _buyer){\n        uint _sellerCharges = _escrows[_seller].add(_contributionPoolAmounts[_seller]);\n        uint _buyerCharges = _eventPaymentAmount.add(_escrows[_buyer]).add(_contributionPoolAmounts[_buyer]);\n        payout(_eventProtocolCharges, _buyerCharges, _sellerCharges);\n      }\n\n      // If seller cancels the event, the cancellation fees will be p0aid back and advance may be paid back\n      else{\n        uint _securityDepositSeller = _ETContract.allowance(_seller, address(this));\n        if (_sellerAdvanceFee > _escrows[_seller]){\n          uint _delta = _sellerAdvanceFee.sub(_escrows[_seller]);\n          payout(_eventProtocolCharges, _escrows[_seller].add(_buyerCancellationFee), 0);\n\n          if (_delta < _securityDepositSeller){\n            _ETContract.transferFrom(_seller, _buyer, _delta);\n          }\n          else{\n            _ETContract.transferFrom(_seller, _buyer, _securityDepositSeller);\n          }\n\n        }\n        else{\n          _escrows[_seller] = _escrows[_seller].sub(_sellerAdvanceFee);\n          payout(_eventProtocolCharges, _sellerAdvanceFee.add(_buyerCancellationFee), _escrows[_seller]);\n        }\n      }\n\n      _eventState = EVENTSTATE.SETTLED;\n      return true;\n  }\n\n  function completeResolve(bool _bool) public onlyBuyerAndSeller returns (bool){\n      require(_eventState == EVENTSTATE.REPORTING);\n      require(_eventDate < now);\n      _resolveEvent[msg.sender] = _bool;\n\n      //Check if DISPUTED\n      if (_resolveEvent[_buyer] == _resolveEvent[_seller]){\n        if (_resolveEvent[_buyer] == true){\n          resolveContract();\n        }\n        else{\n          cancelEvent();\n        }\n        return true;\n      }\n      _eventState = EVENTSTATE.DISPUTED;\n      return false;\n\n  }\n\n  function addContributers(address contributor) public onlyBuyerAndSeller returns (bool){\n      require(_eventState == EVENTSTATE.ACTIVE);\n      require(_contributionPoolAmounts[msg.sender] > 0);\n      _isContributor[msg.sender][contributor] = true;\n      if (msg.sender == _buyer){\n        _contributerAddressesBuyer.push(contributor);\n        return true;\n      }\n      _contributerAddressesSeller.push(contributor);\n      return true;\n  }\n\n  function acknowledgeContributors(address contributor, uint256 _tokens) public onlyBuyerAndSeller returns (bool){\n      require(_eventState != EVENTSTATE.NOTACTIVE || _eventState != EVENTSTATE.POSTPONEMENT || _eventState != EVENTSTATE.SETTLED);\n      require(_contributionPoolAmounts[msg.sender] >= _tokens);\n      require(_isContributor[msg.sender][contributor] == true);\n      _contributersAcknowledgement[msg.sender][contributor] = _contributersAcknowledgement[msg.sender][contributor].add(_tokens);\n      _contributionPoolAmounts[msg.sender] = _contributionPoolAmounts[msg.sender].sub(_tokens);\n      return true;\n  }\n\n  function payOutContributors(address _target) public onlyBuyerAndSeller returns (bool){\n      address _beneficier;\n      if (_target == _buyer){\n        for (uint i = 0; i< _contributerAddressesBuyer.length; i++){\n           _beneficier = _contributerAddressesBuyer[i];\n          _ETContract.approve(_beneficier, _contributersAcknowledgement[msg.sender][_beneficier]);\n          _ETContract.transfer(_beneficier, _contributersAcknowledgement[msg.sender][_beneficier]);\n        }\n      }\n\n      else{\n        for (i = 0; i< _contributerAddressesBuyer.length; i++){\n          _beneficier = _contributerAddressesSeller[i];\n          _ETContract.approve(_beneficier, _contributersAcknowledgement[msg.sender][_beneficier]);\n          _ETContract.transfer(_beneficier, _contributersAcknowledgement[msg.sender][_beneficier]);\n        }\n      }\n      return true;\n  }\n\n  function resolveContract() internal returns (bool){\n      //Pay balance to buyer (and the escrow amount if any)\n      uint _sellerCharges = _eventPaymentAmount.add(_escrows[_seller]).add(_contributionPoolAmounts[_seller]);\n      uint _buyerCharges = _escrows[_buyer].add(_contributionPoolAmounts[_buyer]);\n      payout(_eventProtocolCharges, _buyerCharges, _sellerCharges);\n      _eventState = EVENTSTATE.SETTLED;\n      return true;\n  }\n\n  function payout(uint256 eventProtocolCharges, uint256 buyerAmount, uint256 sellerAmount) internal returns (bool){\n      payOutContributors(_buyer);\n      payOutContributors(_seller);\n      _ETContract.approve(_eventProtocolAddress, eventProtocolCharges);\n      _ETContract.transfer(_eventProtocolAddress, eventProtocolCharges);\n      _ETContract.approve(_seller, sellerAmount);\n      _ETContract.transfer(_seller, sellerAmount);\n      _ETContract.approve(_buyer, buyerAmount);\n      _ETContract.transfer(_buyer, buyerAmount);\n      return true;\n  }\n\n\n  function addArbiters(address arbiter, bool _bool) public returns (bool){\n      if (_bool == _resolveEvent[_buyer]){\n        _arbiterAddressesBuyer.push(arbiter);\n      }\n      else{\n        _arbiterAddressesSeller.push(arbiter);\n      }\n      if (_arbiterAddressesSeller.length.add(_arbiterAddressesSeller.length) == 5){\n        if (_arbiterAddressesBuyer.length > _arbiterAddressesSeller.length){\n            // Buyer wins here (So advance, 50% of escrow of seller and cancellation fees for buyer rewarded)\n            uint _securityDepositSeller = getSellerSecurityDeposit();\n            uint arbiterCharges = SafeMath.div(_escrows[_seller], _arbiterAddressesBuyer.length);\n            uint _sellerEscrowHalf = SafeMath.div(_escrows[_seller], 2);\n\n            if (_sellerAdvanceFee > _sellerEscrowHalf){\n              uint _delta = _sellerAdvanceFee.sub(_sellerEscrowHalf);\n              payout(_eventProtocolCharges, _sellerEscrowHalf.add(_buyerCancellationFee).add(_contributionPoolAmounts[_buyer]), _contributionPoolAmounts[_seller]);\n\n              if (_delta < _securityDepositSeller){\n                _ETContract.transferFrom(_seller, _buyer, _delta);\n              }\n              else{\n                _ETContract.transferFrom(_seller, _buyer, _securityDepositSeller);\n              }\n            }\n            else{\n              _escrows[_seller] = _escrows[_seller].sub(_sellerAdvanceFee).sub(_sellerEscrowHalf);\n              payout(_eventProtocolCharges, _sellerAdvanceFee.add(_buyerCancellationFee).add(_sellerEscrowHalf).add(_contributionPoolAmounts[_buyer]), _escrows[_seller].add(_contributionPoolAmounts[_seller]));\n            }\n\n            for (uint i = 0; i< _arbiterAddressesSeller.length; i++){\n              _ETContract.approve(_arbiterAddressesSeller[i], arbiterCharges);\n              _ETContract.transfer(_arbiterAddressesSeller[i], arbiterCharges);\n            }\n\n        }\n        else{\n          // Seller wins (So 50% of escrow and advance is kept by the seller)\n          uint sellerCharges = SafeMath.div(_escrows[_buyer], 2).add(_contributionPoolAmounts[_seller].add(_escrows[_seller]));\n          uint buyerCharges = _eventPaymentAmount.add(_contributionPoolAmounts[_buyer]);\n          arbiterCharges = SafeMath.div(_escrows[_buyer], _arbiterAddressesSeller.length);\n          for ( i = 0; i< _arbiterAddressesSeller.length; i++){\n            _ETContract.approve(_arbiterAddressesSeller[i], arbiterCharges);\n            _ETContract.transfer(_arbiterAddressesSeller[i], arbiterCharges);\n          }\n          payout(_eventProtocolCharges, buyerCharges, sellerCharges);\n          return true;\n        }\n      }\n  }\n\n  function getEventState() public view returns (EVENTSTATE){\n      return _eventState;\n  }\n\n  function getBuyer() public view returns (address){\n      return _buyer;\n  }\n\n  function getSeller() public view returns (address){\n      return _seller;\n  }\n\n  function getEventDate() public view returns (uint){\n      return _eventDate;\n  }\n\n  function getEventName() public view returns (string){\n      return _eventName;\n  }\n\n  function getEventLocation() public view returns (string){\n      return _eventLocation;\n  }\n\n  function getSellerAdvanceFee() public view returns (uint){\n      return _sellerAdvanceFee;\n  }\n\n  function getBuyerCancellationFee() public view returns (uint){\n      return _buyerCancellationFee;\n  }\n\n  function getEventCreationDate() public view returns (uint){\n      return _eventCreationDate;\n  }\n\n  function getEventProtocolAddress() public view returns (address){\n      return _eventProtocolAddress;\n  }\n\n  function getEventProtocolCharges() public view returns (uint){\n      return _eventProtocolCharges;\n  }\n\n  function getEventPaymentCharges() public view returns (uint){\n      return _eventProtocolCharges.add(_eventPaymentAmount);\n  }\n\n  function getContributionPoolAmounts(address addr) public view returns (uint){\n      require(addr == _buyer || addr == _seller);\n      return _contributionPoolAmounts[addr];\n  }\n\n  function getContributionAmounts(address target, address contributor) public view returns (uint){\n      return _contributersAcknowledgement[target][contributor];\n  }\n\n  function getContributorPoolSize(address target) public view returns (uint){\n      require(target == _buyer || target == _seller);\n      if (target == _buyer){\n        return _contributerAddressesBuyer.length;\n      }\n      return _contributerAddressesSeller.length;\n  }\n\n  function getEscrowAmounts(address addr) public view returns (uint){\n      require(addr == _buyer || addr == _seller);\n      return _escrows[addr];\n  }\n\n  function getTokenAddress() public view returns (address){\n      return address(_ETContract);\n  }\n\n  function getSellerSecurityDeposit() public view returns (uint){\n      return _ETContract.allowance(_seller, address(this));\n  }\n\n  function isContributor(address target, address contributor) public view returns (bool){\n      return _isContributor[target][contributor];\n  }\n\n  function checkEventCompletion() public returns (bool){\n      require(now > _eventDate);\n      _eventState = EVENTSTATE.REPORTING;\n      return true;\n  }\n\n  function testThis() public view returns (bool){\n      return now > _eventDate;\n  }\n\n  function testNew() public view returns (uint){\n      return now;\n  }\n\n\n\n}\n",
  "sourcePath": "/home/keshik/Documents/GitHub/event-protocol-contracts/contracts/EventContract.sol",
  "compiler": {
    "name": "solc",
    "version": "0.4.24+commit.e67f0147.Emscripten.clang"
  },
  "schemaVersion": "2.0.1",
  "updatedAt": "2018-07-17T12:05:03.022Z"
}