{
  "contractName": "EventToken",
  "abi": [
    {
      "constant": true,
      "inputs": [],
      "name": "name",
      "outputs": [
        {
          "name": "",
          "type": "string"
        }
      ],
      "payable": false,
      "stateMutability": "view",
      "type": "function"
    },
    {
      "constant": true,
      "inputs": [],
      "name": "totalSupply",
      "outputs": [
        {
          "name": "",
          "type": "uint256"
        }
      ],
      "payable": false,
      "stateMutability": "view",
      "type": "function"
    },
    {
      "constant": true,
      "inputs": [],
      "name": "symbol",
      "outputs": [
        {
          "name": "",
          "type": "string"
        }
      ],
      "payable": false,
      "stateMutability": "view",
      "type": "function"
    },
    {
      "constant": true,
      "inputs": [],
      "name": "decimels",
      "outputs": [
        {
          "name": "",
          "type": "uint8"
        }
      ],
      "payable": false,
      "stateMutability": "view",
      "type": "function"
    },
    {
      "inputs": [
        {
          "name": "_ctrl2",
          "type": "address"
        }
      ],
      "payable": false,
      "stateMutability": "nonpayable",
      "type": "constructor"
    },
    {
      "anonymous": false,
      "inputs": [
        {
          "indexed": false,
          "name": "_from",
          "type": "address"
        },
        {
          "indexed": false,
          "name": "_to",
          "type": "address"
        },
        {
          "indexed": false,
          "name": "_value",
          "type": "uint256"
        },
        {
          "indexed": false,
          "name": "_data",
          "type": "bytes"
        }
      ],
      "name": "Transfer",
      "type": "event"
    },
    {
      "anonymous": false,
      "inputs": [
        {
          "indexed": false,
          "name": "_from",
          "type": "address"
        },
        {
          "indexed": false,
          "name": "_to",
          "type": "address"
        },
        {
          "indexed": false,
          "name": "_value",
          "type": "uint256"
        }
      ],
      "name": "Transfer",
      "type": "event"
    },
    {
      "anonymous": false,
      "inputs": [
        {
          "indexed": false,
          "name": "_from",
          "type": "address"
        },
        {
          "indexed": false,
          "name": "_to",
          "type": "address"
        },
        {
          "indexed": false,
          "name": "_value",
          "type": "uint256"
        }
      ],
      "name": "Approval",
      "type": "event"
    },
    {
      "constant": true,
      "inputs": [
        {
          "name": "_owner",
          "type": "address"
        }
      ],
      "name": "balanceOf",
      "outputs": [
        {
          "name": "",
          "type": "uint256"
        }
      ],
      "payable": false,
      "stateMutability": "view",
      "type": "function"
    },
    {
      "constant": false,
      "inputs": [
        {
          "name": "_to",
          "type": "address"
        },
        {
          "name": "_value",
          "type": "uint256"
        }
      ],
      "name": "transfer",
      "outputs": [
        {
          "name": "",
          "type": "bool"
        }
      ],
      "payable": false,
      "stateMutability": "nonpayable",
      "type": "function"
    },
    {
      "constant": false,
      "inputs": [
        {
          "name": "_to",
          "type": "address"
        },
        {
          "name": "_value",
          "type": "uint256"
        },
        {
          "name": "_data",
          "type": "bytes"
        }
      ],
      "name": "transferToContract",
      "outputs": [
        {
          "name": "",
          "type": "bool"
        }
      ],
      "payable": false,
      "stateMutability": "nonpayable",
      "type": "function"
    },
    {
      "constant": false,
      "inputs": [
        {
          "name": "_from",
          "type": "address"
        },
        {
          "name": "_to",
          "type": "address"
        },
        {
          "name": "_value",
          "type": "uint256"
        }
      ],
      "name": "transferFrom",
      "outputs": [
        {
          "name": "",
          "type": "bool"
        }
      ],
      "payable": false,
      "stateMutability": "nonpayable",
      "type": "function"
    },
    {
      "constant": false,
      "inputs": [
        {
          "name": "_spender",
          "type": "address"
        },
        {
          "name": "_value",
          "type": "uint256"
        }
      ],
      "name": "approve",
      "outputs": [
        {
          "name": "",
          "type": "bool"
        }
      ],
      "payable": false,
      "stateMutability": "nonpayable",
      "type": "function"
    },
    {
      "constant": true,
      "inputs": [
        {
          "name": "_owner",
          "type": "address"
        },
        {
          "name": "_spender",
          "type": "address"
        }
      ],
      "name": "allowance",
      "outputs": [
        {
          "name": "",
          "type": "uint256"
        }
      ],
      "payable": false,
      "stateMutability": "view",
      "type": "function"
    },
    {
      "constant": true,
      "inputs": [
        {
          "name": "_address",
          "type": "address"
        }
      ],
      "name": "isContract",
      "outputs": [
        {
          "name": "",
          "type": "bool"
        }
      ],
      "payable": false,
      "stateMutability": "view",
      "type": "function"
    },
    {
      "constant": true,
      "inputs": [],
      "name": "getCtrlAddress1",
      "outputs": [
        {
          "name": "",
          "type": "address"
        }
      ],
      "payable": false,
      "stateMutability": "view",
      "type": "function"
    },
    {
      "constant": true,
      "inputs": [],
      "name": "getCtrlAddress2",
      "outputs": [
        {
          "name": "",
          "type": "address"
        }
      ],
      "payable": false,
      "stateMutability": "view",
      "type": "function"
    },
    {
      "constant": false,
      "inputs": [
        {
          "name": "_newCtrl1",
          "type": "address"
        }
      ],
      "name": "setCtrlAddress1",
      "outputs": [],
      "payable": false,
      "stateMutability": "nonpayable",
      "type": "function"
    },
    {
      "constant": false,
      "inputs": [
        {
          "name": "_newCtrl2",
          "type": "address"
        }
      ],
      "name": "setCtrlAddress2",
      "outputs": [],
      "payable": false,
      "stateMutability": "nonpayable",
      "type": "function"
    },
    {
      "constant": false,
      "inputs": [],
      "name": "pause",
      "outputs": [
        {
          "name": "",
          "type": "bool"
        }
      ],
      "payable": false,
      "stateMutability": "nonpayable",
      "type": "function"
    },
    {
      "constant": false,
      "inputs": [],
      "name": "resume",
      "outputs": [
        {
          "name": "",
          "type": "bool"
        }
      ],
      "payable": false,
      "stateMutability": "nonpayable",
      "type": "function"
    }
  ],
  "bytecode": "0x60806040523480156200001157600080fd5b5060405160208062001ebf833981018060405281019080805190602001909291905050506040805190810160405280600a81526020017f4576656e74546f6b656e000000000000000000000000000000000000000000008152506040805190810160405280600281526020017f4554000000000000000000000000000000000000000000000000000000000000815250601261271060008460009080519060200190620000c09291906200024f565b508360019080519060200190620000d99291906200024f565b5082600260006101000a81548160ff021916908360ff160217905550600a90506200011e828460ff16830a620002136401000000000262001b4d176401000000009004565b600381905550505050505033600460006101000a81548173ffffffffffffffffffffffffffffffffffffffff021916908373ffffffffffffffffffffffffffffffffffffffff16021790555080600560006101000a81548173ffffffffffffffffffffffffffffffffffffffff021916908373ffffffffffffffffffffffffffffffffffffffff160217905550600354600660003373ffffffffffffffffffffffffffffffffffffffff1673ffffffffffffffffffffffffffffffffffffffff168152602001908152602001600020819055506000600560146101000a81548160ff02191690831515021790555050620002fe565b60008083141562000228576000905062000249565b81830290508183828115156200023a57fe5b041415156200024557fe5b8090505b92915050565b828054600181600116156101000203166002900490600052602060002090601f016020900481019282601f106200029257805160ff1916838001178555620002c3565b82800160010185558215620002c3579182015b82811115620002c2578251825591602001919060010190620002a5565b5b509050620002d29190620002d6565b5090565b620002fb91905b80821115620002f7576000816000905550600101620002dd565b5090565b90565b611bb1806200030e6000396000f3006080604052600436106100f1576000357c0100000000000000000000000000000000000000000000000000000000900463ffffffff168063046f7da2146100f657806306fdde0314610125578063095ea7b3146101b5578063162790551461021a57806318160ddd1461027557806323b872dd146102a05780633f35d033146103255780635ca49605146103a257806370a08231146103e55780638456cb591461043c5780638c349bff1461046b57806394e625bd146104ae57806395d89b4114610505578063a9059cbb14610595578063bfccbec8146105fa578063dd62ed3e14610651578063f08782fc146106c8575b600080fd5b34801561010257600080fd5b5061010b6106f9565b604051808215151515815260200191505060405180910390f35b34801561013157600080fd5b5061013a6107ed565b6040518080602001828103825283818151815260200191508051906020019080838360005b8381101561017a57808201518184015260208101905061015f565b50505050905090810190601f1680156101a75780820380516001836020036101000a031916815260200191505b509250505060405180910390f35b3480156101c157600080fd5b50610200600480360381019080803573ffffffffffffffffffffffffffffffffffffffff1690602001909291908035906020019092919050505061088f565b604051808215151515815260200191505060405180910390f35b34801561022657600080fd5b5061025b600480360381019080803573ffffffffffffffffffffffffffffffffffffffff169060200190929190505050610a64565b604051808215151515815260200191505060405180910390f35b34801561028157600080fd5b5061028a610a77565b6040518082815260200191505060405180910390f35b3480156102ac57600080fd5b5061030b600480360381019080803573ffffffffffffffffffffffffffffffffffffffff169060200190929190803573ffffffffffffffffffffffffffffffffffffffff16906020019092919080359060200190929190505050610a81565b604051808215151515815260200191505060405180910390f35b34801561033157600080fd5b50610388600480360381019080803573ffffffffffffffffffffffffffffffffffffffff16906020019092919080359060200190929190803590602001908201803590602001919091929391929390505050610e96565b604051808215151515815260200191505060405180910390f35b3480156103ae57600080fd5b506103e3600480360381019080803573ffffffffffffffffffffffffffffffffffffffff16906020019092919050505061130c565b005b3480156103f157600080fd5b50610426600480360381019080803573ffffffffffffffffffffffffffffffffffffffff1690602001909291905050506113ac565b6040518082815260200191505060405180910390f35b34801561044857600080fd5b506104516113f5565b604051808215151515815260200191505060405180910390f35b34801561047757600080fd5b506104ac600480360381019080803573ffffffffffffffffffffffffffffffffffffffff1690602001909291905050506114e8565b005b3480156104ba57600080fd5b506104c3611588565b604051808273ffffffffffffffffffffffffffffffffffffffff1673ffffffffffffffffffffffffffffffffffffffff16815260200191505060405180910390f35b34801561051157600080fd5b5061051a6115b2565b6040518080602001828103825283818151815260200191508051906020019080838360005b8381101561055a57808201518184015260208101905061053f565b50505050905090810190601f1680156105875780820380516001836020036101000a031916815260200191505b509250505060405180910390f35b3480156105a157600080fd5b506105e0600480360381019080803573ffffffffffffffffffffffffffffffffffffffff16906020019092919080359060200190929190505050611654565b604051808215151515815260200191505060405180910390f35b34801561060657600080fd5b5061060f611a50565b604051808273ffffffffffffffffffffffffffffffffffffffff1673ffffffffffffffffffffffffffffffffffffffff16815260200191505060405180910390f35b34801561065d57600080fd5b506106b2600480360381019080803573ffffffffffffffffffffffffffffffffffffffff169060200190929190803573ffffffffffffffffffffffffffffffffffffffff169060200190929190505050611a7a565b6040518082815260200191505060405180910390f35b3480156106d457600080fd5b506106dd611b01565b604051808260ff1660ff16815260200191505060405180910390f35b6000600460009054906101000a900473ffffffffffffffffffffffffffffffffffffffff1673ffffffffffffffffffffffffffffffffffffffff163373ffffffffffffffffffffffffffffffffffffffff1614806107a45750600560009054906101000a900473ffffffffffffffffffffffffffffffffffffffff1673ffffffffffffffffffffffffffffffffffffffff163373ffffffffffffffffffffffffffffffffffffffff16145b15156107af57600080fd5b600560149054906101000a900460ff161515156107cb57600080fd5b6001600560146101000a81548160ff0219169083151502179055506001905090565b606060008054600181600116156101000203166002900480601f0160208091040260200160405190810160405280929190818152602001828054600181600116156101000203166002900480156108855780601f1061085a57610100808354040283529160200191610885565b820191906000526020600020905b81548152906001019060200180831161086857829003601f168201915b5050505050905090565b6000600560149054906101000a900460ff1615156108ac57600080fd5b61093b82600760003373ffffffffffffffffffffffffffffffffffffffff1673ffffffffffffffffffffffffffffffffffffffff16815260200190815260200160002060008673ffffffffffffffffffffffffffffffffffffffff1673ffffffffffffffffffffffffffffffffffffffff16815260200190815260200160002054611b1890919063ffffffff16565b600760003373ffffffffffffffffffffffffffffffffffffffff1673ffffffffffffffffffffffffffffffffffffffff16815260200190815260200160002060008573ffffffffffffffffffffffffffffffffffffffff1673ffffffffffffffffffffffffffffffffffffffff168152602001908152602001600020819055507f8c5be1e5ebec7d5bd14f71427d1e84f3dd0314c0f7b2291e5b200ac8c7c3b925338484604051808473ffffffffffffffffffffffffffffffffffffffff1673ffffffffffffffffffffffffffffffffffffffff1681526020018373ffffffffffffffffffffffffffffffffffffffff1673ffffffffffffffffffffffffffffffffffffffff168152602001828152602001935050505060405180910390a16001905092915050565b600080823b905060008111915050919050565b6000600354905090565b6000600560149054906101000a900460ff161515610a9e57600080fd5b600073ffffffffffffffffffffffffffffffffffffffff168373ffffffffffffffffffffffffffffffffffffffff1614151515610ada57600080fd5b81600660008673ffffffffffffffffffffffffffffffffffffffff1673ffffffffffffffffffffffffffffffffffffffff1681526020019081526020016000205410151515610b2857600080fd5b81600760008673ffffffffffffffffffffffffffffffffffffffff1673ffffffffffffffffffffffffffffffffffffffff16815260200190815260200160002060003373ffffffffffffffffffffffffffffffffffffffff1673ffffffffffffffffffffffffffffffffffffffff1681526020019081526020016000205410151515610bb357600080fd5b610c0582600660008773ffffffffffffffffffffffffffffffffffffffff1673ffffffffffffffffffffffffffffffffffffffff16815260200190815260200160002054611b3490919063ffffffff16565b600660008673ffffffffffffffffffffffffffffffffffffffff1673ffffffffffffffffffffffffffffffffffffffff16815260200190815260200160002081905550610c9a82600660008673ffffffffffffffffffffffffffffffffffffffff1673ffffffffffffffffffffffffffffffffffffffff16815260200190815260200160002054611b1890919063ffffffff16565b600660008573ffffffffffffffffffffffffffffffffffffffff1673ffffffffffffffffffffffffffffffffffffffff16815260200190815260200160002081905550610d6c82600760008773ffffffffffffffffffffffffffffffffffffffff1673ffffffffffffffffffffffffffffffffffffffff16815260200190815260200160002060003373ffffffffffffffffffffffffffffffffffffffff1673ffffffffffffffffffffffffffffffffffffffff16815260200190815260200160002054611b3490919063ffffffff16565b600760008673ffffffffffffffffffffffffffffffffffffffff1673ffffffffffffffffffffffffffffffffffffffff16815260200190815260200160002060003373ffffffffffffffffffffffffffffffffffffffff1673ffffffffffffffffffffffffffffffffffffffff168152602001908152602001600020819055507fddf252ad1be2c89b69c2b068fc378daa952ba7f163c4a11628f55a4df523b3ef848484604051808473ffffffffffffffffffffffffffffffffffffffff1673ffffffffffffffffffffffffffffffffffffffff1681526020018373ffffffffffffffffffffffffffffffffffffffff1673ffffffffffffffffffffffffffffffffffffffff168152602001828152602001935050505060405180910390a1600190509392505050565b600080600560149054906101000a900460ff161515610eb457600080fd5b600085111515610ec357600080fd5b84600660003373ffffffffffffffffffffffffffffffffffffffff1673ffffffffffffffffffffffffffffffffffffffff1681526020019081526020016000205410151515610f1157600080fd5b610f1a86610a64565b1515610f2557600080fd5b610f7785600660003373ffffffffffffffffffffffffffffffffffffffff1673ffffffffffffffffffffffffffffffffffffffff16815260200190815260200160002054611b3490919063ffffffff16565b600660003373ffffffffffffffffffffffffffffffffffffffff1673ffffffffffffffffffffffffffffffffffffffff1681526020019081526020016000208190555061100c85600660008973ffffffffffffffffffffffffffffffffffffffff1673ffffffffffffffffffffffffffffffffffffffff16815260200190815260200160002054611b1890919063ffffffff16565b600660008873ffffffffffffffffffffffffffffffffffffffff1673ffffffffffffffffffffffffffffffffffffffff168152602001908152602001600020819055506110de85600760003373ffffffffffffffffffffffffffffffffffffffff1673ffffffffffffffffffffffffffffffffffffffff16815260200190815260200160002060008973ffffffffffffffffffffffffffffffffffffffff1673ffffffffffffffffffffffffffffffffffffffff16815260200190815260200160002054611b3490919063ffffffff16565b600760003373ffffffffffffffffffffffffffffffffffffffff1673ffffffffffffffffffffffffffffffffffffffff16815260200190815260200160002060008873ffffffffffffffffffffffffffffffffffffffff1673ffffffffffffffffffffffffffffffffffffffff168152602001908152602001600020819055508590508073ffffffffffffffffffffffffffffffffffffffff1663c0ee0b8a338787876040518563ffffffff167c0100000000000000000000000000000000000000000000000000000000028152600401808573ffffffffffffffffffffffffffffffffffffffff1673ffffffffffffffffffffffffffffffffffffffff168152602001848152602001806020018281038252848482818152602001925080828437820191505095505050505050600060405180830381600087803b15801561122657600080fd5b505af115801561123a573d6000803e3d6000fd5b505050507fe19260aff97b920c7df27010903aeb9c8d2be5d310a2c67824cf3f15396e4c163387878787604051808673ffffffffffffffffffffffffffffffffffffffff1673ffffffffffffffffffffffffffffffffffffffff1681526020018573ffffffffffffffffffffffffffffffffffffffff1673ffffffffffffffffffffffffffffffffffffffff1681526020018481526020018060200182810382528484828181526020019250808284378201915050965050505050505060405180910390a16001915050949350505050565b600460009054906101000a900473ffffffffffffffffffffffffffffffffffffffff1673ffffffffffffffffffffffffffffffffffffffff163373ffffffffffffffffffffffffffffffffffffffff1614151561136857600080fd5b80600460006101000a81548173ffffffffffffffffffffffffffffffffffffffff021916908373ffffffffffffffffffffffffffffffffffffffff16021790555050565b6000600660008373ffffffffffffffffffffffffffffffffffffffff1673ffffffffffffffffffffffffffffffffffffffff168152602001908152602001600020549050919050565b6000600460009054906101000a900473ffffffffffffffffffffffffffffffffffffffff1673ffffffffffffffffffffffffffffffffffffffff163373ffffffffffffffffffffffffffffffffffffffff1614806114a05750600560009054906101000a900473ffffffffffffffffffffffffffffffffffffffff1673ffffffffffffffffffffffffffffffffffffffff163373ffffffffffffffffffffffffffffffffffffffff16145b15156114ab57600080fd5b600560149054906101000a900460ff1615156114c657600080fd5b6001600560146101000a81548160ff0219169083151502179055506001905090565b600560009054906101000a900473ffffffffffffffffffffffffffffffffffffffff1673ffffffffffffffffffffffffffffffffffffffff163373ffffffffffffffffffffffffffffffffffffffff1614151561154457600080fd5b80600560006101000a81548173ffffffffffffffffffffffffffffffffffffffff021916908373ffffffffffffffffffffffffffffffffffffffff16021790555050565b6000600460009054906101000a900473ffffffffffffffffffffffffffffffffffffffff16905090565b606060018054600181600116156101000203166002900480601f01602080910402602001604051908101604052809291908181526020018280546001816001161561010002031660029004801561164a5780601f1061161f5761010080835404028352916020019161164a565b820191906000526020600020905b81548152906001019060200180831161162d57829003601f168201915b5050505050905090565b6000600560149054906101000a900460ff16151561167157600080fd5b81600660003373ffffffffffffffffffffffffffffffffffffffff1673ffffffffffffffffffffffffffffffffffffffff16815260200190815260200160002054101515156116bf57600080fd5b6000821115156116ce57600080fd5b6116d783610a64565b1515156116e357600080fd5b81600760003373ffffffffffffffffffffffffffffffffffffffff1673ffffffffffffffffffffffffffffffffffffffff16815260200190815260200160002060008573ffffffffffffffffffffffffffffffffffffffff1673ffffffffffffffffffffffffffffffffffffffff168152602001908152602001600020541015151561176e57600080fd5b6117c082600660003373ffffffffffffffffffffffffffffffffffffffff1673ffffffffffffffffffffffffffffffffffffffff16815260200190815260200160002054611b3490919063ffffffff16565b600660003373ffffffffffffffffffffffffffffffffffffffff1673ffffffffffffffffffffffffffffffffffffffff1681526020019081526020016000208190555061185582600660008673ffffffffffffffffffffffffffffffffffffffff1673ffffffffffffffffffffffffffffffffffffffff16815260200190815260200160002054611b1890919063ffffffff16565b600660008573ffffffffffffffffffffffffffffffffffffffff1673ffffffffffffffffffffffffffffffffffffffff1681526020019081526020016000208190555061192782600760003373ffffffffffffffffffffffffffffffffffffffff1673ffffffffffffffffffffffffffffffffffffffff16815260200190815260200160002060008673ffffffffffffffffffffffffffffffffffffffff1673ffffffffffffffffffffffffffffffffffffffff16815260200190815260200160002054611b3490919063ffffffff16565b600760003373ffffffffffffffffffffffffffffffffffffffff1673ffffffffffffffffffffffffffffffffffffffff16815260200190815260200160002060008573ffffffffffffffffffffffffffffffffffffffff1673ffffffffffffffffffffffffffffffffffffffff168152602001908152602001600020819055507fddf252ad1be2c89b69c2b068fc378daa952ba7f163c4a11628f55a4df523b3ef338484604051808473ffffffffffffffffffffffffffffffffffffffff1673ffffffffffffffffffffffffffffffffffffffff1681526020018373ffffffffffffffffffffffffffffffffffffffff1673ffffffffffffffffffffffffffffffffffffffff168152602001828152602001935050505060405180910390a16001905092915050565b6000600560009054906101000a900473ffffffffffffffffffffffffffffffffffffffff16905090565b6000600760008473ffffffffffffffffffffffffffffffffffffffff1673ffffffffffffffffffffffffffffffffffffffff16815260200190815260200160002060008373ffffffffffffffffffffffffffffffffffffffff1673ffffffffffffffffffffffffffffffffffffffff16815260200190815260200160002054905092915050565b6000600260009054906101000a900460ff16905090565b60008183019050828110151515611b2b57fe5b80905092915050565b6000828211151515611b4257fe5b818303905092915050565b600080831415611b605760009050611b7f565b8183029050818382811515611b7157fe5b04141515611b7b57fe5b8090505b929150505600a165627a7a723058204679b96e8a5d2793c919f68e8432660fe90a6c26b15c15265e0724c8fa42980a0029",
  "source": "pragma solidity ^0.4.24;\n\n//Source code for event token (ET)\n\nimport \"./StandardToken.sol\";\nimport \"./ERC20.sol\";\nimport \"./ERC223.sol\";\nimport \"./ERC223ReceivingContract.sol\";\n\ncontract EventToken is StandardToken(\"EventToken\", \"ET\", 18, 10000), ERC20, ERC223{\n\n  using SafeMath for uint256;\n  address private _controller1;\n  address private _controller2;\n  bool private _paused;\n\n  // MaxLimit of uint256\n  uint256 constant MAX_LIMIT = 2**256-1;\n\n  // Mapping to store addresses and balances\n  mapping (address => uint256) internal _balanceOf;\n\n  // Nested Mapping to store allowances\n  mapping (address => mapping (address => uint256)) internal _allowance;\n\n  constructor (address _ctrl2) public{\n    _controller1 = msg.sender;\n    _controller2 = _ctrl2;\n    _balanceOf[msg.sender] = _totalSupply;\n    _paused = false;\n  }\n\n  modifier onlyCtrlLevel{\n      require(msg.sender == _controller1 || msg.sender == _controller2);\n      _;\n  }\n\n  modifier onlyCtrl1{\n      require(msg.sender == _controller1);\n      _;\n  }\n\n  modifier onlyCtrl2{\n      require(msg.sender == _controller2);\n      _;\n  }\n\n  modifier isPaused{\n      require(!_paused);\n      _;\n  }\n\n  modifier isNotPaused{\n      require(_paused);\n      _;\n  }\n\n  function balanceOf(address _owner) public view returns (uint256){\n    return _balanceOf[_owner];\n  }\n\n  /// @notice send `_value` token to `_to` from `msg.sender`\n  /// @param _to The address of the recipient\n  /// @param _value The amount of token to be transferred\n  /// @return Whether the transfer was successful or not\n  function transfer(address _to, uint256 _value) external isNotPaused returns (bool){\n    require(_balanceOf[msg.sender] >= _value);\n    require(_value>0);\n    require(!isContract(_to));\n    require(_allowance[msg.sender][_to] >= _value);\n    _balanceOf[msg.sender] = _balanceOf[msg.sender].sub(_value);\n    _balanceOf[_to] = _balanceOf[_to].add(_value);\n    _allowance[msg.sender][_to] = _allowance[msg.sender][_to].sub(_value);\n    emit Transfer(msg.sender, _to, _value);\n    return true;\n\n  }\n\n  /// @notice send `_value` token to `_to` from `msg.sender`\n  /// @param _to The address of the recipient\n  /// @param _value The amount of token to be transferred\n  /// @param _data Data that is encoded along with the transaction\n  /// @return Whether the transfer was successful or not\n  function transferToContract(address _to, uint256 _value, bytes _data) external isNotPaused returns (bool){\n    require(_value > 0);\n    require(_balanceOf[msg.sender] >= _value);\n    require(isContract(_to));\n    _balanceOf[msg.sender] = _balanceOf[msg.sender].sub(_value);\n    _balanceOf[_to] = _balanceOf[_to].add(_value);\n    _allowance[msg.sender][_to] = _allowance[msg.sender][_to].sub(_value);\n    ERC223ReceivingContract _contract = ERC223ReceivingContract(_to);\n    _contract.tokenFallback(msg.sender, _value, _data);\n    emit Transfer(msg.sender, _to, _value, _data);\n    return true;\n  }\n\n  /// @notice send `_value` token to `_to` from `_from` on the condition it is approved by `_from`\n  /// @param _from The address of the sender\n  /// @param _to The address of the recipient\n  /// @param _value The amount of token to be transferred\n  /// @return Whether the transfer was successful or not\n  function transferFrom(address _from, address _to, uint256 _value) external isNotPaused returns (bool){\n    require(_to != address(0));\n    require(_balanceOf[_from] >= _value);\n    require(_allowance[_from][msg.sender] >= _value);\n    _balanceOf[_from] = _balanceOf[_from].sub(_value);\n    _balanceOf[_to] = _balanceOf[_to].add(_value);\n    _allowance[_from][msg.sender] = _allowance[_from][msg.sender].sub(_value);\n    emit Transfer(_from, _to, _value);\n    return true;\n  }\n\n  /// @notice `msg.sender` approves `_spender` to spend `_value` tokens\n  /// @param _spender The address of the account able to transfer the tokens\n  /// @param _value The amount of tokens to be approved for transfer\n  /// @return Whether the approval was successful or not\n  function approve(address _spender, uint256 _value) external isNotPaused returns (bool){\n    _allowance[msg.sender][_spender] = _allowance[msg.sender][_spender].add(_value);\n    emit Approval(msg.sender, _spender, _value);\n    return true;\n  }\n\n  /// @param _owner The address of the account owning tokens\n  /// @param _spender The address of the account able to transfer the tokens\n  /// @return Amount of remaining tokens allowed to spent\n  function allowance(address _owner, address _spender) public view returns (uint256){\n    return _allowance[_owner][_spender];\n  }\n\n  /// @param _address The ethereum address to be verified\n  /// @return Amount of remaining tokens allowed to spent\n  function isContract(address _address) public view returns (bool){\n      uint256 codeLength;\n      assembly{\n          codeLength := extcodesize(_address)\n      }\n      return codeLength > 0;\n  }\n\n  function getCtrlAddress1() public view returns (address){\n      return _controller1;\n  }\n\n  function getCtrlAddress2() public view returns (address){\n      return _controller2;\n  }\n\n  function setCtrlAddress1(address _newCtrl1) external onlyCtrl1{\n      _controller1 = _newCtrl1;\n  }\n\n  function setCtrlAddress2(address _newCtrl2) external onlyCtrl2{\n      _controller2 = _newCtrl2;\n  }\n\n  function pause() external onlyCtrlLevel returns (bool){\n    require(_paused);\n    _paused = true;\n    return true;\n  }\n\n  function resume() external onlyCtrlLevel returns (bool){\n    require(!_paused);\n    _paused = true;\n    return true;\n  }\n\n}\n",
  "sourcePath": "/home/keshik/Documents/GitHub/event-protocol-contracts/contracts/EventToken.sol",
  "compiler": {
    "name": "solc",
    "version": "0.4.24+commit.e67f0147.Emscripten.clang"
  },
  "schemaVersion": "2.0.1",
  "updatedAt": "2018-07-11T05:48:22.829Z"
}