{
  "contractName": "EventContract",
  "abi": [
    {
      "inputs": [
        {
          "name": "eventName",
          "type": "string"
        },
        {
          "name": "eventLocation",
          "type": "string"
        },
        {
          "name": "eventDate",
          "type": "uint256"
        },
        {
          "name": "buyer",
          "type": "address"
        },
        {
          "name": "allowedPostponements",
          "type": "uint8"
        },
        {
          "name": "buyerEscrow",
          "type": "uint256"
        },
        {
          "name": "sellerEscrow",
          "type": "uint256"
        },
        {
          "name": "sellerAdvanceFee",
          "type": "uint256"
        },
        {
          "name": "buyerCancellationFee",
          "type": "uint256"
        },
        {
          "name": "buyerContributionPoolAmount",
          "type": "uint256"
        },
        {
          "name": "sellerContributionPoolAmount",
          "type": "uint256"
        },
        {
          "name": "eventPaymentAmount",
          "type": "uint256"
        },
        {
          "name": "eventProtocolAddress",
          "type": "address"
        },
        {
          "name": "eventTokenAddress",
          "type": "address"
        }
      ],
      "payable": false,
      "stateMutability": "nonpayable",
      "type": "constructor"
    },
    {
      "constant": false,
      "inputs": [
        {
          "name": "_from",
          "type": "address"
        },
        {
          "name": "_value",
          "type": "uint256"
        },
        {
          "name": "_data",
          "type": "bytes"
        }
      ],
      "name": "tokenFallback",
      "outputs": [],
      "payable": false,
      "stateMutability": "nonpayable",
      "type": "function"
    },
    {
      "constant": true,
      "inputs": [],
      "name": "getBuyerActivationAmount",
      "outputs": [
        {
          "name": "",
          "type": "uint256"
        }
      ],
      "payable": false,
      "stateMutability": "view",
      "type": "function"
    },
    {
      "constant": true,
      "inputs": [],
      "name": "getSellerActivationAmount",
      "outputs": [
        {
          "name": "",
          "type": "uint256"
        }
      ],
      "payable": false,
      "stateMutability": "view",
      "type": "function"
    },
    {
      "constant": false,
      "inputs": [
        {
          "name": "newEventDate",
          "type": "uint256"
        }
      ],
      "name": "submitPostponeRequest",
      "outputs": [
        {
          "name": "",
          "type": "bool"
        }
      ],
      "payable": false,
      "stateMutability": "nonpayable",
      "type": "function"
    },
    {
      "constant": false,
      "inputs": [
        {
          "name": "_bool",
          "type": "bool"
        }
      ],
      "name": "submitResolveRequest",
      "outputs": [
        {
          "name": "",
          "type": "bool"
        }
      ],
      "payable": false,
      "stateMutability": "nonpayable",
      "type": "function"
    },
    {
      "constant": false,
      "inputs": [],
      "name": "acknowledgeCancelRequest",
      "outputs": [
        {
          "name": "",
          "type": "bool"
        }
      ],
      "payable": false,
      "stateMutability": "nonpayable",
      "type": "function"
    },
    {
      "constant": false,
      "inputs": [
        {
          "name": "_bool",
          "type": "bool"
        }
      ],
      "name": "completeResolve",
      "outputs": [
        {
          "name": "",
          "type": "bool"
        }
      ],
      "payable": false,
      "stateMutability": "nonpayable",
      "type": "function"
    },
    {
      "constant": false,
      "inputs": [
        {
          "name": "contributor",
          "type": "address"
        }
      ],
      "name": "addContributers",
      "outputs": [
        {
          "name": "",
          "type": "bool"
        }
      ],
      "payable": false,
      "stateMutability": "nonpayable",
      "type": "function"
    },
    {
      "constant": false,
      "inputs": [
        {
          "name": "contributor",
          "type": "address"
        },
        {
          "name": "_tokens",
          "type": "uint256"
        }
      ],
      "name": "acknowledgeContributors",
      "outputs": [
        {
          "name": "",
          "type": "bool"
        }
      ],
      "payable": false,
      "stateMutability": "nonpayable",
      "type": "function"
    },
    {
      "constant": false,
      "inputs": [
        {
          "name": "_target",
          "type": "address"
        }
      ],
      "name": "payOutContributors",
      "outputs": [
        {
          "name": "",
          "type": "bool"
        }
      ],
      "payable": false,
      "stateMutability": "nonpayable",
      "type": "function"
    },
    {
      "constant": false,
      "inputs": [
        {
          "name": "arbiter",
          "type": "address"
        },
        {
          "name": "_bool",
          "type": "bool"
        }
      ],
      "name": "addArbiters",
      "outputs": [
        {
          "name": "",
          "type": "bool"
        }
      ],
      "payable": false,
      "stateMutability": "nonpayable",
      "type": "function"
    },
    {
      "constant": true,
      "inputs": [],
      "name": "getEventState",
      "outputs": [
        {
          "name": "",
          "type": "uint8"
        }
      ],
      "payable": false,
      "stateMutability": "view",
      "type": "function"
    },
    {
      "constant": true,
      "inputs": [],
      "name": "getBuyer",
      "outputs": [
        {
          "name": "",
          "type": "address"
        }
      ],
      "payable": false,
      "stateMutability": "view",
      "type": "function"
    },
    {
      "constant": true,
      "inputs": [],
      "name": "getSeller",
      "outputs": [
        {
          "name": "",
          "type": "address"
        }
      ],
      "payable": false,
      "stateMutability": "view",
      "type": "function"
    },
    {
      "constant": true,
      "inputs": [],
      "name": "getEventDate",
      "outputs": [
        {
          "name": "",
          "type": "uint256"
        }
      ],
      "payable": false,
      "stateMutability": "view",
      "type": "function"
    },
    {
      "constant": true,
      "inputs": [],
      "name": "getEventName",
      "outputs": [
        {
          "name": "",
          "type": "string"
        }
      ],
      "payable": false,
      "stateMutability": "view",
      "type": "function"
    },
    {
      "constant": true,
      "inputs": [],
      "name": "getEventLocation",
      "outputs": [
        {
          "name": "",
          "type": "string"
        }
      ],
      "payable": false,
      "stateMutability": "view",
      "type": "function"
    },
    {
      "constant": true,
      "inputs": [],
      "name": "getSellerAdvanceFee",
      "outputs": [
        {
          "name": "",
          "type": "uint256"
        }
      ],
      "payable": false,
      "stateMutability": "view",
      "type": "function"
    },
    {
      "constant": true,
      "inputs": [],
      "name": "getBuyerCancellationFee",
      "outputs": [
        {
          "name": "",
          "type": "uint256"
        }
      ],
      "payable": false,
      "stateMutability": "view",
      "type": "function"
    },
    {
      "constant": true,
      "inputs": [],
      "name": "getEventCreationDate",
      "outputs": [
        {
          "name": "",
          "type": "uint256"
        }
      ],
      "payable": false,
      "stateMutability": "view",
      "type": "function"
    },
    {
      "constant": true,
      "inputs": [],
      "name": "getEventProtocolAddress",
      "outputs": [
        {
          "name": "",
          "type": "address"
        }
      ],
      "payable": false,
      "stateMutability": "view",
      "type": "function"
    },
    {
      "constant": true,
      "inputs": [],
      "name": "getEventProtocolCharges",
      "outputs": [
        {
          "name": "",
          "type": "uint256"
        }
      ],
      "payable": false,
      "stateMutability": "view",
      "type": "function"
    },
    {
      "constant": true,
      "inputs": [],
      "name": "getEventPaymentCharges",
      "outputs": [
        {
          "name": "",
          "type": "uint256"
        }
      ],
      "payable": false,
      "stateMutability": "view",
      "type": "function"
    },
    {
      "constant": true,
      "inputs": [
        {
          "name": "addr",
          "type": "address"
        }
      ],
      "name": "getContributionPoolAmounts",
      "outputs": [
        {
          "name": "",
          "type": "uint256"
        }
      ],
      "payable": false,
      "stateMutability": "view",
      "type": "function"
    },
    {
      "constant": true,
      "inputs": [
        {
          "name": "target",
          "type": "address"
        },
        {
          "name": "contributor",
          "type": "address"
        }
      ],
      "name": "getContributionAmounts",
      "outputs": [
        {
          "name": "",
          "type": "uint256"
        }
      ],
      "payable": false,
      "stateMutability": "view",
      "type": "function"
    },
    {
      "constant": true,
      "inputs": [
        {
          "name": "target",
          "type": "address"
        }
      ],
      "name": "getContributorPoolSize",
      "outputs": [
        {
          "name": "",
          "type": "uint256"
        }
      ],
      "payable": false,
      "stateMutability": "view",
      "type": "function"
    },
    {
      "constant": true,
      "inputs": [
        {
          "name": "addr",
          "type": "address"
        }
      ],
      "name": "getEscrowAmounts",
      "outputs": [
        {
          "name": "",
          "type": "uint256"
        }
      ],
      "payable": false,
      "stateMutability": "view",
      "type": "function"
    },
    {
      "constant": true,
      "inputs": [],
      "name": "getTokenAddress",
      "outputs": [
        {
          "name": "",
          "type": "address"
        }
      ],
      "payable": false,
      "stateMutability": "view",
      "type": "function"
    },
    {
      "constant": true,
      "inputs": [],
      "name": "getSellerSecurityDeposit",
      "outputs": [
        {
          "name": "",
          "type": "uint256"
        }
      ],
      "payable": false,
      "stateMutability": "view",
      "type": "function"
    },
    {
      "constant": true,
      "inputs": [],
      "name": "testThis",
      "outputs": [
        {
          "name": "",
          "type": "string"
        }
      ],
      "payable": false,
      "stateMutability": "view",
      "type": "function"
    }
  ],
  "bytecode": "0x60806040523480156200001157600080fd5b5060405162005c4438038062005c448339810180604052810190808051820192919060200180518201929190602001805190602001909291908051906020019092919080519060200190929190805190602001909291908051906020019092919080519060200190929190805190602001909291908051906020019092919080519060200190929190805190602001909291908051906020019092919080519060200190929190505050428c111515620000ca57600080fd5b60038a60ff16101515620000dd57600080fd5b600073ffffffffffffffffffffffffffffffffffffffff168b73ffffffffffffffffffffffffffffffffffffffff16141515156200011a57600080fd5b6000891115156200012a57600080fd5b6000881115156200013a57600080fd5b6000871115156200014a57600080fd5b6000861115156200015a57600080fd5b6000851115156200016a57600080fd5b6000841115156200017a57600080fd5b6000831115156200018a57600080fd5b8d60009080519060200190620001a2929190620005a7565b508c60019080519060200190620001bb929190620005a7565b508b600281905550426003819055508a600460006101000a81548173ffffffffffffffffffffffffffffffffffffffff021916908373ffffffffffffffffffffffffffffffffffffffff16021790555033600560006101000a81548173ffffffffffffffffffffffffffffffffffffffff021916908373ffffffffffffffffffffffffffffffffffffffff16021790555089600560146101000a81548160ff021916908360ff1602179055508860066000600460009054906101000a900473ffffffffffffffffffffffffffffffffffffffff1673ffffffffffffffffffffffffffffffffffffffff1673ffffffffffffffffffffffffffffffffffffffff168152602001908152602001600020819055508760066000600560009054906101000a900473ffffffffffffffffffffffffffffffffffffffff1673ffffffffffffffffffffffffffffffffffffffff1673ffffffffffffffffffffffffffffffffffffffff16815260200190815260200160002081905550866007819055508560088190555084600d6000600460009054906101000a900473ffffffffffffffffffffffffffffffffffffffff1673ffffffffffffffffffffffffffffffffffffffff1673ffffffffffffffffffffffffffffffffffffffff1681526020019081526020016000208190555083600d6000600560009054906101000a900473ffffffffffffffffffffffffffffffffffffffff1673ffffffffffffffffffffffffffffffffffffffff1673ffffffffffffffffffffffffffffffffffffffff1681526020019081526020016000208190555081601060016101000a81548173ffffffffffffffffffffffffffffffffffffffff021916908373ffffffffffffffffffffffffffffffffffffffff16021790555080601160006101000a81548173ffffffffffffffffffffffffffffffffffffffff021916908373ffffffffffffffffffffffffffffffffffffffff1602179055506000601060006101000a81548160ff02191690836006811115620004af57fe5b0217905550620004f5620004d98460056200053a640100000000026200557a176401000000009004565b6064620005766401000000000262004961176401000000009004565b60138190555062000520601354846200058d6401000000000262004977179091906401000000009004565b600f81905550505050505050505050505050505062000656565b6000808314156200054f576000905062000570565b81830290508183828115156200056157fe5b041415156200056c57fe5b8090505b92915050565b600081838115156200058457fe5b04905092915050565b60008282111515156200059c57fe5b818303905092915050565b828054600181600116156101000203166002900490600052602060002090601f016020900481019282601f10620005ea57805160ff19168380011785556200061b565b828001600101855582156200061b579182015b828111156200061a578251825591602001919060010190620005fd565b5b5090506200062a91906200062e565b5090565b6200065391905b808211156200064f57600081600090555060010162000635565b5090565b90565b6155de80620006666000396000f300608060405260043610610180576000357c0100000000000000000000000000000000000000000000000000000000900463ffffffff16806310fe9ae8146101855780631375e2e8146101dc5780632076e2621461020b5780632bf0eae6146102365780632c292aea1461028d57806334cc0872146102e457806335b58caf1461030f57806339c5b6991461036a57806342fe6277146103c5578063505eb9a61461042c57806350ce9a8114610491578063575836a3146104e8578063600ecdbf1461051357806360388de41461055a578063603daf9a146105b15780637d9cf28314610608578063886555fc1461069857806390be6c1d146106c35780639b3481e914610753578063accaf7791461077e578063b81e43fc146107c3578063bb230a3214610853578063bec768251461087e578063c0ee0b8a146108a9578063c2902c031461093c578063c3a9555114610967578063cea7d8f3146109ae578063d092096014610a25578063dbd0e1b614610a50578063f750790114610aa7575b600080fd5b34801561019157600080fd5b5061019a610ae0565b604051808273ffffffffffffffffffffffffffffffffffffffff1673ffffffffffffffffffffffffffffffffffffffff16815260200191505060405180910390f35b3480156101e857600080fd5b506101f1610b0a565b604051808215151515815260200191505060405180910390f35b34801561021757600080fd5b50610220610c68565b6040518082815260200191505060405180910390f35b34801561024257600080fd5b5061024b610d58565b604051808273ffffffffffffffffffffffffffffffffffffffff1673ffffffffffffffffffffffffffffffffffffffff16815260200191505060405180910390f35b34801561029957600080fd5b506102ce600480360381019080803573ffffffffffffffffffffffffffffffffffffffff169060200190929190505050610d82565b6040518082815260200191505060405180910390f35b3480156102f057600080fd5b506102f9610e7f565b6040518082815260200191505060405180910390f35b34801561031b57600080fd5b50610350600480360381019080803573ffffffffffffffffffffffffffffffffffffffff169060200190929190505050610e9d565b604051808215151515815260200191505060405180910390f35b34801561037657600080fd5b506103ab600480360381019080803573ffffffffffffffffffffffffffffffffffffffff16906020019092919050505061110a565b604051808215151515815260200191505060405180910390f35b3480156103d157600080fd5b50610412600480360381019080803573ffffffffffffffffffffffffffffffffffffffff1690602001909291908035151590602001909291905050506118d4565b604051808215151515815260200191505060405180910390f35b34801561043857600080fd5b50610477600480360381019080803573ffffffffffffffffffffffffffffffffffffffff16906020019092919080359060200190929190505050612963565b604051808215151515815260200191505060405180910390f35b34801561049d57600080fd5b506104d2600480360381019080803573ffffffffffffffffffffffffffffffffffffffff169060200190929190505050612b45565b6040518082815260200191505060405180910390f35b3480156104f457600080fd5b506104fd612c6c565b6040518082815260200191505060405180910390f35b34801561051f57600080fd5b50610540600480360381019080803515159060200190929190505050612c76565b604051808215151515815260200191505060405180910390f35b34801561056657600080fd5b5061059b600480360381019080803573ffffffffffffffffffffffffffffffffffffffff169060200190929190505050612eb0565b6040518082815260200191505060405180910390f35b3480156105bd57600080fd5b506105c6612fad565b604051808273ffffffffffffffffffffffffffffffffffffffff1673ffffffffffffffffffffffffffffffffffffffff16815260200191505060405180910390f35b34801561061457600080fd5b5061061d612fd7565b6040518080602001828103825283818151815260200191508051906020019080838360005b8381101561065d578082015181840152602081019050610642565b50505050905090810190601f16801561068a5780820380516001836020036101000a031916815260200191505b509250505060405180910390f35b3480156106a457600080fd5b506106ad613079565b6040518082815260200191505060405180910390f35b3480156106cf57600080fd5b506106d8613083565b6040518080602001828103825283818151815260200191508051906020019080838360005b838110156107185780820151818401526020810190506106fd565b50505050905090810190601f1680156107455780820380516001836020036101000a031916815260200191505b509250505060405180910390f35b34801561075f57600080fd5b5061076861312c565b6040518082815260200191505060405180910390f35b34801561078a57600080fd5b506107a960048036038101908080359060200190929190505050613221565b604051808215151515815260200191505060405180910390f35b3480156107cf57600080fd5b506107d8613394565b6040518080602001828103825283818151815260200191508051906020019080838360005b838110156108185780820151818401526020810190506107fd565b50505050905090810190601f1680156108455780820380516001836020036101000a031916815260200191505b509250505060405180910390f35b34801561085f57600080fd5b50610868613436565b6040518082815260200191505060405180910390f35b34801561088a57600080fd5b50610893613440565b6040518082815260200191505060405180910390f35b3480156108b557600080fd5b5061093a600480360381019080803573ffffffffffffffffffffffffffffffffffffffff16906020019092919080359060200190929190803590602001908201803590602001908080601f016020809104026020016040519081016040528093929190818152602001838380828437820191505050505050919291929050505061344a565b005b34801561094857600080fd5b506109516139e1565b6040518082815260200191505060405180910390f35b34801561097357600080fd5b50610994600480360381019080803515159060200190929190505050613b36565b604051808215151515815260200191505060405180910390f35b3480156109ba57600080fd5b50610a0f600480360381019080803573ffffffffffffffffffffffffffffffffffffffff169060200190929190803573ffffffffffffffffffffffffffffffffffffffff169060200190929190505050613daf565b6040518082815260200191505060405180910390f35b348015610a3157600080fd5b50610a3a613e36565b6040518082815260200191505060405180910390f35b348015610a5c57600080fd5b50610a65613e40565b604051808273ffffffffffffffffffffffffffffffffffffffff1673ffffffffffffffffffffffffffffffffffffffff16815260200191505060405180910390f35b348015610ab357600080fd5b50610abc613e6a565b60405180826006811115610acc57fe5b60ff16815260200191505060405180910390f35b6000601160009054906101000a900473ffffffffffffffffffffffffffffffffffffffff16905090565b6000600460009054906101000a900473ffffffffffffffffffffffffffffffffffffffff1673ffffffffffffffffffffffffffffffffffffffff163373ffffffffffffffffffffffffffffffffffffffff161480610bb55750600560009054906101000a900473ffffffffffffffffffffffffffffffffffffffff1673ffffffffffffffffffffffffffffffffffffffff163373ffffffffffffffffffffffffffffffffffffffff16145b1515610bc057600080fd5b60036006811115610bcd57fe5b601060009054906101000a900460ff166006811115610be857fe5b141515610bf457600080fd5b42600254111515610c0457600080fd5b6000601760003373ffffffffffffffffffffffffffffffffffffffff1673ffffffffffffffffffffffffffffffffffffffff16815260200190815260200160002060006101000a81548160ff021916908315150217905550610c64613e81565b5090565b6000610d53600854610d45600d6000600560009054906101000a900473ffffffffffffffffffffffffffffffffffffffff1673ffffffffffffffffffffffffffffffffffffffff1673ffffffffffffffffffffffffffffffffffffffff1681526020019081526020016000205460066000600560009054906101000a900473ffffffffffffffffffffffffffffffffffffffff1673ffffffffffffffffffffffffffffffffffffffff1673ffffffffffffffffffffffffffffffffffffffff1681526020019081526020016000205461494590919063ffffffff16565b61494590919063ffffffff16565b905090565b6000601060019054906101000a900473ffffffffffffffffffffffffffffffffffffffff16905090565b6000600460009054906101000a900473ffffffffffffffffffffffffffffffffffffffff1673ffffffffffffffffffffffffffffffffffffffff168273ffffffffffffffffffffffffffffffffffffffff161480610e2d5750600560009054906101000a900473ffffffffffffffffffffffffffffffffffffffff1673ffffffffffffffffffffffffffffffffffffffff168273ffffffffffffffffffffffffffffffffffffffff16145b1515610e3857600080fd5b600660008373ffffffffffffffffffffffffffffffffffffffff1673ffffffffffffffffffffffffffffffffffffffff168152602001908152602001600020549050919050565b6000610e98600f5460135461494590919063ffffffff16565b905090565b6000600460009054906101000a900473ffffffffffffffffffffffffffffffffffffffff1673ffffffffffffffffffffffffffffffffffffffff163373ffffffffffffffffffffffffffffffffffffffff161480610f485750600560009054906101000a900473ffffffffffffffffffffffffffffffffffffffff1673ffffffffffffffffffffffffffffffffffffffff163373ffffffffffffffffffffffffffffffffffffffff16145b1515610f5357600080fd5b60016006811115610f6057fe5b601060009054906101000a900460ff166006811115610f7b57fe5b141515610f8757600080fd5b6000600d60003373ffffffffffffffffffffffffffffffffffffffff1673ffffffffffffffffffffffffffffffffffffffff16815260200190815260200160002054111515610fd557600080fd5b600460009054906101000a900473ffffffffffffffffffffffffffffffffffffffff1673ffffffffffffffffffffffffffffffffffffffff163373ffffffffffffffffffffffffffffffffffffffff16141561109a57600b8290806001815401808255809150509060018203906000526020600020016000909192909190916101000a81548173ffffffffffffffffffffffffffffffffffffffff021916908373ffffffffffffffffffffffffffffffffffffffff1602179055505060019050611105565b600c8290806001815401808255809150509060018203906000526020600020016000909192909190916101000a81548173ffffffffffffffffffffffffffffffffffffffff021916908373ffffffffffffffffffffffffffffffffffffffff16021790555050600190505b919050565b6000806000600460009054906101000a900473ffffffffffffffffffffffffffffffffffffffff1673ffffffffffffffffffffffffffffffffffffffff163373ffffffffffffffffffffffffffffffffffffffff1614806111b85750600560009054906101000a900473ffffffffffffffffffffffffffffffffffffffff1673ffffffffffffffffffffffffffffffffffffffff163373ffffffffffffffffffffffffffffffffffffffff16145b15156111c357600080fd5b600460009054906101000a900473ffffffffffffffffffffffffffffffffffffffff1673ffffffffffffffffffffffffffffffffffffffff168473ffffffffffffffffffffffffffffffffffffffff16141561157357600090505b600b8054905081101561156e57600b8181548110151561123a57fe5b9060005260206000200160009054906101000a900473ffffffffffffffffffffffffffffffffffffffff169150601160009054906101000a900473ffffffffffffffffffffffffffffffffffffffff1673ffffffffffffffffffffffffffffffffffffffff1663095ea7b383600e60003373ffffffffffffffffffffffffffffffffffffffff1673ffffffffffffffffffffffffffffffffffffffff16815260200190815260200160002060008673ffffffffffffffffffffffffffffffffffffffff1673ffffffffffffffffffffffffffffffffffffffff168152602001908152602001600020546040518363ffffffff167c0100000000000000000000000000000000000000000000000000000000028152600401808373ffffffffffffffffffffffffffffffffffffffff1673ffffffffffffffffffffffffffffffffffffffff16815260200182815260200192505050602060405180830381600087803b1580156113a857600080fd5b505af11580156113bc573d6000803e3d6000fd5b505050506040513d60208110156113d257600080fd5b810190808051906020019092919050505050601160009054906101000a900473ffffffffffffffffffffffffffffffffffffffff1673ffffffffffffffffffffffffffffffffffffffff1663a9059cbb83600e60003373ffffffffffffffffffffffffffffffffffffffff1673ffffffffffffffffffffffffffffffffffffffff16815260200190815260200160002060008673ffffffffffffffffffffffffffffffffffffffff1673ffffffffffffffffffffffffffffffffffffffff168152602001908152602001600020546040518363ffffffff167c0100000000000000000000000000000000000000000000000000000000028152600401808373ffffffffffffffffffffffffffffffffffffffff1673ffffffffffffffffffffffffffffffffffffffff16815260200182815260200192505050602060405180830381600087803b15801561152557600080fd5b505af1158015611539573d6000803e3d6000fd5b505050506040513d602081101561154f57600080fd5b810190808051906020019092919050505050808060010191505061121e565b6118c9565b600090505b600b805490508110156118c857600c8181548110151561159457fe5b9060005260206000200160009054906101000a900473ffffffffffffffffffffffffffffffffffffffff169150601160009054906101000a900473ffffffffffffffffffffffffffffffffffffffff1673ffffffffffffffffffffffffffffffffffffffff1663095ea7b383600e60003373ffffffffffffffffffffffffffffffffffffffff1673ffffffffffffffffffffffffffffffffffffffff16815260200190815260200160002060008673ffffffffffffffffffffffffffffffffffffffff1673ffffffffffffffffffffffffffffffffffffffff168152602001908152602001600020546040518363ffffffff167c0100000000000000000000000000000000000000000000000000000000028152600401808373ffffffffffffffffffffffffffffffffffffffff1673ffffffffffffffffffffffffffffffffffffffff16815260200182815260200192505050602060405180830381600087803b15801561170257600080fd5b505af1158015611716573d6000803e3d6000fd5b505050506040513d602081101561172c57600080fd5b810190808051906020019092919050505050601160009054906101000a900473ffffffffffffffffffffffffffffffffffffffff1673ffffffffffffffffffffffffffffffffffffffff1663a9059cbb83600e60003373ffffffffffffffffffffffffffffffffffffffff1673ffffffffffffffffffffffffffffffffffffffff16815260200190815260200160002060008673ffffffffffffffffffffffffffffffffffffffff1673ffffffffffffffffffffffffffffffffffffffff168152602001908152602001600020546040518363ffffffff167c0100000000000000000000000000000000000000000000000000000000028152600401808373ffffffffffffffffffffffffffffffffffffffff1673ffffffffffffffffffffffffffffffffffffffff16815260200182815260200192505050602060405180830381600087803b15801561187f57600080fd5b505af1158015611893573d6000803e3d6000fd5b505050506040513d60208110156118a957600080fd5b8101908080519060200190929190505050508080600101915050611578565b5b600192505050919050565b60008060008060008060008060176000600460009054906101000a900473ffffffffffffffffffffffffffffffffffffffff1673ffffffffffffffffffffffffffffffffffffffff1673ffffffffffffffffffffffffffffffffffffffff16815260200190815260200160002060009054906101000a900460ff16151589151514156119c55760098a90806001815401808255809150509060018203906000526020600020016000909192909190916101000a81548173ffffffffffffffffffffffffffffffffffffffff021916908373ffffffffffffffffffffffffffffffffffffffff16021790555050611a2c565b600a8a90806001815401808255809150509060018203906000526020600020016000909192909190916101000a81548173ffffffffffffffffffffffffffffffffffffffff021916908373ffffffffffffffffffffffffffffffffffffffff160217905550505b6005611a4b600a80549050600a8054905061494590919063ffffffff16565b141561295557600a80549050600980549050111561246c57611a6b6139e1565b9650611add60066000600560009054906101000a900473ffffffffffffffffffffffffffffffffffffffff1673ffffffffffffffffffffffffffffffffffffffff1673ffffffffffffffffffffffffffffffffffffffff16815260200190815260200160002054600980549050614961565b9550611b4b60066000600560009054906101000a900473ffffffffffffffffffffffffffffffffffffffff1673ffffffffffffffffffffffffffffffffffffffff1673ffffffffffffffffffffffffffffffffffffffff168152602001908152602001600020546002614961565b9450846007541115611f6957611b6c8560075461497790919063ffffffff16565b9350611c63601354611bfc600d6000600460009054906101000a900473ffffffffffffffffffffffffffffffffffffffff1673ffffffffffffffffffffffffffffffffffffffff1673ffffffffffffffffffffffffffffffffffffffff16815260200190815260200160002054611bee6008548a61494590919063ffffffff16565b61494590919063ffffffff16565b600d6000600560009054906101000a900473ffffffffffffffffffffffffffffffffffffffff1673ffffffffffffffffffffffffffffffffffffffff1673ffffffffffffffffffffffffffffffffffffffff16815260200190815260200160002054614990565b5086841015611dea57601160009054906101000a900473ffffffffffffffffffffffffffffffffffffffff1673ffffffffffffffffffffffffffffffffffffffff166323b872dd600560009054906101000a900473ffffffffffffffffffffffffffffffffffffffff16600460009054906101000a900473ffffffffffffffffffffffffffffffffffffffff16876040518463ffffffff167c0100000000000000000000000000000000000000000000000000000000028152600401808473ffffffffffffffffffffffffffffffffffffffff1673ffffffffffffffffffffffffffffffffffffffff1681526020018373ffffffffffffffffffffffffffffffffffffffff1673ffffffffffffffffffffffffffffffffffffffff1681526020018281526020019350505050602060405180830381600087803b158015611da957600080fd5b505af1158015611dbd573d6000803e3d6000fd5b505050506040513d6020811015611dd357600080fd5b810190808051906020019092919050505050611f64565b601160009054906101000a900473ffffffffffffffffffffffffffffffffffffffff1673ffffffffffffffffffffffffffffffffffffffff166323b872dd600560009054906101000a900473ffffffffffffffffffffffffffffffffffffffff16600460009054906101000a900473ffffffffffffffffffffffffffffffffffffffff168a6040518463ffffffff167c0100000000000000000000000000000000000000000000000000000000028152600401808473ffffffffffffffffffffffffffffffffffffffff1673ffffffffffffffffffffffffffffffffffffffff1681526020018373ffffffffffffffffffffffffffffffffffffffff1673ffffffffffffffffffffffffffffffffffffffff1681526020018281526020019350505050602060405180830381600087803b158015611f2757600080fd5b505af1158015611f3b573d6000803e3d6000fd5b505050506040513d6020811015611f5157600080fd5b8101908080519060200190929190505050505b6121d4565b611ff185611fe360075460066000600560009054906101000a900473ffffffffffffffffffffffffffffffffffffffff1673ffffffffffffffffffffffffffffffffffffffff1673ffffffffffffffffffffffffffffffffffffffff1681526020019081526020016000205461497790919063ffffffff16565b61497790919063ffffffff16565b60066000600560009054906101000a900473ffffffffffffffffffffffffffffffffffffffff1673ffffffffffffffffffffffffffffffffffffffff1673ffffffffffffffffffffffffffffffffffffffff168152602001908152602001600020819055506121d26013546120f8600d6000600460009054906101000a900473ffffffffffffffffffffffffffffffffffffffff1673ffffffffffffffffffffffffffffffffffffffff1673ffffffffffffffffffffffffffffffffffffffff168152602001908152602001600020546120ea896120dc60085460075461494590919063ffffffff16565b61494590919063ffffffff16565b61494590919063ffffffff16565b6121cd600d6000600560009054906101000a900473ffffffffffffffffffffffffffffffffffffffff1673ffffffffffffffffffffffffffffffffffffffff1673ffffffffffffffffffffffffffffffffffffffff1681526020019081526020016000205460066000600560009054906101000a900473ffffffffffffffffffffffffffffffffffffffff1673ffffffffffffffffffffffffffffffffffffffff1673ffffffffffffffffffffffffffffffffffffffff1681526020019081526020016000205461494590919063ffffffff16565b614990565b505b600092505b600a8054905083101561246757601160009054906101000a900473ffffffffffffffffffffffffffffffffffffffff1673ffffffffffffffffffffffffffffffffffffffff1663095ea7b3600a8581548110151561223357fe5b9060005260206000200160009054906101000a900473ffffffffffffffffffffffffffffffffffffffff16886040518363ffffffff167c0100000000000000000000000000000000000000000000000000000000028152600401808373ffffffffffffffffffffffffffffffffffffffff1673ffffffffffffffffffffffffffffffffffffffff16815260200182815260200192505050602060405180830381600087803b1580156122e457600080fd5b505af11580156122f8573d6000803e3d6000fd5b505050506040513d602081101561230e57600080fd5b810190808051906020019092919050505050601160009054906101000a900473ffffffffffffffffffffffffffffffffffffffff1673ffffffffffffffffffffffffffffffffffffffff1663a9059cbb600a8581548110151561236d57fe5b9060005260206000200160009054906101000a900473ffffffffffffffffffffffffffffffffffffffff16886040518363ffffffff167c0100000000000000000000000000000000000000000000000000000000028152600401808373ffffffffffffffffffffffffffffffffffffffff1673ffffffffffffffffffffffffffffffffffffffff16815260200182815260200192505050602060405180830381600087803b15801561241e57600080fd5b505af1158015612432573d6000803e3d6000fd5b505050506040513d602081101561244857600080fd5b81019080805190602001909291905050505082806001019350506121d9565b612954565b6125be61254460066000600560009054906101000a900473ffffffffffffffffffffffffffffffffffffffff1673ffffffffffffffffffffffffffffffffffffffff1673ffffffffffffffffffffffffffffffffffffffff16815260200190815260200160002054600d6000600560009054906101000a900473ffffffffffffffffffffffffffffffffffffffff1673ffffffffffffffffffffffffffffffffffffffff1673ffffffffffffffffffffffffffffffffffffffff1681526020019081526020016000205461494590919063ffffffff16565b6125b060066000600460009054906101000a900473ffffffffffffffffffffffffffffffffffffffff1673ffffffffffffffffffffffffffffffffffffffff1673ffffffffffffffffffffffffffffffffffffffff168152602001908152602001600020546002614961565b61494590919063ffffffff16565b9150612636600d6000600460009054906101000a900473ffffffffffffffffffffffffffffffffffffffff1673ffffffffffffffffffffffffffffffffffffffff1673ffffffffffffffffffffffffffffffffffffffff16815260200190815260200160002054600f5461494590919063ffffffff16565b90506126a860066000600460009054906101000a900473ffffffffffffffffffffffffffffffffffffffff1673ffffffffffffffffffffffffffffffffffffffff1673ffffffffffffffffffffffffffffffffffffffff16815260200190815260200160002054600a80549050614961565b9550600092505b600a8054905083101561293d57601160009054906101000a900473ffffffffffffffffffffffffffffffffffffffff1673ffffffffffffffffffffffffffffffffffffffff1663095ea7b3600a8581548110151561270957fe5b9060005260206000200160009054906101000a900473ffffffffffffffffffffffffffffffffffffffff16886040518363ffffffff167c0100000000000000000000000000000000000000000000000000000000028152600401808373ffffffffffffffffffffffffffffffffffffffff1673ffffffffffffffffffffffffffffffffffffffff16815260200182815260200192505050602060405180830381600087803b1580156127ba57600080fd5b505af11580156127ce573d6000803e3d6000fd5b505050506040513d60208110156127e457600080fd5b810190808051906020019092919050505050601160009054906101000a900473ffffffffffffffffffffffffffffffffffffffff1673ffffffffffffffffffffffffffffffffffffffff1663a9059cbb600a8581548110151561284357fe5b9060005260206000200160009054906101000a900473ffffffffffffffffffffffffffffffffffffffff16886040518363ffffffff167c0100000000000000000000000000000000000000000000000000000000028152600401808373ffffffffffffffffffffffffffffffffffffffff1673ffffffffffffffffffffffffffffffffffffffff16815260200182815260200192505050602060405180830381600087803b1580156128f457600080fd5b505af1158015612908573d6000803e3d6000fd5b505050506040513d602081101561291e57600080fd5b81019080805190602001909291905050505082806001019350506126af565b61294a6013548284614990565b5060019750612956565b5b5b5050505050505092915050565b6000600460009054906101000a900473ffffffffffffffffffffffffffffffffffffffff1673ffffffffffffffffffffffffffffffffffffffff163373ffffffffffffffffffffffffffffffffffffffff161480612a0e5750600560009054906101000a900473ffffffffffffffffffffffffffffffffffffffff1673ffffffffffffffffffffffffffffffffffffffff163373ffffffffffffffffffffffffffffffffffffffff16145b1515612a1957600080fd5b81600d60003373ffffffffffffffffffffffffffffffffffffffff1673ffffffffffffffffffffffffffffffffffffffff1681526020019081526020016000205410151515612a6757600080fd5b81600e60003373ffffffffffffffffffffffffffffffffffffffff1673ffffffffffffffffffffffffffffffffffffffff16815260200190815260200160002060008573ffffffffffffffffffffffffffffffffffffffff1673ffffffffffffffffffffffffffffffffffffffff16815260200190815260200160002081905550612b3a82600d60003373ffffffffffffffffffffffffffffffffffffffff1673ffffffffffffffffffffffffffffffffffffffff1681526020019081526020016000205461497790919063ffffffff16565b506001905092915050565b6000600460009054906101000a900473ffffffffffffffffffffffffffffffffffffffff1673ffffffffffffffffffffffffffffffffffffffff168273ffffffffffffffffffffffffffffffffffffffff161480612bf05750600560009054906101000a900473ffffffffffffffffffffffffffffffffffffffff1673ffffffffffffffffffffffffffffffffffffffff168273ffffffffffffffffffffffffffffffffffffffff16145b1515612bfb57600080fd5b600460009054906101000a900473ffffffffffffffffffffffffffffffffffffffff1673ffffffffffffffffffffffffffffffffffffffff168273ffffffffffffffffffffffffffffffffffffffff161415612c5e57600b805490509050612c67565b600c8054905090505b919050565b6000600254905090565b6000600460009054906101000a900473ffffffffffffffffffffffffffffffffffffffff1673ffffffffffffffffffffffffffffffffffffffff163373ffffffffffffffffffffffffffffffffffffffff161480612d215750600560009054906101000a900473ffffffffffffffffffffffffffffffffffffffff1673ffffffffffffffffffffffffffffffffffffffff163373ffffffffffffffffffffffffffffffffffffffff16145b1515612d2c57600080fd5b60016006811115612d3957fe5b601060009054906101000a900460ff166006811115612d5457fe5b141515612d6057600080fd5b600015158215151415612e1b57426002541115612de15733601260006101000a81548173ffffffffffffffffffffffffffffffffffffffff021916908373ffffffffffffffffffffffffffffffffffffffff1602179055506003601060006101000a81548160ff02191690836006811115612dd757fe5b0217905550612e16565b42600254101515612df157600080fd5b6004601060006101000a81548160ff02191690836006811115612e1057fe5b02179055505b612e50565b42600254101515612e2b57600080fd5b6004601060006101000a81548160ff02191690836006811115612e4a57fe5b02179055505b81601760003373ffffffffffffffffffffffffffffffffffffffff1673ffffffffffffffffffffffffffffffffffffffff16815260200190815260200160002060006101000a81548160ff02191690831515021790555060019050919050565b6000600460009054906101000a900473ffffffffffffffffffffffffffffffffffffffff1673ffffffffffffffffffffffffffffffffffffffff168273ffffffffffffffffffffffffffffffffffffffff161480612f5b5750600560009054906101000a900473ffffffffffffffffffffffffffffffffffffffff1673ffffffffffffffffffffffffffffffffffffffff168273ffffffffffffffffffffffffffffffffffffffff16145b1515612f6657600080fd5b600d60008373ffffffffffffffffffffffffffffffffffffffff1673ffffffffffffffffffffffffffffffffffffffff168152602001908152602001600020549050919050565b6000600460009054906101000a900473ffffffffffffffffffffffffffffffffffffffff16905090565b606060018054600181600116156101000203166002900480601f01602080910402602001604051908101604052809291908181526020018280546001816001161561010002031660029004801561306f5780601f106130445761010080835404028352916020019161306f565b820191906000526020600020905b81548152906001019060200180831161305257829003601f168201915b5050505050905090565b6000600754905090565b60606001600681111561309257fe5b601060009054906101000a900460ff1660068111156130ad57fe5b14156130f0576040805190810160405280600481526020017f59454148000000000000000000000000000000000000000000000000000000008152509050613129565b6040805190810160405280600481526020017f4655434b0000000000000000000000000000000000000000000000000000000081525090505b90565b600061321c600d6000600460009054906101000a900473ffffffffffffffffffffffffffffffffffffffff1673ffffffffffffffffffffffffffffffffffffffff1673ffffffffffffffffffffffffffffffffffffffff1681526020019081526020016000205461320e61319e610e7f565b60066000600460009054906101000a900473ffffffffffffffffffffffffffffffffffffffff1673ffffffffffffffffffffffffffffffffffffffff1673ffffffffffffffffffffffffffffffffffffffff1681526020019081526020016000205461494590919063ffffffff16565b61494590919063ffffffff16565b905090565b6000600460009054906101000a900473ffffffffffffffffffffffffffffffffffffffff1673ffffffffffffffffffffffffffffffffffffffff163373ffffffffffffffffffffffffffffffffffffffff1614806132cc5750600560009054906101000a900473ffffffffffffffffffffffffffffffffffffffff1673ffffffffffffffffffffffffffffffffffffffff163373ffffffffffffffffffffffffffffffffffffffff16145b15156132d757600080fd5b6000600560149054906101000a900460ff1660ff161115156132f857600080fd5b60016016600084815260200190815260200160002060003373ffffffffffffffffffffffffffffffffffffffff1673ffffffffffffffffffffffffffffffffffffffff16815260200190815260200160002060006101000a81548160ff0219169083151502179055506002601060006101000a81548160ff0219169083600681111561338057fe5b021790555061338e826150eb565b50919050565b606060008054600181600116156101000203166002900480601f01602080910402602001604051908101604052809291908181526020018280546001816001161561010002031660029004801561342c5780601f106134015761010080835404028352916020019161342c565b820191906000526020600020905b81548152906001019060200180831161340f57829003601f168201915b5050505050905090565b6000601354905090565b6000600354905090565b613452615477565b600080600681111561346057fe5b601060009054906101000a900460ff16600681111561347b57fe5b14151561348757600080fd5b84826000019073ffffffffffffffffffffffffffffffffffffffff16908173ffffffffffffffffffffffffffffffffffffffff16815250508382602001818152505082826040018190525060188360008151811015156134e357fe5b9060200101517f010000000000000000000000000000000000000000000000000000000000000090047f0100000000000000000000000000000000000000000000000000000000000000027f0100000000000000000000000000000000000000000000000000000000000000900463ffffffff169060020a02601084600181518110151561356d57fe5b9060200101517f010000000000000000000000000000000000000000000000000000000000000090047f0100000000000000000000000000000000000000000000000000000000000000027f0100000000000000000000000000000000000000000000000000000000000000900463ffffffff169060020a0260088560028151811015156135f757fe5b9060200101517f010000000000000000000000000000000000000000000000000000000000000090047f0100000000000000000000000000000000000000000000000000000000000000027f0100000000000000000000000000000000000000000000000000000000000000900463ffffffff169060020a0285600381518110151561367f57fe5b9060200101517f010000000000000000000000000000000000000000000000000000000000000090047f0100000000000000000000000000000000000000000000000000000000000000027f010000000000000000000000000000000000000000000000000000000000000090040101019050807c01000000000000000000000000000000000000000000000000000000000282606001907bffffffffffffffffffffffffffffffffffffffffffffffffffffffff191690817bffffffffffffffffffffffffffffffffffffffffffffffffffffffff1916815250506137ad84601460008873ffffffffffffffffffffffffffffffffffffffff1673ffffffffffffffffffffffffffffffffffffffff1681526020019081526020016000205461494590919063ffffffff16565b601460008773ffffffffffffffffffffffffffffffffffffffff1673ffffffffffffffffffffffffffffffffffffffff168152602001908152602001600020819055506015829080600181540180825580915050906001820390600052602060002090600402016000909192909190915060008201518160000160006101000a81548173ffffffffffffffffffffffffffffffffffffffff021916908373ffffffffffffffffffffffffffffffffffffffff16021790555060208201518160010155604082015181600201908051906020019061388b9291906154d5565b5060608201518160030160006101000a81548163ffffffff02191690837c0100000000000000000000000000000000000000000000000000000000900402179055505050506138d861312c565b60146000600460009054906101000a900473ffffffffffffffffffffffffffffffffffffffff1673ffffffffffffffffffffffffffffffffffffffff1673ffffffffffffffffffffffffffffffffffffffff16815260200190815260200160002054101580156139b0575061394b610c68565b60146000600560009054906101000a900473ffffffffffffffffffffffffffffffffffffffff1673ffffffffffffffffffffffffffffffffffffffff1673ffffffffffffffffffffffffffffffffffffffff1681526020019081526020016000205410155b156139da576001601060006101000a81548160ff021916908360068111156139d457fe5b02179055505b5050505050565b6000601160009054906101000a900473ffffffffffffffffffffffffffffffffffffffff1673ffffffffffffffffffffffffffffffffffffffff1663dd62ed3e600560009054906101000a900473ffffffffffffffffffffffffffffffffffffffff16306040518363ffffffff167c0100000000000000000000000000000000000000000000000000000000028152600401808373ffffffffffffffffffffffffffffffffffffffff1673ffffffffffffffffffffffffffffffffffffffff1681526020018273ffffffffffffffffffffffffffffffffffffffff1673ffffffffffffffffffffffffffffffffffffffff16815260200192505050602060405180830381600087803b158015613af657600080fd5b505af1158015613b0a573d6000803e3d6000fd5b505050506040513d6020811015613b2057600080fd5b8101908080519060200190929190505050905090565b6000600460009054906101000a900473ffffffffffffffffffffffffffffffffffffffff1673ffffffffffffffffffffffffffffffffffffffff163373ffffffffffffffffffffffffffffffffffffffff161480613be15750600560009054906101000a900473ffffffffffffffffffffffffffffffffffffffff1673ffffffffffffffffffffffffffffffffffffffff163373ffffffffffffffffffffffffffffffffffffffff16145b1515613bec57600080fd5b60046006811115613bf957fe5b601060009054906101000a900460ff166006811115613c1457fe5b141515613c2057600080fd5b42600254101515613c3057600080fd5b81601760003373ffffffffffffffffffffffffffffffffffffffff1673ffffffffffffffffffffffffffffffffffffffff16815260200190815260200160002060006101000a81548160ff02191690831515021790555060176000600560009054906101000a900473ffffffffffffffffffffffffffffffffffffffff1673ffffffffffffffffffffffffffffffffffffffff1673ffffffffffffffffffffffffffffffffffffffff16815260200190815260200160002060009054906101000a900460ff16151560176000600460009054906101000a900473ffffffffffffffffffffffffffffffffffffffff1673ffffffffffffffffffffffffffffffffffffffff1673ffffffffffffffffffffffffffffffffffffffff16815260200190815260200160002060009054906101000a900460ff1615151415613d8157613d77615299565b5060019050613daa565b6005601060006101000a81548160ff02191690836006811115613da057fe5b0217905550600090505b919050565b6000600e60008473ffffffffffffffffffffffffffffffffffffffff1673ffffffffffffffffffffffffffffffffffffffff16815260200190815260200160002060008373ffffffffffffffffffffffffffffffffffffffff1673ffffffffffffffffffffffffffffffffffffffff16815260200190815260200160002054905092915050565b6000600854905090565b6000600560009054906101000a900473ffffffffffffffffffffffffffffffffffffffff16905090565b6000601060009054906101000a900460ff16905090565b600080600080600060036006811115613e9657fe5b601060009054906101000a900460ff166006811115613eb157fe5b141515613ebd57600080fd5b42600254111515613ecd57600080fd5b6000151560176000600460009054906101000a900473ffffffffffffffffffffffffffffffffffffffff1673ffffffffffffffffffffffffffffffffffffffff1673ffffffffffffffffffffffffffffffffffffffff16815260200190815260200160002060009054906101000a900460ff161515141515613f4e57600080fd5b6000151560176000600560009054906101000a900473ffffffffffffffffffffffffffffffffffffffff1673ffffffffffffffffffffffffffffffffffffffff1673ffffffffffffffffffffffffffffffffffffffff16815260200190815260200160002060009054906101000a900460ff161515141515613fcf57600080fd5b600460009054906101000a900473ffffffffffffffffffffffffffffffffffffffff1673ffffffffffffffffffffffffffffffffffffffff16601260009054906101000a900473ffffffffffffffffffffffffffffffffffffffff1673ffffffffffffffffffffffffffffffffffffffff1614156142205761411c600d6000600560009054906101000a900473ffffffffffffffffffffffffffffffffffffffff1673ffffffffffffffffffffffffffffffffffffffff1673ffffffffffffffffffffffffffffffffffffffff1681526020019081526020016000205460066000600560009054906101000a900473ffffffffffffffffffffffffffffffffffffffff1673ffffffffffffffffffffffffffffffffffffffff1673ffffffffffffffffffffffffffffffffffffffff1681526020019081526020016000205461494590919063ffffffff16565b9350614207600d6000600460009054906101000a900473ffffffffffffffffffffffffffffffffffffffff1673ffffffffffffffffffffffffffffffffffffffff1673ffffffffffffffffffffffffffffffffffffffff168152602001908152602001600020546141f960066000600460009054906101000a900473ffffffffffffffffffffffffffffffffffffffff1673ffffffffffffffffffffffffffffffffffffffff1673ffffffffffffffffffffffffffffffffffffffff16815260200190815260200160002054600f5461494590919063ffffffff16565b61494590919063ffffffff16565b92506142166013548486614990565b506001945061493e565b601160009054906101000a900473ffffffffffffffffffffffffffffffffffffffff1673ffffffffffffffffffffffffffffffffffffffff1663dd62ed3e600560009054906101000a900473ffffffffffffffffffffffffffffffffffffffff16306040518363ffffffff167c0100000000000000000000000000000000000000000000000000000000028152600401808373ffffffffffffffffffffffffffffffffffffffff1673ffffffffffffffffffffffffffffffffffffffff1681526020018273ffffffffffffffffffffffffffffffffffffffff1673ffffffffffffffffffffffffffffffffffffffff16815260200192505050602060405180830381600087803b15801561433357600080fd5b505af1158015614347573d6000803e3d6000fd5b505050506040513d602081101561435d57600080fd5b8101908080519060200190929190505050915060066000600560009054906101000a900473ffffffffffffffffffffffffffffffffffffffff1673ffffffffffffffffffffffffffffffffffffffff1673ffffffffffffffffffffffffffffffffffffffff1681526020019081526020016000205460075411156147dc5761445160066000600560009054906101000a900473ffffffffffffffffffffffffffffffffffffffff1673ffffffffffffffffffffffffffffffffffffffff1673ffffffffffffffffffffffffffffffffffffffff1681526020019081526020016000205460075461497790919063ffffffff16565b90506144d66013546144cf60085460066000600560009054906101000a900473ffffffffffffffffffffffffffffffffffffffff1673ffffffffffffffffffffffffffffffffffffffff1673ffffffffffffffffffffffffffffffffffffffff1681526020019081526020016000205461494590919063ffffffff16565b6000614990565b508181101561465d57601160009054906101000a900473ffffffffffffffffffffffffffffffffffffffff1673ffffffffffffffffffffffffffffffffffffffff166323b872dd600560009054906101000a900473ffffffffffffffffffffffffffffffffffffffff16600460009054906101000a900473ffffffffffffffffffffffffffffffffffffffff16846040518463ffffffff167c0100000000000000000000000000000000000000000000000000000000028152600401808473ffffffffffffffffffffffffffffffffffffffff1673ffffffffffffffffffffffffffffffffffffffff1681526020018373ffffffffffffffffffffffffffffffffffffffff1673ffffffffffffffffffffffffffffffffffffffff1681526020018281526020019350505050602060405180830381600087803b15801561461c57600080fd5b505af1158015614630573d6000803e3d6000fd5b505050506040513d602081101561464657600080fd5b8101908080519060200190929190505050506147d7565b601160009054906101000a900473ffffffffffffffffffffffffffffffffffffffff1673ffffffffffffffffffffffffffffffffffffffff166323b872dd600560009054906101000a900473ffffffffffffffffffffffffffffffffffffffff16600460009054906101000a900473ffffffffffffffffffffffffffffffffffffffff16856040518463ffffffff167c0100000000000000000000000000000000000000000000000000000000028152600401808473ffffffffffffffffffffffffffffffffffffffff1673ffffffffffffffffffffffffffffffffffffffff1681526020018373ffffffffffffffffffffffffffffffffffffffff1673ffffffffffffffffffffffffffffffffffffffff1681526020018281526020019350505050602060405180830381600087803b15801561479a57600080fd5b505af11580156147ae573d6000803e3d6000fd5b505050506040513d60208110156147c457600080fd5b8101908080519060200190929190505050505b61493d565b61485260075460066000600560009054906101000a900473ffffffffffffffffffffffffffffffffffffffff1673ffffffffffffffffffffffffffffffffffffffff1673ffffffffffffffffffffffffffffffffffffffff1681526020019081526020016000205461497790919063ffffffff16565b60066000600560009054906101000a900473ffffffffffffffffffffffffffffffffffffffff1673ffffffffffffffffffffffffffffffffffffffff1673ffffffffffffffffffffffffffffffffffffffff1681526020019081526020016000208190555061493b6013546148d460085460075461494590919063ffffffff16565b60066000600560009054906101000a900473ffffffffffffffffffffffffffffffffffffffff1673ffffffffffffffffffffffffffffffffffffffff1673ffffffffffffffffffffffffffffffffffffffff16815260200190815260200160002054614990565b505b5b5050505090565b6000818301905082811015151561495857fe5b80905092915050565b6000818381151561496e57fe5b04905092915050565b600082821115151561498557fe5b818303905092915050565b60006149bd600460009054906101000a900473ffffffffffffffffffffffffffffffffffffffff1661110a565b506149e9600560009054906101000a900473ffffffffffffffffffffffffffffffffffffffff1661110a565b50601160009054906101000a900473ffffffffffffffffffffffffffffffffffffffff1673ffffffffffffffffffffffffffffffffffffffff1663095ea7b3601060019054906101000a900473ffffffffffffffffffffffffffffffffffffffff16866040518363ffffffff167c0100000000000000000000000000000000000000000000000000000000028152600401808373ffffffffffffffffffffffffffffffffffffffff1673ffffffffffffffffffffffffffffffffffffffff16815260200182815260200192505050602060405180830381600087803b158015614ad157600080fd5b505af1158015614ae5573d6000803e3d6000fd5b505050506040513d6020811015614afb57600080fd5b810190808051906020019092919050505050601160009054906101000a900473ffffffffffffffffffffffffffffffffffffffff1673ffffffffffffffffffffffffffffffffffffffff1663a9059cbb601060019054906101000a900473ffffffffffffffffffffffffffffffffffffffff16866040518363ffffffff167c0100000000000000000000000000000000000000000000000000000000028152600401808373ffffffffffffffffffffffffffffffffffffffff1673ffffffffffffffffffffffffffffffffffffffff16815260200182815260200192505050602060405180830381600087803b158015614bf457600080fd5b505af1158015614c08573d6000803e3d6000fd5b505050506040513d6020811015614c1e57600080fd5b810190808051906020019092919050505050601160009054906101000a900473ffffffffffffffffffffffffffffffffffffffff1673ffffffffffffffffffffffffffffffffffffffff1663095ea7b3600560009054906101000a900473ffffffffffffffffffffffffffffffffffffffff16846040518363ffffffff167c0100000000000000000000000000000000000000000000000000000000028152600401808373ffffffffffffffffffffffffffffffffffffffff1673ffffffffffffffffffffffffffffffffffffffff16815260200182815260200192505050602060405180830381600087803b158015614d1757600080fd5b505af1158015614d2b573d6000803e3d6000fd5b505050506040513d6020811015614d4157600080fd5b810190808051906020019092919050505050601160009054906101000a900473ffffffffffffffffffffffffffffffffffffffff1673ffffffffffffffffffffffffffffffffffffffff1663a9059cbb600560009054906101000a900473ffffffffffffffffffffffffffffffffffffffff16846040518363ffffffff167c0100000000000000000000000000000000000000000000000000000000028152600401808373ffffffffffffffffffffffffffffffffffffffff1673ffffffffffffffffffffffffffffffffffffffff16815260200182815260200192505050602060405180830381600087803b158015614e3a57600080fd5b505af1158015614e4e573d6000803e3d6000fd5b505050506040513d6020811015614e6457600080fd5b810190808051906020019092919050505050601160009054906101000a900473ffffffffffffffffffffffffffffffffffffffff1673ffffffffffffffffffffffffffffffffffffffff1663095ea7b3600460009054906101000a900473ffffffffffffffffffffffffffffffffffffffff16856040518363ffffffff167c0100000000000000000000000000000000000000000000000000000000028152600401808373ffffffffffffffffffffffffffffffffffffffff1673ffffffffffffffffffffffffffffffffffffffff16815260200182815260200192505050602060405180830381600087803b158015614f5d57600080fd5b505af1158015614f71573d6000803e3d6000fd5b505050506040513d6020811015614f8757600080fd5b810190808051906020019092919050505050601160009054906101000a900473ffffffffffffffffffffffffffffffffffffffff1673ffffffffffffffffffffffffffffffffffffffff1663a9059cbb600460009054906101000a900473ffffffffffffffffffffffffffffffffffffffff16856040518363ffffffff167c0100000000000000000000000000000000000000000000000000000000028152600401808373ffffffffffffffffffffffffffffffffffffffff1673ffffffffffffffffffffffffffffffffffffffff16815260200182815260200192505050602060405180830381600087803b15801561508057600080fd5b505af1158015615094573d6000803e3d6000fd5b505050506040513d60208110156150aa57600080fd5b8101908080519060200190929190505050506006601060006101000a81548160ff021916908360068111156150db57fe5b0217905550600190509392505050565b600060011515601660008481526020019081526020016000206000600460009054906101000a900473ffffffffffffffffffffffffffffffffffffffff1673ffffffffffffffffffffffffffffffffffffffff1673ffffffffffffffffffffffffffffffffffffffff16815260200190815260200160002060009054906101000a900460ff16151514151561517f57600080fd5b60011515601660008481526020019081526020016000206000600560009054906101000a900473ffffffffffffffffffffffffffffffffffffffff1673ffffffffffffffffffffffffffffffffffffffff1673ffffffffffffffffffffffffffffffffffffffff16815260200190815260200160002060009054906101000a900460ff16151514151561521157600080fd5b816002819055506005601481819054906101000a900460ff16809291906001900391906101000a81548160ff021916908360ff160217905550506000600560149054906101000a900460ff1660ff1611151561526c57600080fd5b6001601060006101000a81548160ff0219169083600681111561528b57fe5b021790555060019050919050565b6000806000615387600d6000600560009054906101000a900473ffffffffffffffffffffffffffffffffffffffff1673ffffffffffffffffffffffffffffffffffffffff1673ffffffffffffffffffffffffffffffffffffffff1681526020019081526020016000205461537960066000600560009054906101000a900473ffffffffffffffffffffffffffffffffffffffff1673ffffffffffffffffffffffffffffffffffffffff1673ffffffffffffffffffffffffffffffffffffffff16815260200190815260200160002054600f5461494590919063ffffffff16565b61494590919063ffffffff16565b915061545e600d6000600460009054906101000a900473ffffffffffffffffffffffffffffffffffffffff1673ffffffffffffffffffffffffffffffffffffffff1673ffffffffffffffffffffffffffffffffffffffff1681526020019081526020016000205460066000600460009054906101000a900473ffffffffffffffffffffffffffffffffffffffff1673ffffffffffffffffffffffffffffffffffffffff1673ffffffffffffffffffffffffffffffffffffffff1681526020019081526020016000205461494590919063ffffffff16565b905061546d6013548284614990565b5060019250505090565b608060405190810160405280600073ffffffffffffffffffffffffffffffffffffffff168152602001600081526020016060815260200160007bffffffffffffffffffffffffffffffffffffffffffffffffffffffff191681525090565b828054600181600116156101000203166002900490600052602060002090601f016020900481019282601f1061551657805160ff1916838001178555615544565b82800160010185558215615544579182015b82811115615543578251825591602001919060010190615528565b5b5090506155519190615555565b5090565b61557791905b8082111561557357600081600090555060010161555b565b5090565b90565b60008083141561558d57600090506155ac565b818302905081838281151561559e57fe5b041415156155a857fe5b8090505b929150505600a165627a7a723058204c3367e3625386864c2aae1874ecb5b4d1373f190273dbe22a8a5bb54a6c8b0f0029",
  "source": "pragma solidity ^0.4.24;\n\nimport \"./EventToken.sol\";\n\ncontract EventContract{\n  using SafeMath for uint;\n  enum EVENTSTATE {NOTACTIVE, ACTIVE, POSTPONEMENT, CANCELLATION, REPORTING, DISPUTED, SETTLED}\n  string private _eventName;\n  string private _eventLocation;\n  uint private _eventDate;\n  uint private _eventCreationDate;\n  address private _buyer;\n  address private _seller;\n  uint8 private _noOfAllowedPostponements;\n  mapping(address => uint256) private _escrows;\n  uint256 private _sellerAdvanceFee;\n  uint256 private _buyerCancellationFee;\n  address[] private _arbiterAddressesBuyer;\n  address[] private _arbiterAddressesSeller;\n  address[] private _contributerAddressesBuyer;\n  address[] private _contributerAddressesSeller;\n  mapping(address => uint256) private _contributionPoolAmounts;\n  mapping(address => mapping(address => uint256)) private _contributersAcknowledgement;\n  uint private _eventPaymentAmount;\n  EVENTSTATE private _eventState;\n  address private _eventProtocolAddress;\n  EventToken private _ETContract;\n  address private _cancellingParty;\n  uint256 private _eventProtocolCharges;\n\n\n  struct TKN {\n   address sender;\n   uint256 value;\n   bytes data;\n   bytes4 sig;\n  }\n\n  mapping(address => uint256) internal _transferredAmounts;\n  TKN[] _transactionData;\n\n  mapping(uint => mapping(address => bool)) private _postPoneRequest;\n  mapping(address => bool) private _resolveEvent;\n\n  constructor (string eventName,\n    string eventLocation,\n    uint eventDate,\n    address buyer,\n    uint8 allowedPostponements,\n    uint buyerEscrow,\n    uint sellerEscrow,\n    uint sellerAdvanceFee,\n    uint buyerCancellationFee,\n    uint buyerContributionPoolAmount,\n    uint sellerContributionPoolAmount,\n    uint eventPaymentAmount,\n    address eventProtocolAddress,\n    address eventTokenAddress) public{\n\n      require(eventDate > now);\n      require(allowedPostponements < 3);\n      require(buyer != address(0));\n      require(buyerEscrow > 0);\n      require(sellerEscrow > 0);\n      require(sellerAdvanceFee > 0);\n      require(buyerCancellationFee > 0);\n      require(buyerContributionPoolAmount > 0);\n      require(sellerContributionPoolAmount > 0);\n      require(eventPaymentAmount > 0);\n      _eventName = eventName;\n      _eventLocation = eventLocation;\n      _eventDate = eventDate;\n      _eventCreationDate = now;\n      _buyer = buyer;\n      _seller = msg.sender;\n      _noOfAllowedPostponements = allowedPostponements;\n      _escrows[_buyer] = buyerEscrow;\n      _escrows[_seller] = sellerEscrow;\n      _sellerAdvanceFee = sellerAdvanceFee;\n      _buyerCancellationFee = buyerCancellationFee;\n      _contributionPoolAmounts[_buyer] = buyerContributionPoolAmount;\n      _contributionPoolAmounts[_seller] = sellerContributionPoolAmount;\n      _eventProtocolAddress = eventProtocolAddress;\n      _ETContract = EventToken(eventTokenAddress);\n      _eventState = EVENTSTATE.NOTACTIVE;\n      _eventProtocolCharges = SafeMath.div(SafeMath.mul(eventPaymentAmount, 5), 100);\n      _eventPaymentAmount = eventPaymentAmount.sub(_eventProtocolCharges);\n  }\n\n  modifier onlyBuyer{\n      require(msg.sender == _buyer);\n      _;\n  }\n\n  modifier onlySeller{\n      require(msg.sender == _seller);\n      _;\n  }\n\n  modifier onlyBuyerAndSeller{\n      require(msg.sender == _buyer || msg.sender == _seller);\n      _;\n  }\n\n  function tokenFallback(address _from, uint256 _value, bytes _data) public{\n      require(_eventState == EVENTSTATE.NOTACTIVE);\n      TKN memory tkn;\n      tkn.sender = _from;\n      tkn.value = _value;\n      tkn.data = _data;\n      uint32 u = uint32(_data[3]) + (uint32(_data[2]) << 8) + (uint32(_data[1]) << 16) + (uint32(_data[0]) << 24);\n      tkn.sig = bytes4(u);\n      _transferredAmounts[_from] = _transferredAmounts[_from].add(_value);\n      _transactionData.push(tkn);\n\n      if(_transferredAmounts[_buyer] >= getBuyerActivationAmount() && _transferredAmounts[_seller] >= getSellerActivationAmount()){\n        _eventState = EVENTSTATE.ACTIVE;\n      }\n  }\n\n  function getBuyerActivationAmount() public view returns (uint){\n      return _escrows[_buyer].add(getEventPaymentCharges()).add(_contributionPoolAmounts[_buyer]);\n  }\n\n  function getSellerActivationAmount() public view returns (uint){\n      return _escrows[_seller].add(_contributionPoolAmounts[_seller]).add(_buyerCancellationFee);\n  }\n\n  function submitPostponeRequest(uint newEventDate) public onlyBuyerAndSeller returns (bool){\n      require(_noOfAllowedPostponements >0);\n      _postPoneRequest[newEventDate][msg.sender] = true;\n      _eventState = EVENTSTATE.POSTPONEMENT;\n      postPoneEvent(newEventDate);\n  }\n\n  function postPoneEvent(uint newEventDate) internal returns (bool){\n      require(_postPoneRequest[newEventDate][_buyer] == true);\n      require(_postPoneRequest[newEventDate][_seller] == true);\n      _eventDate = newEventDate;\n      _noOfAllowedPostponements--;\n      require(_noOfAllowedPostponements >0);\n      _eventState = EVENTSTATE.ACTIVE;\n      return true;\n  }\n\n  function submitResolveRequest(bool _bool) public onlyBuyerAndSeller returns (bool){\n      require(_eventState == EVENTSTATE.ACTIVE);\n      if (_bool == false){\n        if (_eventDate > now){\n          _cancellingParty = msg.sender;\n          _eventState = EVENTSTATE.CANCELLATION;\n        }\n        else{\n          require(_eventDate < now);\n          _eventState = EVENTSTATE.REPORTING;\n        }\n      }\n      else{\n        require(_eventDate < now);\n        _eventState = EVENTSTATE.REPORTING;\n\n      }\n      _resolveEvent[msg.sender] = _bool;\n      return true;\n\n  }\n\n  function acknowledgeCancelRequest() public onlyBuyerAndSeller returns (bool){\n      require(_eventState == EVENTSTATE.CANCELLATION);\n      require(_eventDate > now);\n      _resolveEvent[msg.sender] = false;\n      cancelEvent();\n  }\n\n  function cancelEvent() internal returns (bool){\n      require(_eventState == EVENTSTATE.CANCELLATION);\n      require(_eventDate > now);\n      require(_resolveEvent[_buyer] == false);\n      require(_resolveEvent[_seller] == false);\n\n      // If buyer cancels the event, the advance payment will be vested with the seller\n      if (_cancellingParty == _buyer){\n        uint _sellerCharges = _escrows[_seller].add(_contributionPoolAmounts[_seller]);\n        uint _buyerCharges = _eventPaymentAmount.add(_escrows[_buyer]).add(_contributionPoolAmounts[_buyer]);\n        payout(_eventProtocolCharges, _buyerCharges, _sellerCharges);\n        return true;\n      }\n\n      // If seller cancels the event, the cancellation fees willbe\n      uint _securityDepositSeller = _ETContract.allowance(_seller, address(this));\n      if (_sellerAdvanceFee > _escrows[_seller]){\n        uint _delta = _sellerAdvanceFee.sub(_escrows[_seller]);\n        payout(_eventProtocolCharges, _escrows[_seller].add(_buyerCancellationFee), 0);\n\n        if (_delta < _securityDepositSeller){\n          _ETContract.transferFrom(_seller, _buyer, _delta);\n        }\n        else{\n          _ETContract.transferFrom(_seller, _buyer, _securityDepositSeller);\n        }\n      }\n      else{\n        _escrows[_seller] = _escrows[_seller].sub(_sellerAdvanceFee);\n        payout(_eventProtocolCharges, _sellerAdvanceFee.add(_buyerCancellationFee), _escrows[_seller]);\n      }\n  }\n\n  function completeResolve(bool _bool) public onlyBuyerAndSeller returns (bool){\n      require(_eventState == EVENTSTATE.REPORTING);\n      require(_eventDate < now);\n      _resolveEvent[msg.sender] = _bool;\n\n      //Check if DISPUTED\n      if (_resolveEvent[_buyer] == _resolveEvent[_seller]){\n        resolveContract();\n        return true;\n      }\n      _eventState = EVENTSTATE.DISPUTED;\n      return false;\n\n  }\n\n\n  function addContributers(address contributor) public onlyBuyerAndSeller returns (bool){\n      require(_eventState == EVENTSTATE.ACTIVE);\n      require(_contributionPoolAmounts[msg.sender] > 0);\n      if (msg.sender == _buyer){\n        _contributerAddressesBuyer.push(contributor);\n        return true;\n      }\n      _contributerAddressesSeller.push(contributor);\n      return true;\n  }\n\n  function acknowledgeContributors(address contributor, uint256 _tokens) public onlyBuyerAndSeller returns (bool){\n      require(_contributionPoolAmounts[msg.sender] >= _tokens);\n      _contributersAcknowledgement[msg.sender][contributor] = _tokens;\n      _contributionPoolAmounts[msg.sender].sub(_tokens);\n      return true;\n  }\n\n  function payOutContributors(address _target) public onlyBuyerAndSeller returns (bool){\n      address _beneficier;\n      if (_target == _buyer){\n        for (uint i = 0; i< _contributerAddressesBuyer.length; i++){\n           _beneficier = _contributerAddressesBuyer[i];\n          _ETContract.approve(_beneficier, _contributersAcknowledgement[msg.sender][_beneficier]);\n          _ETContract.transfer(_beneficier, _contributersAcknowledgement[msg.sender][_beneficier]);\n        }\n      }\n\n      else{\n        for (i = 0; i< _contributerAddressesBuyer.length; i++){\n          _beneficier = _contributerAddressesSeller[i];\n          _ETContract.approve(_beneficier, _contributersAcknowledgement[msg.sender][_beneficier]);\n          _ETContract.transfer(_beneficier, _contributersAcknowledgement[msg.sender][_beneficier]);\n        }\n      }\n      return true;\n  }\n\n  function resolveContract() internal returns (bool){\n      //Pay balance to buyer (and the escrow amount if any)\n      uint _sellerCharges = _eventPaymentAmount.add(_escrows[_seller]).add(_contributionPoolAmounts[_seller]);\n      uint _buyerCharges = _escrows[_buyer].add(_contributionPoolAmounts[_buyer]);\n      payout(_eventProtocolCharges, _buyerCharges, _sellerCharges);\n      return true;\n  }\n\n  function payout(uint256 eventProtocolCharges, uint256 buyerAmount, uint256 sellerAmount) internal returns (bool){\n      payOutContributors(_buyer);\n      payOutContributors(_seller);\n      _ETContract.approve(_eventProtocolAddress, eventProtocolCharges);\n      _ETContract.transfer(_eventProtocolAddress, eventProtocolCharges);\n      _ETContract.approve(_seller, sellerAmount);\n      _ETContract.transfer(_seller, sellerAmount);\n      _ETContract.approve(_buyer, buyerAmount);\n      _ETContract.transfer(_buyer, buyerAmount);\n      _eventState = EVENTSTATE.SETTLED;\n      return true;\n  }\n\n\n  function addArbiters(address arbiter, bool _bool) public returns (bool){\n      if (_bool == _resolveEvent[_buyer]){\n        _arbiterAddressesBuyer.push(arbiter);\n      }\n      else{\n        _arbiterAddressesSeller.push(arbiter);\n      }\n      if (_arbiterAddressesSeller.length.add(_arbiterAddressesSeller.length) == 5){\n        if (_arbiterAddressesBuyer.length > _arbiterAddressesSeller.length){\n            // Buyer wins here (So advance, 50% of escrow of seller and cancellation fees for buyer rewarded)\n            uint _securityDepositSeller = getSellerSecurityDeposit();\n            uint arbiterCharges = SafeMath.div(_escrows[_seller], _arbiterAddressesBuyer.length);\n            uint _sellerEscrowHalf = SafeMath.div(_escrows[_seller], 2);\n\n            if (_sellerAdvanceFee > _sellerEscrowHalf){\n              uint _delta = _sellerAdvanceFee.sub(_sellerEscrowHalf);\n              payout(_eventProtocolCharges, _sellerEscrowHalf.add(_buyerCancellationFee).add(_contributionPoolAmounts[_buyer]), _contributionPoolAmounts[_seller]);\n\n              if (_delta < _securityDepositSeller){\n                _ETContract.transferFrom(_seller, _buyer, _delta);\n              }\n              else{\n                _ETContract.transferFrom(_seller, _buyer, _securityDepositSeller);\n              }\n            }\n            else{\n              _escrows[_seller] = _escrows[_seller].sub(_sellerAdvanceFee).sub(_sellerEscrowHalf);\n              payout(_eventProtocolCharges, _sellerAdvanceFee.add(_buyerCancellationFee).add(_sellerEscrowHalf).add(_contributionPoolAmounts[_buyer]), _escrows[_seller].add(_contributionPoolAmounts[_seller]));\n            }\n\n            for (uint i = 0; i< _arbiterAddressesSeller.length; i++){\n              _ETContract.approve(_arbiterAddressesSeller[i], arbiterCharges);\n              _ETContract.transfer(_arbiterAddressesSeller[i], arbiterCharges);\n            }\n\n        }\n        else{\n          // Seller wins (So 50% of escrow and advance is kept by the seller)\n          uint sellerCharges = SafeMath.div(_escrows[_buyer], 2).add(_contributionPoolAmounts[_seller].add(_escrows[_seller]));\n          uint buyerCharges = _eventPaymentAmount.add(_contributionPoolAmounts[_buyer]);\n          arbiterCharges = SafeMath.div(_escrows[_buyer], _arbiterAddressesSeller.length);\n          for ( i = 0; i< _arbiterAddressesSeller.length; i++){\n            _ETContract.approve(_arbiterAddressesSeller[i], arbiterCharges);\n            _ETContract.transfer(_arbiterAddressesSeller[i], arbiterCharges);\n          }\n          payout(_eventProtocolCharges, buyerCharges, sellerCharges);\n          return true;\n        }\n      }\n  }\n\n  function getEventState() public view returns (EVENTSTATE){\n      return _eventState;\n  }\n\n  function getBuyer() public view returns (address){\n      return _buyer;\n  }\n\n  function getSeller() public view returns (address){\n      return _seller;\n  }\n\n  function getEventDate() public view returns (uint){\n      return _eventDate;\n  }\n\n  function getEventName() public view returns (string){\n      return _eventName;\n  }\n\n  function getEventLocation() public view returns (string){\n      return _eventLocation;\n  }\n\n  function getSellerAdvanceFee() public view returns (uint){\n      return _sellerAdvanceFee;\n  }\n\n  function getBuyerCancellationFee() public view returns (uint){\n      return _buyerCancellationFee;\n  }\n\n  function getEventCreationDate() public view returns (uint){\n      return _eventCreationDate;\n  }\n\n  function getEventProtocolAddress() public view returns (address){\n      return _eventProtocolAddress;\n  }\n\n  function getEventProtocolCharges() public view returns (uint){\n      return _eventProtocolCharges;\n  }\n\n  function getEventPaymentCharges() public view returns (uint){\n      return _eventProtocolCharges.add(_eventPaymentAmount);\n  }\n\n  function getContributionPoolAmounts(address addr) public view returns (uint){\n      require(addr == _buyer || addr == _seller);\n      return _contributionPoolAmounts[addr];\n  }\n\n  function getContributionAmounts(address target, address contributor) public view returns (uint){\n      return _contributersAcknowledgement[target][contributor];\n  }\n\n  function getContributorPoolSize(address target) public view returns (uint){\n      require(target == _buyer || target == _seller);\n      if (target == _buyer){\n        return _contributerAddressesBuyer.length;\n      }\n      return _contributerAddressesSeller.length;\n  }\n\n  function getEscrowAmounts(address addr) public view returns (uint){\n      require(addr == _buyer || addr == _seller);\n      return _escrows[addr];\n  }\n\n  function getTokenAddress() public view returns (address){\n      return address(_ETContract);\n  }\n\n  function getSellerSecurityDeposit() public view returns (uint){\n      return _ETContract.allowance(_seller, address(this));\n  }\n\n  function testThis() public view returns (string){\n      if (_eventState == EVENTSTATE.ACTIVE){\n        return \"YEAH\";\n      }\n      return \"FUCK\";\n  }\n}\n",
  "sourcePath": "/home/keshik/Documents/GitHub/event-protocol-contracts/contracts/EventContract.sol",
  "compiler": {
    "name": "solc",
    "version": "0.4.24+commit.e67f0147.Emscripten.clang"
  },
  "schemaVersion": "2.0.1",
  "updatedAt": "2018-07-15T11:38:58.351Z"
}